:020000040800F2
:10000000001800201D0500086505000865050008AA
:10001000650500086505000865050008000000008A
:10002000000000000000000000000000650500085E
:100030006505000800000000650500084D04000883
:1000400065050008650500086505000865050008E8
:1000500065050008650500086505000865050008D8
:1000600065050008650500086505000865050008C8
:1000700065050008650500086505000865050008B8
:1000800065050008650500086505000865050008A8
:100090006505000865050008650500086505000898
:1000A0006505000865050008650500086505000888
:1000B00065050008650500080000000065050008EA
:1000C000650500080000000000000000650500084C
:1000D000000000006505000865050008000000003C
:1000E00065050008650500086505000800000000BA
:1000F0000000000000000000000000000000000000
:0C01000000000000000000005FF808F1A3
:10010C0010B5054C237833B9044B13B10448AFF345
:10011C0000800123237010BD74000020000000003B
:10012C001020000808B5034B1BB103490348AFF37B
:10013C00008008BD0000000078000020102000089E
:10014C00034613F8012B002AFBD1181A013870470B
:10015C0090B5A9B000AF00F001FA00F0D7F807F1A4
:10016C00140328220021184601F032FB01237B6185
:10017C004FF48033BB6107F11403184600F0D8FC30
:10018C000346002B01D000F0E7F80F233B6001235E
:10019C007B608023BB604FF48063FB604FF4A063F3
:1001AC003B613B460121184600F042FF0346002B01
:1001BC0001D000F0D1F84D4B00221A6001F084F808
:1001CC0002464B4BA3FB02239B09184600F029FB6C
:1001DC00042000F033FB00F099F8464B1C68454BAB
:1001EC001B681846FFF7ACFF03469AB24FF0FF337B
:1001FC002146414801F005F907F13C036422002136
:10020C00184601F0E5FA00F0FDFF024607F13C0349
:10021C003A49184601F0E4FA07F13C031846FFF797
:10022C008FFF03469AB207F13C014FF0FF3332487F
:10023C0001F0E7F807F13C0364220021184601F0B5
:10024C00C7FA01F041F8024607F13C032C49184665
:10025C0001F0C6FA07F13C031846FFF771FF03469D
:10026C009AB207F13C014FF0FF33234801F0C9F873
:10027C0007F13C0364220021184601F0A9FA01F0B1
:10028C002DF8024607F13C031E49184601F0A8FA66
:10029C0007F13C031846FFF753FF03469AB207F1E8
:1002AC003C014FF0FF33144801F0ABF807F13C036D
:1002BC0064220021184601F08BFA01F023F8024663
:1002CC0007F13C031049184601F08AFA07F13C0388
:1002DC001846FFF735FF03469AB207F13C014FF081
:1002EC00FF33054801F08DF8FEE700BF00004242E5
:1002FC00D34D6210000000209C0000204820000814
:10030C0058200008682000087820000880B500AF4D
:10031C000F4B104A1A600E4B4FF4E1325A600C4BE3
:10032C0000229A600A4B0022DA60094B00221A6103
:10033C00074B00229A61064B08225A61044801F0CF
:10034C0013F80346002B01D000F006F800BF80BD67
:10035C009C0000200044004080B400AFFEE7000089
:10036C0080B500AF032000F027FA0D4B5B6A0C4AF6
:10037C0043F4E0235362002200216FF00B0000F0E5
:10038C0026FA002200216FF00A0000F020FA002269
:10039C0000216FF0090000F01AFA00BF80BD00BF09
:1003AC0000ED00E080B58AB000AF7860224BDB69CD
:1003BC00214A43F40033D3611F4BDB6903F4003350
:1003CC007B617B691C4B9B691B4A43F00403936163
:1003DC00194B9B6903F004033B613B69164B9B690A
:1003EC00154A43F001039361134B9B6903F001031E
:1003FC00FB60FB680423BB610223FB6101233B62AE
:10040C0002237B6207F1180319460C4800F03EFAF0
:10041C000823BB6107F118031946084800F036FAA7
:10042C00262000F0F0F900220F21262000F0CFF951
:10043C0000BF2837BD4680BD0010024000080140B7
:10044C0080B500AF00F0D0F800F014FA00BF80BD0A
:10045C0080B584B000AF7860114B1B68002B02D1C3
:10046C000F4B104A1A600E4B1B68FB600C4B1A6842
:10047C007B6813446A46934207D901F07FF9024620
:10048C000C2313604FF0FF3306E0054B1A687B68B2
:10049C001344034A1360FB6818461037BD4680BDF1
:1004AC0090000020E800002080B400AF154B1B68C2
:1004BC00144A43F001031360124B5A681149124B52
:1004CC0013404B600F4B1B680E4A23F0847323F4CC
:1004DC00803313600B4B1B680A4A23F48023136090
:1004EC00084B5B68074A23F4FE035360054B4FF43B
:1004FC001F029A60054B4FF000629A6000BFBD4628
:10050C0080BC7047001002400000FFF800ED00E0D6
:10051C00002103E00B4B5B58435004310A480B4B52
:10052C0042189A42F6D30A4A02E0002342F8043BEE
:10053C00084B9A42F9D3FFF7B7FF01F025F9FFF703
:10054C0007FE7047F0200008000000207400002017
:10055C0074000020E4000020FEE7000080B500AF2E
:10056C00084B1B68074A43F010031360032000F08C
:10057C0023F9002000F008F8FFF7F2FE00231846DC
:10058C0080BD00BF0020024080B582B000AF786013
:10059C00124B1A68124B1B7819464FF47A73B3FB43
:1005AC00F1F3B2FBF3F3184600F03BF90346002BD2
:1005BC0001D001230EE07B680F2B0AD8002279684A
:1005CC004FF0FF3000F003F9064A7B6813600023FC
:1005DC0000E0012318460837BD4680BD040000200A
:1005EC000C0000200800002080B400AF054B1B78E5
:1005FC001A46054B1B681344034A136000BFBD46E3
:10060C0080BC70470C000020DC00002080B400AFE0
:10061C00024B1B681846BD4680BC7047DC000020AE
:10062C0080B485B000AF78607B6803F00703FB6093
:10063C000C4BDB68BB60BA684FF6FF031340BB6022
:10064C00FB681A02BB68134343F0BF6343F40033E7
:10065C00BB60044ABB68D36000BF1437BD4680BC86
:10066C00704700BF00ED00E080B400AF044BDB68C6
:10067C001B0A03F007031846BD4680BC704700BF39
:10068C0000ED00E080B483B000AF0346FB7197F936
:10069C000730002B0BDBFB7903F01F02064997F99F
:1006AC0007305B09012000FA02F241F8232000BF59
:1006BC000C37BD4680BC704700E100E080B483B0CD
:1006CC0000AF03463960FB7197F90730002B0ADB4A
:1006DC003B68DAB20C4997F907301201D2B20B44DD
:1006EC0083F800230AE03B68DAB20849FB7903F08F
:1006FC000F03043B1201D2B20B441A7600BF0C3725
:10070C00BD4680BC704700BF00E100E000ED00E09A
:10071C0080B489B000AFF860B9607A60FB6803F010
:10072C000703FB61FB69C3F10703042B28BF0423F8
:10073C00BB61FB690433062B02D9FB69033B00E068
:10074C0000237B614FF0FF32BB6902FA03F3DA43FB
:10075C00BB681A407B699A404FF0FF317B6901FA04
:10076C0003F3D9437B680B40134318462437BD462B
:10077C0080BC704780B582B000AF78607B68013B6D
:10078C00B3F1807F01D301230FE00A4A7B68013B60
:10079C0053600F214FF0FF30FFF790FF054B002205
:1007AC009A60044B07221A60002318460837BD468E
:1007BC0080BD00BF10E000E080B582B000AF786073
:1007CC007868FFF72DFF00BF0837BD4680BD80B5A8
:1007DC0086B000AF0346B9607A60FB7300237B617F
:1007EC00FFF742FF78617A68B9687869FFF790FF84
:1007FC00024697F90F3011461846FFF75FFF00BF0E
:10080C001837BD4680BD80B582B000AF0346FB7182
:10081C0097F907301846FFF735FF00BF0837BD467C
:10082C0080BD80B582B000AF78607868FFF7A2FF1A
:10083C00034618460837BD4680BD000080B483B01F
:10084C0000AF78607B68042B06D1094B1B68084A03
:10085C0043F00403136005E0054B1B68044A23F0C6
:10086C000403136000BF0C37BD4680BC704700BF4B
:10087C0010E000E080B500AF00F002F800BF80BDD2
:10088C0080B400AF00BFBD4680BC704780B48BB055
:10089C0000AF7860396000237B6200233B6221E16A
:1008AC0001227B6A02FA03F3FB613B681B68FA695D
:1008BC001340BB61BA69FB699A4240F010813B68F6
:1008CC005B68122B34D0122B0DD8022B2BD0022BA1
:1008DC0004D8002B31D0012B1CD048E0032B43D083
:1008EC00112B1BD043E0864A934226D0844A934274
:1008FC0006D8844A934220D0834A93421DD036E0D6
:10090C00824A934219D0824A934216D0814A93422A
:10091C0013D02CE03B68DB683B6228E03B68DB686B
:10092C0004333B6223E03B68DB6808333B621EE028
:10093C003B68DB680C333B6219E03B689B68002B1F
:10094C0002D104233B6212E03B689B68012B05D16A
:10095C0008233B627B68FA691A6108E008233B6252
:10096C007B68FA695A6102E000233B6200BFBB69F5
:10097C00FF2B01D87B6801E07B6804337B61BB698A
:10098C00FF2B02D87B6A9B0002E07B6A083B9B0032
:10099C003B617B691A680F213B6901FA03F3DB4366
:1009AC001A40396A3B6901FA03F31A437B691A60EE
:1009BC003B685B6803F08053002B00F09080564B33
:1009CC009B69554A43F001039361534B9B6903F0B8
:1009DC000103BB60BB68514A7B6A9B08023352F827
:1009EC002330FB607B6A03F003039B000F2202FAA7
:1009FC0003F3DB43FA681340FB607B68484A93427D
:100A0C000DD07B68474A934207D07B68464A934295
:100A1C0001D1022304E0032302E0012300E00023C0
:100A2C007A6A02F0030292009340FA681343FB6067
:100A3C003A497B6A9B080233FA6841F823203B68E9
:100A4C005B6803F48033002B06D0384B1A683749A7
:100A5C00BB6913430B6006E0344B1A68BB69DB437C
:100A6C00324913400B603B685B6803F40033002B86
:100A7C0006D02E4B5A682D49BB6913434B6006E0D8
:100A8C002A4B5A68BB69DB43284913404B603B68CF
:100A9C005B6803F48013002B06D0244B9A6823491F
:100AAC00BB6913438B6006E0204B9A68BB69DB4340
:100ABC001E4913408B603B685B6803F40013002BEA
:100ACC0006D01A4BDA681949BB691343CB6006E0B0
:100ADC00164BDA68BB69DB4314491340CB607B6A65
:100AEC0001337B623B681A687B6A22FA03F3002BA2
:100AFC007FF4D6AE00BF2C37BD4680BC704700BF1C
:100B0C000000211000001110000012100000311024
:100B1C0000003210000022100010024000000140C2
:100B2C0000080140000C014000100140000401408D
:100B3C0080B586B000AF78607B68002B01D10123B3
:100B4C006CE27B681B6803F00103002B00F08780CC
:100B5C00924B5B6803F00C03042B0CD08F4B5B683F
:100B6C0003F00C03082B12D18C4B5B6803F480331D
:100B7C00B3F5803F0BD1894B1B6803F40033002B7A
:100B8C006CD07B685B68002B68D1012346E27B68E4
:100B9C005B68B3F5803F06D1804B1B687F4A43F4FA
:100BAC00803313602EE07B685B68002B0CD17B4B91
:100BBC001B687A4A23F480331360784B1B68774A9E
:100BCC0023F4802313601DE07B685B68B3F5A02FD2
:100BDC000CD1724B1B68714A43F4802313606F4B2A
:100BEC001B686E4A43F4803313600BE06B4B1B683D
:100BFC006A4A23F480331360684B1B68674A23F4FA
:100C0C00802313607B685B68002B13D0FFF7FEFC1E
:100C1C00386108E0FFF7FAFC02463B69D31A642BF3
:100C2C0001D90323FAE15D4B1B6803F40033002B5D
:100C3C00F0D014E0FFF7EAFC386108E0FFF7E6FCBF
:100C4C0002463B69D31A642B01D90323E6E1534BCB
:100C5C001B6803F40033002BF0D100E000BF7B686D
:100C6C001B6803F00203002B63D04C4B5B6803F052
:100C7C000C03002B0BD0494B5B6803F00C03082BC7
:100C8C001CD1464B5B6803F48033002B16D1434BCD
:100C9C001B6803F00203002B05D07B681B69012B3A
:100CAC0001D00123BAE13D4B1B6823F0F8027B68AD
:100CBC005B69DB00394913430B603AE07B681B69C5
:100CCC00002B20D0364B01221A60FFF79FFC3861B5
:100CDC0008E0FFF79BFC02463B69D31A022B01D9B3
:100CEC0003239BE12D4B1B6803F00203002BF0D078
:100CFC002A4B1B6823F0F8027B685B69DB002749F1
:100D0C0013430B6015E0264B00221A60FFF77EFCA4
:100D1C00386108E0FFF77AFC02463B69D31A022BD4
:100D2C0001D903237AE11D4B1B6803F00203002B4E
:100D3C00F0D17B681B6803F00803002B3AD07B686A
:100D4C009B69002B19D0174B01221A60FFF75EFC30
:100D5C00386108E0FFF75AFC02463B69D31A022BB4
:100D6C0001D903235AE10D4B5B6A03F00203002BFC
:100D7C00F0D0012000F0DAFA1CE00A4B00221A60D5
:100D8C00FFF744FC38610FE0FFF740FC02463B697B
:100D9C00D31A022B08D9032340E100BF00100240F4
:100DAC0000004242800442429E4B5B6A03F0020305
:100DBC00002BE9D17B681B6803F00403002B00F0C7
:100DCC00A6800023FB75974BDB6903F08053002B47
:100DDC000DD1944BDB69934A43F08053D361914B13
:100DEC00DB6903F08053BB60BB680123FB758E4B42
:100DFC001B6803F48073002B18D18B4B1B688A4A39
:100E0C0043F480731360FFF701FC386108E0FFF7CF
:100E1C00FDFB02463B69D31A642B01D90323FDE089
:100E2C00814B1B6803F48073002BF0D07B68DB686C
:100E3C00012B06D17B4B1B6A7A4A43F001031362E8
:100E4C002DE07B68DB68002B0CD1764B1B6A754A56
:100E5C0023F001031362734B1B6A724A23F00403E1
:100E6C0013621CE07B68DB68052B0CD16D4B1B6A95
:100E7C006C4A43F0040313626A4B1B6A694A43F0E1
:100E8C00010313620BE0674B1B6A664A23F00103F4
:100E9C001362644B1B6A634A23F0040313627B687E
:100EAC00DB68002B15D0FFF7B1FB38610AE0FFF7C8
:100EBC00ADFB02463B69D31A41F28832934201D909
:100ECC000323ABE0574B1B6A03F00203002BEED05D
:100EDC0014E0FFF79BFB38610AE0FFF797FB024633
:100EEC003B69D31A41F28832934201D9032395E02E
:100EFC004C4B1B6A03F00203002BEED1FB7D012B44
:100F0C0005D1484BDB69474A23F08053D3617B689A
:100F1C00DB69002B00F08180424B5B6803F00C0313
:100F2C00082B61D07B68DB69022B46D13F4B00223A
:100F3C001A60FFF76BFB386108E0FFF767FB0246AE
:100F4C003B69D31A022B01D9032367E0354B1B688D
:100F5C0003F00073002BF0D17B681B6AB3F5803F64
:100F6C0008D1304B5B6823F400327B689B682D49B9
:100F7C0013434B602B4B5B6823F474127B68196A28
:100F8C007B685B6A0B43274913434B60274B012259
:100F9C001A60FFF73BFB386108E0FFF737FB0246AE
:100FAC003B69D31A022B01D9032337E01D4B1B6875
:100FBC0003F00073002BF0D02FE01C4B00221A60C2
:100FCC00FFF724FB386108E0FFF720FB02463B6982
:100FDC00D31A022B01D9032320E0124B1B6803F018
:100FEC000073002BF0D118E07B68DB69012B01D179
:100FFC00012313E00B4B5B68FB60FB6803F480324E
:10100C007B681B6A9A4206D1FB6803F470127B68FA
:10101C005B6A9A4201D0012300E00023184618377E
:10102C00BD4680BD0010024000700040600042428E
:10103C0080B584B000AF786039607B68002B01D13B
:10104C000123D0E06A4B1B6803F007033A689A420D
:10105C0010D9674B1B6823F0070265493B681343A3
:10106C000B60634B1B6803F007033A689A4201D08C
:10107C000123B8E07B681B6803F00203002B20D02F
:10108C007B681B6803F00403002B05D0594B5B688D
:10109C00584A43F4E06353607B681B6803F0080311
:1010AC00002B05D0534B5B68524A43F4605353609A
:1010BC00504B5B6823F0F0027B689B684D491343EF
:1010CC004B607B681B6803F00103002B40D07B68EE
:1010DC005B68012B07D1474B1B6803F40033002BD3
:1010EC0015D101237FE07B685B68022B07D1414B54
:1010FC001B6803F00073002B09D1012373E03D4BF7
:10110C001B6803F00203002B01D101236BE0394B68
:10111C005B6823F003027B685B68364913434B60C2
:10112C00FFF774FAF8600AE0FFF770FA0246FB6802
:10113C00D31A41F28832934201D9032353E02D4B49
:10114C005B6803F00C027B685B689B009A42EBD1F6
:10115C00274B1B6803F007033A689A4210D2244BC2
:10116C001B6823F0070222493B6813430B60204B9A
:10117C001B6803F007033A689A4201D0012332E05E
:10118C007B681B6803F00403002B08D0194B5B68C9
:10119C0023F4E0627B68DB68164913434B607B6881
:1011AC001B6803F00803002B09D0124B5B6823F477
:1011BC0060527B681B69DB000E4913434B6000F0E7
:1011CC0021F801460B4B5B681B0903F00F030A4A1D
:1011DC00D35C21FA03F3094A1360094B1B681846C8
:1011EC00FFF7D2F9002318461037BD4680BD00BF6B
:1011FC0000200240001002409C2000080400002047
:10120C000800002090B48AB000AF2A4B3C1D0FCBD5
:10121C0084E80F00284B1B883B800023FB610023D4
:10122C00BB6100237B6200237B6100233B62234B69
:10123C005B68FB61FB6903F00C03042B02D0082BE9
:10124C0003D02DE01E4B3B622DE0FB699B0C03F0A1
:10125C000F0307F12802134413F8243C7B61FB694C
:10126C0003F48033002B13D0144B5B685B0C03F03E
:10127C00010307F12802134413F8283CBB617B6976
:10128C000F4A02FB03F2BB69B2FBF3F37B6204E08F
:10129C007B690C4A02FB03F37B627B6A3B6202E0D4
:1012AC00074B3B6200BF3B6A18462837BD4690BCD3
:1012BC00704700BF882000089820000800100240EA
:1012CC0000127A0000093D0080B400AF024B1B688D
:1012DC001846BD4680BC70470400002080B500AFA6
:1012EC00FFF7F2FF0146054B5B681B0A03F007038F
:1012FC00034AD35C21FA03F3184680BD0010024068
:10130C00AC20000880B500AFFFF7DEFF0146054BAF
:10131C005B68DB0A03F00703034AD35C21FA03F38F
:10132C00184680BD00100240AC20000880B485B087
:10133C0000AF78600A4B1B680A4AA2FB03235B0AC6
:10134C007A6802FB03F3FB6000BFFB685A1EFA606D
:10135C00002BF9D100BF1437BD4680BC704700BFCD
:10136C0004000020D34D621080B582B000AF7860CD
:10137C007B68002B01D101233FE07B6893F8393067
:10138C00DBB2002B06D17B68002283F8382078680A
:10139C00FFF708F87B68242283F839207B681B68E8
:1013AC00DA687B681B6822F40052DA60786800F017
:1013BC000BF97B681B681A697B681B6822F49042E6
:1013CC001A617B681B685A697B681B6822F02A02C9
:1013DC005A617B681B68DA687B681B6842F40052B0
:1013EC00DA607B680022DA637B68202283F839207C
:1013FC007B68202283F83A20002318460837BD4624
:10140C0080BD80B588B002AFF860B9603B60134610
:10141C00FB8000237B61FB6893F83930DBB2202B17
:10142C0040F08380BB68002B02D0FB88002B01D1DD
:10143C0001237BE0FB6893F83830012B01D10223A8
:10144C0074E0FB68012283F83820FB680022DA6321
:10145C00FB68212283F83920FFF7D8F87861FB6804
:10146C00FA889A84FB68FA88DA8442E0FB68DB8CA1
:10147C009BB2013B9AB2FB68DA84FB689B68B3F5BC
:10148C00805F22D13B6800937B6900228021F86841
:10149C0000F050F80346002B01D0032346E0BB6854
:1014AC003B613B691B881A46FB681B68C2F3080248
:1014BC005A60FB681B69002B03D1BB680233BB600D
:1014CC0017E0BB680133BB6013E03B6800937B699A
:1014DC0000228021F86800F02DF80346002B01D083
:1014EC00032323E0BB685A1CBA601A78FB681B689C
:1014FC005A60FB68DB8C9BB2002BB7D13B68009326
:10150C007B6900224021F86800F014F80346002B98
:10151C0001D003230AE0FB68202283F83920FB6802
:10152C00002283F83820002300E0022318461837E5
:10153C00BD4680BD80B584B000AFF860B9603B603B
:10154C001346FB712CE0BB69B3F1FF3F28D0BB699C
:10155C00002B07D0FFF75AF802463B68D31ABA693A
:10156C009A421DD2FB681B68DA68FB681B6822F480
:10157C00D072DA60FB681B685A69FB681B6822F042
:10158C0001025A61FB68202283F83920FB68202273
:10159C0083F83A20FB68002283F8382003230FE0FD
:1015AC00FB681B681A68BB681340BA689A420CBF88
:1015BC0001230023DBB21A46FB799A42C3D00023E5
:1015CC0018461037BD4680BD80B584B000AF78603A
:1015DC007B681B681B6923F440517B68DA687B6865
:1015EC001B680A431A617B689A687B681B691A43FB
:1015FC007B685B691343FB607B681B68DB6823F4C7
:10160C00B05323F00C037A681268F9680B43D3606B
:10161C007B681B685B6923F440717B689A697B6803
:10162C001B680A435A617B681B68524A93424ED12D
:10163C00FFF768FEB860BA6813469B0013449A0023
:10164C001A447B685B689B00B2FBF3F34A4AA2FB2B
:10165C0003235B091901BA6813469B0013449A00D3
:10166C001A447B685B689B00B2FBF3F2424BA3FB12
:10167C0002035B09642000FB03F3D31A1B01323312
:10168C003D4AA2FB03235B0903F0F0031944BA683B
:10169C0013469B0013449A001A447B685B689B00BA
:1016AC00B2FBF3F2344BA3FB02035B09642000FB97
:1016BC0003F3D31A1B0132332F4AA2FB03235B091A
:1016CC0003F00F027B681B680A449A604DE0FFF739
:1016DC0005FEB860BA6813469B0013449A001A447E
:1016EC007B685B689B00B2FBF3F3234AA2FB0323EA
:1016FC005B091901BA6813469B0013449A001A44FB
:10170C007B685B689B00B2FBF3F21B4BA3FB0203F1
:10171C005B09642000FB03F3D31A1B013233164A16
:10172C00A2FB03235B0903F0F0031944BA681346C8
:10173C009B0013449A001A447B685B689B00B2FBC5
:10174C00F3F20D4BA3FB02035B09642000FB03F3D4
:10175C00D31A1B013233084AA2FB03235B0903F0A3
:10176C000F027B681B680A449A6000BF1037BD46A5
:10177C0080BD00BF003801401F85EB51014B18683C
:10178C00704700BF1000002070B500250C4E0D4CAA
:10179C00A41BA410A54209D100F034FC00250A4E6C
:1017AC000A4CA41BA410A54205D170BD56F82530D7
:1017BC0098470135EEE756F8253098470135F2E7A2
:1017CC00E8200008E8200008E8200008EC200008C9
:1017DC0003460244934200D1704703F8011BF9E71A
:1017EC000EB46FF0004100B59CB01DAB029006909A
:1017FC00079104910848094953F8042B0591006896
:10180C0002A9019300F066F80022029B1A701CB02A
:10181C005DF804EB03B07047100000200802FFFFD6
:10182C002DE9F0478E6882469E420C4690469946BA
:10183C0037D88A8912F4906F31D002232568096950
:10184C006F1A656905EB450595FBF3F509F1010385
:10185C003B449D4238BF1D46530530D5294600F008
:10186C0037FB064650B90C234FF0FF30CAF8003056
:10187C00A38943F04003A381BDE8F0873A46216970
:10188C0000F0B6FAA38923F4906343F08003A3819C
:10189C0026613E4426604E466561ED1BA5604E45B3
:1018AC0000D94E4632464146206800F0ACFAA36897
:1018BC0000209B1BA36023681E442660DCE72A469D
:1018CC0000F060FB06460028E2D12169504600F08A
:1018DC00B3FAC8E72DE9F04F1D468B899DB01F0662
:1018EC0080460C4616460FD50B696BB9402100F0AB
:1018FC00EFFA2060206128B90C23C8F800304FF0B3
:10190C00FF30C8E0402363610023099320238DF846
:10191C00293030234FF0010B8DF82A3003953746D0
:10192C003D4615F8013B0BB1252B3ED1B7EB060A12
:10193C000BD05346324621464046FFF771FF01302B
:10194C0000F0A480099B534409933B78002B00F0D2
:10195C009D8000234FF0FF32CDE9052304930793BC
:10196C008DF853301A932F46052217F8011B504857
:10197C0000F030FA049BD0B9D90644BF20228DF870
:10198C0053201A0744BF2B228DF853202A782A2A79
:10199C0015D02F4600200A25079A394611F8013B2D
:1019AC00303B092B4DD9B8B10FE02F46B8E7404A70
:1019BC003D46801A0BFA00F018430490D3E7039AC3
:1019CC00111D12680391002A01DB079204E05242B8
:1019DC0043F00203079204933B782E2B0CD17B78B7
:1019EC002A2B33D1039B02371A1D1B680392002B41
:1019FC00B8BF4FF0FF3305932E4D0322397828469C
:101A0C0000F0E8F938B14023401B03FA00F0049BC6
:101A1C000137034304933978062227487E1C8DF83E
:101A2C00281000F0D7F9002838D0244B13BB039BA7
:101A3C00073323F0070308330393099B4B440993A3
:101A4C006DE705FB023201200F46A6E700230A25AD
:101A5C00194601370593384610F8012B303A092AFC
:101A6C0003D9002BC8D00591C6E705FB0121012342
:101A7C000746F0E703AB00932246114B04A94046FE
:101A8C00AFF30080B0F1FF3F8146D6D1A3895B064E
:101A9C003FF535AF09981DB0BDE8F08F03AB00934F
:101AAC002246074B04A9404600F082F8EAE700BF43
:101ABC00B4200008BA200008BE2000080000000076
:101ACC002D1800082DE9F04791461F468A680B69CE
:101ADC0006469342B8BF1346C9F8003091F843202C
:101AEC000C46DDF8208012B10133C9F800302368B0
:101AFC00990642BFD9F800300233C9F80030256886
:101B0C0015F0060507D104F1190AE368D9F800208D
:101B1C009B1AAB4229DC94F843302268003318BF7F
:101B2C00012392062ED404F1430239463046C047B5
:101B3C00013021D02368E56803F00603042B18BF9D
:101B4C000025D9F800204FF0000908BFAD1AA36892
:101B5C00226908BF25EAE5759342C4BF9B1AED18AC
:101B6C001A344D451AD1002008E00123524639465B
:101B7C003046C047013003D14FF0FF30BDE8F0874D
:101B8C000135C2E73020E11881F843005A1C94F863
:101B9C0045102244023382F84310C4E70123224645
:101BAC0039463046C0470130E6D009F10109D8E783
:101BBC002DE9F04301F1430C0C46097E85B06E29EA
:101BCC001746064698460C9A00F0B38022D8632933
:101BDC0036D00AD8002900F0B980582900F083804B
:101BEC0004F1420584F8421032E0642901D06929DD
:101BFC00F6D120681368050603F104012AD51B6889
:101C0C001160002B03DA2D225B4284F843206F48CD
:101C1C000A2239E0732900F09D8008D86F2920D062
:101C2C007029DDD1236843F02003236003E075297C
:101C3C0017D07829D4D17823654884F8453055E0FD
:101C4C00136804F14205191D1B68116084F84230B9
:101C5C0001238CE01B6810F0400F116018BF1BB201
:101C6C00CFE713682568181D1060280601D51B687E
:101C7C0002E06806FBD51B886F2914BF0A220822D4
:101C8C005248002184F843106568002DA560C0F20D
:101C9C009580216821F004012160002B3DD1002D9D
:101CAC0040F08E806546082A0BD12368DB0708D5E7
:101CBC00236962689A42DEBF302305F8013C05F1C6
:101CCC00FF35ACEB05032361CDF800803B4603AA3E
:101CDC0021463046FFF7F6FE01304DD14FF0FF3074
:101CEC0005B0BDE8F083394884F8451013682168C5
:101CFC001D1D1B6815600A060BD5CA0744BF41F0B1
:101D0C00200121601BB9226822F0200222601022DF
:101D1C00B7E74D0648BF9BB2EFE76546B3FBF2F160
:101D2C0002FB1133C35C05F8013D0B460029F5D1CC
:101D3C00B9E713682568181D6169106028061B68CF
:101D4C0001D5196002E06A06FBD5198000236546AF
:101D5C002361B9E71368191D11601D6862680021C1
:101D6C00284600F037F808B1401B606063682361B7
:101D7C00002384F84330A7E723692A4639463046C6
:101D8C00C0470130AAD023689B0713D4E068039B9B
:101D9C009842B8BF1846A3E701234A463946304655
:101DAC00C04701309AD00135E368039A9B1AAB42C5
:101DBC00F2DCEBE7002504F11909F5E7002BACD1B7
:101DCC00037804F1420584F842306CE7C520000822
:101DDC00D620000810B5C9B202449042034601D186
:101DEC00002303E01C7801308C42F6D1184610BD5C
:101DFC0010B5431E0A44914200D110BD11F8014B9D
:101E0C0003F8014FF7E7884210B501EB020307D83E
:101E1C00421E99420AD011F8014B02F8014FF8E723
:101E2C008342F5D98118D21AD34200D110BD13F8D0
:101E3C00014D01F8014DF7E738B50546002943D0AF
:101E4C0051F8043C0C1F002BB8BFE41800F0D0F87C
:101E5C001E4A1368104633B9636014602846BDE807
:101E6C00384000F0C6B8A3420BD9216862189342DF
:101E7C0001BF1A685B685218226063600460EDE76A
:101E8C0013465A680AB1A242FAD919685818A042E6
:101E9C000BD120680144581882421960DED11068B9
:101EAC005268014419605A60D8E702D90C232B60A0
:101EBC00D4E7206821188A4201BF116852680918BA
:101ECC00216062605C60C9E738BD00BF94000020EF
:101EDC0070B5CD1C25F0030508350C2D38BF0C252D
:101EEC00002D064601DBA94203D90C2333600020E8
:101EFC0070BD00F07DF8214A1468214691B9204C40
:101F0C0023681BB9304600F063F820602946304640
:101F1C0000F05EF8431C24D10C233046336000F0F3
:101F2C0068F8E4E70B685B1B18D40B2B0FD90B601C
:101F3C00CC18CD50304600F05CF804F10B00231D9A
:101F4C0020F00700C31AD3D05A42E250D0E74B68B6
:101F5C008C4216BF636013600C46EBE70C46496875
:101F6C00CCE7C41C24F00304A04205D0211A30464F
:101F7C0000F02EF80130CFD02560DBE79400002074
:101F8C0098000020F8B5074614460E4621B9BDE866
:101F9C00F8401146FFF79CBF22B9FFF74DFF2546CD
:101FAC002846F8BD00F026F8A0420FD2214638464C
:101FBC00FFF78EFF05460028F2D031462246FFF788
:101FCC0017FF31463846FFF737FFE9E73546E7E7B5
:101FDC0038B50023054C054608462360FEF738FA51
:101FEC00431C02D1236803B12B6038BDE0000020F4
:101FFC007047704751F8043C181F002BBCBF0B589E
:10200C00C0187047F8B500BFF8BC08BC9E467047B6
:0C201C00F8B500BFF8BC08BC9E46704739
:10202800546865206170706C69636174696F6E20B3
:1020380069732072756E6E696E670D0A0000000084
:10204800535953434C4B3A20256C64487A0D0A0087
:1020580048434C4B3A20256C64487A0D0A0000002E
:1020680050434C4B313A20256C64487A0D0A0000E5
:1020780050434C4B323A20256C64487A0D0A0000D4
:1020880002030405060708090A0B0C0D0E0F1010B1
:10209800010200000000000000000000010203042B
:1020A800060708090000000001020304232D302B55
:1020B8002000686C4C006566674546470030313241
:1020C8003334353637383941424344454600303198
:1020D80032333435363738396162636465660000F7
:0420E80031010008BA
:0420EC000D010008DA
:1020F000282000080024F400100000000100000067
:10210000140000200000000000000000000000009B
:1021100000000000000000000000000000000000BF
:1021200000000000000000000000000000000000AF
:10213000000000000000000000000000000000009F
:10214000000000000000000000000000000000008F
:10215000000000000000000000000000000000007F
:04216000000000007B
:040000050800051DCD
:00000001FF
