:020000040800F2
:100000000080012061070008B1070008B10700085F
:10001000B1070008B1070008B107000800000000A0
:10002000000000000000000000000000B107000810
:10003000B107000800000000B1070008E50400084F
:10004000B1070008B1070008B1070008B1070008B0
:10005000B1070008B1070008B1070008B1070008A0
:10006000B1070008B1070008B1070008B107000890
:10007000B1070008B1070008B1070008B107000880
:10008000B1070008B1070008B10700080000000030
:10009000000000000000000000000000B1070008A0
:1000A000B1070008B1070008B1070008B107000850
:1000B000B1070008B1070008B1070008B107000840
:1000C000B1070008B1070008B1070008B107000830
:1000D000B1070008B1070008F5040008000000009F
:1000E000B1070008B1070008B107000800000000D0
:1000F000000000000000000000000000B107000840
:1001000000000000B1070008B1070008B1070008AF
:1001100000000000000000000000000000000000DF
:10012000B1070008B1070008B1070008B1070008CF
:10013000B1070008000000000000000000000000FF
:10014000000000000000000000000000B1070008EF
:10015000B1070008B1070008B1070008B10700089F
:10016000B1070008B107000800000000000000000F
:10017000000000000000000000000000000000007F
:1001800000000000B10700080000000000000000AF
:04019000B1070008AB
:1001940010B5054C237833B9044B13B10448AFF3BD
:1001A40000800123237010BD100000200000000017
:1001B4003C1D000808B5034B1BB103490348AFF3CA
:1001C400008008BD00000000140000203C1D000851
:1001D400034613F8012B002AFBD1181A0138704783
:1001E40053B94AB9002908BF00281CBF4FF0FF319A
:1001F4004FF0FF3000F072B9ADF1080C6DE904CE98
:1002040000F006F8DDF804E0DDE9022304B07047ED
:100214002DE9F047089E04468846002B4BD18A42BC
:10022400154667D9B2FA82F24AB1C2F1200701FA3F
:1002340002F320FA07F7954047EA030894404FEA8F
:10024400154E230CB8FBFEF71FFA85FC0EFB17882E
:1002540043EA084307FB0CF1994209D9EB1807F16B
:10026400FF3080F01B81994240F21881023F2B44F9
:100274005B1AA4B2B3FBFEF00EFB103344EA034452
:1002840000FB0CFCA44509D92C1900F1FF3380F0C4
:100294000781A44540F2048102382C4440EA074017
:1002A400A4EB0C0400271EB1D4400023C6E900438C
:1002B4003946BDE8F0878B4209D9002E00F0EB8067
:1002C4000027C6E9000138463946BDE8F087B3FA8D
:1002D40083F7002F47D18B4202D3824200F2FA8087
:1002E400841A61EB030301209846002EE0D0C6E98E
:1002F4000048DDE702B9FFDEB2FA82F2002A40F0DC
:100304008F80491B4FEA154E1FFA85F80127B1FB70
:10031400FEFC230C0EFB1C1143EA014308FB0CF109
:10032400994207D9EB180CF1FF3002D2994200F23E
:10033400CD808446591AA3B2B1FBFEF00EFB101413
:1003440043EA044408FB00F8A04507D92C1900F13E
:10035400FF3302D2A04500F2B6801846A4EB08048D
:1003640040EA0C409FE7C7F1200CBB4022FA0CFE88
:100374004EEA030E01FA07F420FA0CF521FA0CF305
:100384004FEA1E482543B3FBF8F92C0C08FB19333C
:100394001FFA8EFA44EA034309FB0AF49C4202FA68
:1003A40007F200FA07F10BD91EEB030309F1FF3042
:1003B40080F087809C4240F28480A9F10209734452
:1003C4001B1BADB2B3FBF8F008FB103345EA034442
:1003D40000FB0AFAA24508D91EEB040400F1FF331E
:1003E4006BD2A24569D90238744440EA0940A0FBA3
:1003F4000289A4EB0A044C45C2464B4654D351D05F
:10040400002E69D0B1EB0A0564EB030404FA0CFC7A
:10041400FD40FC404CEA0505C6E90054002747E7C7
:10042400C2F1200320FA03F7954001FA02F021FA01
:1004340003F34FEA154E3843010CB3FBFEF71FFAE2
:1004440085F80EFB173341EA034107FB08F38B429F
:1004540004FA02F407D9691807F1FF3C2FD28B4242
:100464002DD9023F2944CB1A81B2B3FBFEF00EFB17
:10047400103341EA034100FB08F38B4207D96918A2
:1004840000F1FF3C17D28B4215D902382944C91A0E
:1004940040EA07473BE73746304609E70746E7E6C1
:1004A4001846FBE64145ABD2B8EB020A69EB0E02F3
:1004B40001381346A4E76046E9E7184695E767461E
:1004C400D1E781467CE702382C4447E7ACF1020CC3
:1004D4002B442FE7384608E73746E9E6704700BF64
:1004E40080B500AF00F0B6F900F0E5FA00BF80BDBA
:1004F40080B500AF024800F0FFFD00BF80BD00BF23
:100504003800002080B582B000AF00F051F900F04F
:1005140025F800F02BF80D4B1B681846FFF758FE22
:100524000346FB80094B1968FA884FF0FF330848EB
:1005340000F0F3FC04E001220649054800F086FDC2
:10054400054B1B78012BF6D1FEE700BF000000200D
:1005540038000020340000203000002080B400AFB8
:1005640000BFBD465DF8047B7047000080B500AF56
:100574000F4B104A1A600E4B4FF4E1325A600C4B89
:1005840000229A600A4B0022DA60094B00221A61A9
:10059400074B00229A61064B08225A61044800F076
:1005A4006FFC0346002B01D000F054F800BF80BD5F
:1005B400380000200044004080B483B000AF0346FC
:1005C400FB71FB79602B05D9FB797A2B02D8FB7977
:1005D400203BFB71FB7918460C37BD465DF8047B64
:1005E4007047000090B583B000AF7860154B1B785E
:1005F4000D2B14D1144B01221A70144B1B685A1C76
:1006040012490A60124A0D21D154104B1B689AB248
:100614004FF0FF330E49786800F07FFC0DE0094B82
:1006240019780A4B1C68631C084A13600846FFF7D4
:10063400C3FF03461A46064B1A5500BF0C37BD4686
:1006440090BD00BF34000020300000202C000020AA
:100654007800002080B400AFFEE7000080B500AF52
:10066400032000F0E7F90D4B5B6A0C4A43F4E023E6
:100674005362002200216FF00B0000F0E6F9002223
:1006840000216FF00A0000F0E0F9002200216FF071
:10069400090000F0DAF900BF80BD00BF00ED00E002
:1006A40080B58AB000AF786000233B611E4B1B6CA1
:1006B4001D4A43F4003313641B4B1B6C03F40033D7
:1006C4003B613B690023FB60174B1B6B164A43F0ED
:1006D40001031363144B1B6B03F00103FB60FB6802
:1006E40004237B610223BB610123FB6100233B6282
:1006F40007237B6207F1140319460C4800F00AFA39
:1007040008237B6107F114031946084800F002FA34
:10071400262000F0B6F900220F21262000F095F9DA
:1007240000BF2837BD4680BD0038024000000240AB
:1007340080B400AF084BD3F88830074A43F4700301
:10074400C2F88830044B4FF000629A6000BFBD4687
:100754005DF8047B704700BF00ED00E0DFF834D0A3
:10076400002103E00C4B5B58435004310B480C4B05
:1007740042189A42F6D30B4A02E0002342F8043BA3
:10078400094B9A42F9D3FFF7D3FF01F0B1FAFFF70F
:10079400B9FE7047008001208C1D00080000002075
:1007A4001000002010000020E0000020FEE7000000
:1007B40080B500AF0E4B1B680D4A43F40073136001
:1007C4000B4B1B680A4A43F480631360084B1B6895
:1007D400074A43F480731360032000F02BF90020D0
:1007E40000F008F8FFF73AFF0023184680BD00BF69
:1007F400003C024080B582B000AF7860124B1A68AA
:10080400124B1B7819464FF47A73B3FBF1F3B2FB26
:10081400F3F3184600F043F90346002B01D00123FB
:100824000EE07B680F2B0AD8002279684FF0FF3066
:1008340000F00BF9064A7B681360002300E00123F3
:1008440018460837BD4680BD040000200C00002077
:100854000800002080B400AF064B1B781A46064BF4
:100864001B681344044A136000BFBD465DF8047B53
:10087400704700BF0C000020DC00002080B400AFF3
:10088400034B1B681846BD465DF8047B704700BFE8
:10089400DC00002080B485B000AF78607B6803F092
:1008A4000703FB600C4BDB68BB60BA684FF6FF03C1
:1008B4001340BB60FB681A02BB68134343F0BF6379
:1008C40043F40033BB60044ABB68D36000BF1437F1
:1008D400BD465DF8047B704700ED00E080B400AFD6
:1008E400044BDB681B0A03F007031846BD465DF89A
:1008F400047B704700ED00E080B483B000AF034692
:10090400FB7197F90730002B0BDBFB7903F01F0217
:10091400074997F907305B09012000FA02F241F810
:10092400232000BF0C37BD465DF8047B704700BF31
:1009340000E100E080B483B000AF03463960FB718E
:1009440097F90730002B0ADB3B68DAB20C4997F9B8
:1009540007301201D2B20B4483F800230AE03B684B
:10096400DAB20849FB7903F00F03043B1201D2B257
:100974000B441A7600BF0C37BD465DF8047B704704
:1009840000E100E000ED00E080B489B000AFF86061
:10099400B9607A60FB6803F00703FB61FB69C3F18C
:1009A4000703042B28BF0423BB61FB690433062B14
:1009B40002D9FB69033B00E000237B614FF0FF3267
:1009C400BB6902FA03F3DA43BB681A407B699A40B5
:1009D4004FF0FF317B6901FA03F3D9437B680B4085
:1009E400134318462437BD465DF8047B7047000066
:1009F40080B582B000AF78607B68013BB3F1807F43
:100A040001D301230FE00A4A7B68013B53600F21A5
:100A14004FF0FF30FFF78EFF054B00229A60044B26
:100A240007221A60002318460837BD4680BD00BF60
:100A340010E000E080B582B000AF78607868FFF71E
:100A440029FF00BF0837BD4680BD80B586B000AF22
:100A54000346B9607A60FB7300237B61FFF73EFFB6
:100A640078617A68B9687869FFF78EFF024697F96A
:100A74000F3011461846FFF75DFF00BF1837BD461B
:100A840080BD80B582B000AF0346FB7197F9073093
:100A94001846FFF731FF00BF0837BD4680BD80B55B
:100AA40082B000AF78607868FFF7A2FF034618466B
:100AB4000837BD4680BD80B500AF00F002F800BF26
:100AC40080BD80B400AF00BFBD465DF8047B7047B5
:100AD40080B483B000AF78607B6893F83530DBB2C4
:100AE400022B04D07B6880225A6501230CE07B68CA
:100AF400052283F835207B681B681A687B681B68AD
:100B040022F001021A60002318460C37BD465DF836
:100B1400047B704780B489B000AF786039600023EB
:100B24007B6100233B610023BB610023FB6159E12E
:100B34000122FB6902FA03F37B613B681B687A6953
:100B440013403B613A697B699A4240F048813B68B3
:100B54005B68012B0BD03B685B68022B07D03B68BA
:100B64005B68112B03D03B685B68122B30D17B6828
:100B74009B68BB61FB695B00032202FA03F3DB435E
:100B8400BA691340BB613B68DA68FB695B0002FA2F
:100B940003F3BA691343BB617B68BA699A607B68E3
:100BA4005B68BB610122FB6902FA03F3DB43BA69A8
:100BB4001340BB613B685B681B0903F00102FB69DE
:100BC40002FA03F3BA691343BB617B68BA695A60DA
:100BD4007B68DB68BB61FB695B00032202FA03F3F9
:100BE400DB43BA691340BB613B689A68FB695B00ED
:100BF40002FA03F3BA691343BB617B68BA69DA602A
:100C04003B685B68022B03D03B685B68122B23D1E3
:100C1400FB69DA087B68083253F82230BB61FB6950
:100C240003F007039B000F2202FA03F3DB43BA69C4
:100C34001340BB613B681A69FB6903F007039B001F
:100C440002FA03F3BA691343BB61FB69DA087B68F0
:100C54000832B96943F822107B681B68BB61FB69E1
:100C64005B00032202FA03F3DB43BA691340BB615E
:100C74003B685B6803F00302FB695B0002FA03F361
:100C8400BA691343BB617B68BA691A603B685B68E5
:100C940003F08053002B00F0A2800023FB60564B2E
:100CA4005B6C554A43F480435364534B5B6C03F4CD
:100CB4008043FB60FB68514AFB699B08023352F88E
:100CC4002330BB61FB6903F003039B000F2202FA8C
:100CD40003F3DB43BA691340BB617B68484A934220
:100CE40019D07B68474A934213D07B68464A9342A3
:100CF4000DD07B68454A934207D07B68444A9342AF
:100D040001D1042308E0072306E0032304E00223BF
:100D140002E0012300E00023FA6902F003029200DA
:100D24009340BA691343BB613449FB699B0802339E
:100D3400BA6941F82320374B1B68BB613B69DB432D
:100D4400BA691340BB613B685B6803F48033002BD2
:100D540003D0BA693B691343BB612E4ABB69136074
:100D64002C4B5B68BB613B69DB43BA691340BB61D5
:100D74003B685B6803F40033002B03D0BA693B691A
:100D84001343BB61234ABB695360224B9B68BB611D
:100D94003B69DB43BA691340BB613B685B6803F49E
:100DA4008013002B03D0BA693B691343BB61194A12
:100DB400BB699360174BDB68BB613B69DB43BA6972
:100DC4001340BB613B685B6803F40013002B03D042
:100DD400BA693B691343BB610E4ABB69D360FB69C3
:100DE4000133FB61FB690F2B7FF6A2AE00BF2437F2
:100DF400BD465DF8047B704700380240003801406E
:100E0400000002400004024000080240000C0240BE
:100E140000100240003C014080B400AF034B1B684B
:100E24001846BD465DF8047B704700BF04000020EF
:100E340080B500AFFFF7F0FF0146054B9B689B0AA6
:100E440003F00703034AD35C21FA03F3184680BD79
:100E540000380240741D000880B500AFFFF7DCFFC6
:100E64000146054B9B685B0B03F00703034AD35C05
:100E740021FA03F3184680BD00380240741D0008AF
:100E840080B582B000AF78607B68002B01D101236C
:100E94003FE07B6893F83930DBB2002B06D17B68E6
:100EA400002283F838207868FFF7FAFB7B68242255
:100EB40083F839207B681B68DA687B681B6822F436
:100EC4000052DA60786800F097FB7B681B681A6947
:100ED4007B681B6822F490421A617B681B685A691C
:100EE4007B681B6822F02A025A617B681B68DA68F7
:100EF4007B681B6842F40052DA607B680022DA6384
:100F04007B68202283F839207B68202283F83A20EA
:100F1400002318460837BD4680BD80B588B002AFAF
:100F2400F860B9603B601346FB8000237B61FB687B
:100F340093F83930DBB2202B40F08380BB68002B60
:100F440002D0FB88002B01D101237BE0FB6893F8DE
:100F54003830012B01D1022374E0FB68012283F8AD
:100F64003820FB680022DA63FB68212283F83920E9
:100F7400FFF784FC7861FB68FA889A84FB68FA8836
:100F8400DA84FB68002283F8382042E0FB68DB8CBB
:100F94009BB2013B9AB2FB68DA84FB689B68B3F5A9
:100FA400805F22D13B6800937B6900228021F8682E
:100FB40000F0B6F90346002B01D0032342E0BB68DE
:100FC4003B613B691B881A46FB681B68C2F3080235
:100FD4005A60FB681B69002B03D1BB680233BB60FA
:100FE40017E0BB680133BB6013E03B6800937B6987
:100FF40000228021F86800F093F90346002B01D009
:1010040003231FE0BB685A1CBA601A78FB681B688C
:101014005A60FB68DB8C9BB2002BB7D13B68009312
:101024007B6900224021F86800F07AF90346002B1E
:1010340001D0032306E0FB68202283F83920002333
:1010440000E0022318461837BD4680BD80B485B041
:1010540000AFF860B9601346FB80FB6893F83A3040
:10106400DBB2202B40D1BB68002B02D0FB88002BC5
:1010740001D1012339E0FB6893F83830012B01D109
:10108400022332E0FB68012283F83820FB68BA6847
:101094009A62FB68FA889A85FB68FA88DA85FB68A5
:1010A4000022DA63FB68222283F83A20FB680022DC
:1010B40083F83820FB681B68DA68FB681B6842F415
:1010C4008072DA60FB681B685A69FB681B6842F02F
:1010D40001025A61FB681B68DA68FB681B6842F00E
:1010E4002002DA60002300E0022318461437BD46CC
:1010F4005DF8047B7047000080B588B000AF78606D
:101104007B681B681B68FB617B681B68DB68BB61D1
:101114007B681B685B697B6100233B610023FB6088
:10112400FB6903F00F033B613B69002B0DD1FB69A5
:1011340003F02003002B08D0BB6903F02003002B2D
:1011440003D0786800F0D6F9D1E03B69002B00F0B9
:10115400B0807B6903F00103002B05D1BB6903F464
:101164009073002B00F0A580FB6903F00103002BB2
:101174000AD0BB6903F48073002B05D07B68DB6B5A
:1011840043F001027B68DA63FB6903F00403002B7C
:101194000AD07B6903F00103002B05D07B68DB6B6D
:1011A40043F002027B68DA63FB6903F00203002B5D
:1011B4000AD07B6903F00103002B05D07B68DB6B4D
:1011C40043F004027B68DA63FB6903F00803002B35
:1011D4000FD0BB6903F02003002B04D17B6903F01B
:1011E4000103002B05D07B68DB6B43F008027B68AE
:1011F400DA637B68DB6B002B78D0FB6903F0200398
:10120400002B07D0BB6903F02003002B02D07868C1
:1012140000F070F97B681B685B6903F04003402BA6
:101224000CBF01230023DBB2FB607B68DB6B03F0A4
:101234000803002B02D1FB68002B31D0786800F042
:10124400B9F87B681B685B6903F04003402B23D12A
:101254007B681B685A697B681B6822F040025A61EC
:101264007B685B6B002B13D07B685B6B214A1A6530
:101274007B685B6B1846FFF72BFC0346002B16D0EC
:101284007B685B6B1B6D7A68526B104698470EE067
:10129400786800F03BF80AE0786800F037F806E078
:1012A400786800F033F87B680022DA631EE000BF40
:1012B4001CE0FB6903F08003002B08D0BB6903F03A
:1012C4008003002B03D0786800F0A6F80FE0FB69D8
:1012D40003F04003002B0AD0BB6903F04003002B4A
:1012E40005D0786800F0EEF800BF00E000BF2037BA
:1012F400BD4680BDF513000880B483B000AF7860AC
:1013040000BF0C37BD465DF8047B704780B483B0E2
:1013140000AF786000BF0C37BD465DF8047B7047B2
:1013240080B584B000AFF860B9603B601346FB71D0
:101334002CE0BB69B3F1FF3F28D0BB69002B07D079
:10134400FFF79CFA02463B68D31ABA699A421DD247
:10135400FB681B68DA68FB681B6822F4D072DA60E9
:10136400FB681B685A69FB681B6822F001025A611A
:10137400FB68202283F83920FB68202283F83A2076
:10138400FB68002283F8382003230FE0FB681B6806
:101394001A68BB681340BA689A420CBF0123002341
:1013A400DBB21A46FB799A42C3D0002318461037A1
:1013B400BD4680BD80B483B000AF78607B681B6895
:1013C400DA687B681B6822F49072DA607B681B68B9
:1013D4005A697B681B6822F001025A617B682022EB
:1013E40083F83A2000BF0C37BD465DF8047B704794
:1013F40080B584B000AF78607B689B6BFB60FB6852
:101404000022DA85FB680022DA84F868FFF77EFFA1
:1014140000BF1037BD4680BD80B485B000AF786092
:101424007B6893F83930DBB2212B44D17B689B680D
:10143400B3F5805F1AD17B681B6AFB60FB681B886D
:101444001A467B681B68C2F308025A607B681B69F2
:10145400002B05D17B681B6A9A1C7B681A620EE01C
:101464007B681B6A5A1C7B681A6208E07B681B6AEB
:10147400591C7A6811621A787B681B685A607B6809
:10148400DB8C9BB2013B9BB27A681946D184002B5A
:101494000FD17B681B68DA687B681B6822F08002C6
:1014A400DA607B681B68DA687B681B6842F040027C
:1014B400DA60002300E0022318461437BD465DF8C5
:1014C400047B704780B582B000AF78607B681B688E
:1014D400DA687B681B6822F04002DA607B682022AD
:1014E40083F839207868FFF707FF00231846083788
:1014F400BD4680BD80B584B000AF78607B6893F84A
:101504003A30DBB2222B71D17B689B68B3F5805FE4
:1015140023D17B689B6AFB607B681B69002B0ED11F
:101524007B681B685B689BB2C3F308039AB2FB68D1
:101534001A807B689B6A9A1C7B689A6229E07B68A4
:101544001B685B689BB2DBB29AB2FB681A807B684B
:101554009B6A5A1C7B689A621BE07B681B69002BA0
:101564000AD17B681B6858687B689B6A591C7A6837
:101574009162C2B21A700CE07B681B685B68DAB2D5
:101584007B689B6A581C7968886202F07F02D2B239
:101594001A707B68DB8D9BB2013B9BB27A6819465B
:1015A400D185002B20D17B681B68DA687B681B68B7
:1015B40022F02002DA607B681B68DA687B681B68AB
:1015C40022F48072DA607B681B685A697B681B6846
:1015D40022F001025A617B68202283F83A2078685D
:1015E400FFF700F8002302E0002300E0022318467E
:1015F4001037BD4680BD00002DE9F04F85B000AF27
:1016040078607B681B681B6923F440517B68DA6847
:101614007B681B680A431A617B689A687B681B694C
:101624001A437B685B691A437B68DB691343FB607D
:101634007B681B68DB6823F4164323F00C037A6889
:101644001268F9680B43D3607B681B685B6923F4F9
:1016540040717B689A697B681B680A435A617B689E
:10166400DB69B3F5004F40F08B817B681B68C14A8E
:10167400934205D07B681B68BF4A934240F0BD800B
:10168400FFF7EAFBB860BB681D464FF00006A846AA
:10169400B14618EB080349EB09049846A14618EB38
:1016A400050849EB06094FF000014FF000024FEA2C
:1016B400C90242EA58724FEAC8018846914618EBBB
:1016C400050049EB06017B685B681D464FF0000688
:1016D4006B1946EB06041A462346FEF781FD0346C2
:1016E4000C461A46A54BA3FB02235B094FEA0318D9
:1016F400BB681D464FF00006A946B24619EB090324
:101704004AEB0A049946A24619EB05094AEB060A74
:101714004FF000014FF000024FEACA0242EA597248
:101724004FEAC9018946924619EB05004AEB0601C6
:101734007B685B681D464FF000066B1946EB060498
:101744001A462346FEF74CFD03460C461A468B4BBD
:10175400A3FB02135B09642101FB03F3D31ADB002F
:101764003233864AA2FB03235B095B0003F4F8735C
:101774009844BB681D464FF00006A946B24619EBD3
:1017840009034AEB0A049946A24619EB05094AEBF8
:10179400060A4FF000014FF000024FEACA0242EA83
:1017A40059724FEAC9018946924619EB05004AEB82
:1017B40006017B685B681D464FF000066B1946EB1B
:1017C40006041A462346FEF70BFD03460C461A464A
:1017D4006A4BA3FB02135B09642101FB03F3D31AD5
:1017E400DB003233654AA2FB03235B0903F00702E3
:1017F4007B681B6842449A606FE2FFF719FBB8608C
:10180400BB681D464FF00006A846B14618EB080316
:1018140049EB09049846A14618EB050849EB06096B
:101824004FF000014FF000024FEAC90242EA587239
:101834004FEAC8018846914618EB050049EB0601BA
:101844007B685B681D464FF000066B1946EB060487
:101854001A462346FEF7C4FC03460C461A46474B79
:10186400A3FB02235B094FEA0318BB681D464FF034
:101874000006A946B24619EB09034AEB0A04994645
:10188400A24619EB05094AEB060A4FF000014FF096
:1018940000024FEACA0242EA59724FEAC901894674
:1018A400924619EB05004AEB06017B685B681D460E
:1018B4004FF000066B1946EB06041A462346FEF762
:1018C4008FFC03460C461A462C4BA3FB02135B0900
:1018D400642101FB03F3D31ADB003233274AA2FB52
:1018E40003235B095B0003F4F8739844BB681D464B
:1018F4004FF00006A946B24619EB09034AEB0A0465
:101904009946A24619EB05094AEB060A4FF0000175
:101914004FF000024FEACA0242EA59724FEAC90183
:101924008946924619EB05004AEB06017B685B6821
:101934001D464FF000066B1946EB06041A46234673
:10194400FEF74EFC03460C461A460C4BA3FB02134F
:101954005B09642101FB03F3D31ADB003233074A2A
:10196400A2FB03235B0903F007027B681B68424464
:101974009A60B2E100100140001401401F85EB5150
:101984007B681B68D74A934205D07B681B68D64A9C
:10199400934240F0D180FFF75FFAB860BB689A4683
:1019A4004FF0000BD046D94618EB080349EB090465
:1019B4009846A14618EB0A0849EB0B094FF00001C1
:1019C4004FF000024FEAC90242EA58724FEAC801D6
:1019D400884691461AEB08054BEB09067B685B6861
:1019E40019464FF000024FF000034FF0000494003A
:1019F40044EA91748B001A46234628463146FEF782
:101A0400EFFB03460C461A46B84BA3FB02235B09C3
:101A14004FEA0318BB689B464FF0000CD946E246D8
:101A240019EB09034AEB0A049946A24619EB0B0980
:101A34004AEB0C0A4FF000014FF000024FEACA02D1
:101A440042EA59724FEAC901894692461BEB0905DD
:101A54004CEB0A067B685B6819464FF000024FF0B6
:101A640000034FF00004940044EA91748B001A467A
:101A7400234628463146FEF7B3FB03460C461A4676
:101A84009A4BA3FB02135B09642101FB03F3D31AF2
:101A94001B013233954AA2FB03235B0903F0F003D5
:101AA4009844BB689B464FF0000CD946E24619EBBC
:101AB40009034AEB0A049946A24619EB0B094AEBBF
:101AC4000C0A4FF000014FF000024FEACA0242EA4A
:101AD40059724FEAC901894692461BEB09054CEB42
:101AE4000A067B685B6819464FF000024FF000035A
:101AF4004FF00004940044EA91748B001A46234684
:101B040028463146FEF76CFB03460C461A46774BD3
:101B1400A3FB02135B09642101FB03F3D31A1B012A
:101B24003233724AA2FB03235B0903F00F027B6882
:101B34001B6842449A60D0E0FFF77AF9B860BB684A
:101B44009A464FF0000BD046D94618EB080349EBF0
:101B540009049846A14618EB0A0849EB0B094FF013
:101B640000014FF000024FEAC90242EA58724FEAFC
:101B7400C801884691461AEB08054BEB09067B68B9
:101B84005B6819464FF000024FF000034FF0000469
:101B9400940044EA91748B001A4623462846314641
:101BA400FEF71EFB03460C461A46504BA3FB0223CA
:101BB4005B094FEA0318BB689B464FF0000CD946FB
:101BC400E24619EB09034AEB0A049946A24619EBCB
:101BD4000B094AEB0C0A4FF000014FF000024FEAE8
:101BE400CA0242EA59724FEAC901894692461BEB7E
:101BF40009054CEB0A067B685B6819464FF0000246
:101C04004FF000034FF00004940044EA91748B00F9
:101C14001A46234628463146FEF7E2FA03460C46A6
:101C24001A46324BA3FB02135B09642101FB03F345
:101C3400D31A1B0132332D4AA2FB03235B0903F0A1
:101C4400F0039844BB689B464FF0000CD946E2462B
:101C540019EB09034AEB0A049946A24619EB0B094E
:101C64004AEB0C0A4FF000014FF000024FEACA029F
:101C740042EA59724FEAC901894692461BEB0905AB
:101C84004CEB0A067B685B6819464FF000024FF084
:101C940000034FF00004940044EA91748B001A4648
:101CA400234628463146FEF79BFA03460C461A465D
:101CB4000E4BA3FB02135B09642101FB03F3D31A4C
:101CC4001B013233094AA2FB03235B0903F00F0211
:101CD4007B681B6842449A60FFE700BF1437BD4627
:101CE400BDE8F08F00100140001401401F85EB5146
:101CF40070B50D4E0D4CA41BA4100025A54209D1AE
:101D04000B4E0C4C00F018F8A41BA4100025A5429F
:101D140005D170BD56F8253098470135EEE756F8E1
:101D2400253098470135F2E7841D0008841D00081A
:101D3400841D0008881D0008F8B500BFF8BC08BC65
:101D44009E467047F8B500BFF8BC08BC9E46704775
:101D5400546865206170706C69636174696F6E208A
:101D640069732072756E6E696E670D0A000000005B
:081D740000000000010203045D
:081D7C0098E4FF7F0100000064
:041D8400B901000899
:041D880095010008B9
:101D8C00541D00080024F4001000000001000000A5
:040000050800076187
:00000001FF
