:020000040800F2
:10000000002800203D030008850300088503000840
:100010008503000885030008850300080000000030
:100020000000000000000000000000008503000840
:10003000850300080000000085030008B1020008E5
:100040008503000885030008850300088503000870
:100050008503000885030008850300088503000860
:100060008503000885030008850300088503000850
:100070008503000885030008850300088503000840
:100080008503000885030008850300088503000830
:100090008503000885030008850300088503000820
:1000A0008503000885030008850300088503000810
:1000B00085030008C1020008000000008503000855
:1000C0008503000800000000000000008503000810
:1000D0000000000085030008850300080000000000
:1000E0008503000885030008850300080000000060
:1000F0000000000000000000000000000000000000
:0C01000000000000000000005FF808F1A3
:10010C0010B5054C237833B9044B13B10448AFF345
:10011C0000800123237010BD0C00002000000000A3
:10012C00C80D000808B5034B1BB103490348AFF3D6
:10013C00008008BD0000000010000020C80D000861
:10014C0080B500AF00F01AF900F01CF800F020F8B0
:10015C0000F048F8034800F030FC024800F050FC76
:10016C00FEE700BF2800002080B582B000AF7860A9
:10017C000421034800F0DEFB00BF0837BD4680BDFC
:10018C000008014080B400AF00BFBD4680BC704782
:10019C0080B586B000AF114B9B69104A43F0040345
:1001AC0093610E4B9B6903F004037B607B68042313
:1001BC00BB600123FB6000233B6102237B6107F1E1
:1001CC0008031946064800F04BFA002204210448A3
:1001DC0000F098FB00BF1837BD4680BD00100240F0
:1001EC000008014080B500AF0A4B0B4A1A60094B5E
:1001FC004FF496725A60074B46F2D172DA6005489A
:10020C0000F0B0FB0346002B01D000F007F800BF54
:10021C0080BD00BF280000200004004080B400AF67
:10022C00FEE7000080B500AF032000F0CBF90D4BCA
:10023C005B6A0C4A43F4E0235362002200216FF006
:10024C000B0000F0CAF9002200216FF00A0000F048
:10025C00C4F9002200216FF0090000F0BEF900BFC4
:10026C0080BD00BF00ED00E080B584B000AF7860C9
:10027C000B4BDB690A4A43F00203D361084BDB6981
:10028C0003F00203FB60FB681D2000F0C2F90022A2
:10029C000F211D2000F0A1F900BF1037BD4680BD15
:1002AC000010024080B500AF00F0AEF800F0CBF9C2
:1002BC0000BF80BD80B500AF024800F0C4FB00BF9A
:1002CC0080BD00BF2800002080B400AF154B1B6818
:1002DC00144A43F001031360124B5A681149124B34
:1002EC0013404B600F4B1B680E4A23F0847323F4AE
:1002FC00803313600B4B1B680A4A23F48023136072
:10030C00084B5B68074A23F4FE035360054B4FF41C
:10031C001F029A60054B4FF000629A6000BFBD4609
:10032C0080BC7047001002400000FFF800ED00E0B8
:10033C00002103E00B4B5B58435004310A480B4B34
:10034C0042189A42F6D30A4A02E0002342F8043BD0
:10035C00084B9A42F9D3FFF7B7FF00F00BFDFFF7FC
:10036C00EFFE7047E80D0008000000200C00002094
:10037C000C0000206C000020FEE7000080B500AFF0
:10038C00084B1B68074A43F010031360032000F06E
:10039C0019F9002000F008F8FFF744FF0023184675
:1003AC0080BD00BF0020024080B582B000AF7860F5
:1003BC00124B1A68124B1B7819464FF47A73B3FB25
:1003CC00F1F3B2FBF3F3184600F031F90346002BBE
:1003DC0001D001230EE07B680F2B0AD8002279682C
:1003EC004FF0FF3000F0F9F8064A7B6813600023E9
:1003FC0000E0012318460837BD4680BD00000020F0
:10040C00080000200400002080B400AF054B1B78CE
:10041C001A46054B1B681344034A136000BFBD46C4
:10042C0080BC7047080000206800002080B485B0B4
:10043C0000AF78607B6803F00703FB600C4BDB6854
:10044C00BB60BA684FF6FF031340BB60FB681A022F
:10045C00BB68134343F0BF6343F40033BB60044AEF
:10046C00BB68D36000BF1437BD4680BC704700BF6B
:10047C0000ED00E080B400AF044BDB681B0A03F016
:10048C0007031846BD4680BC704700BF00ED00E076
:10049C0080B483B000AF0346FB7197F90730002B93
:1004AC000BDBFB7903F01F02064997F907305B0958
:1004BC00012000FA02F241F8232000BF0C37BD46A0
:1004CC0080BC704700E100E080B483B000AF03460D
:1004DC003960FB7197F90730002B0ADB3B68DAB205
:1004EC000C4997F907301201D2B20B4483F8002360
:1004FC000AE03B68DAB20849FB7903F00F03043BCE
:10050C001201D2B20B441A7600BF0C37BD4680BC28
:10051C00704700BF00E100E000ED00E080B489B05E
:10052C0000AFF860B9607A60FB6803F00703FB6109
:10053C00FB69C3F10703042B28BF0423BB61FB69D0
:10054C000433062B02D9FB69033B00E000237B61DB
:10055C004FF0FF32BB6902FA03F3DA43BB681A406F
:10056C007B699A404FF0FF317B6901FA03F3D94361
:10057C007B680B40134318462437BD4680BC70473C
:10058C0080B582B000AF78607B68013BB3F1807FAF
:10059C0001D301230FE00A4A7B68013B53600F2112
:1005AC004FF0FF30FFF790FF054B00229A60044B91
:1005BC0007221A60002318460837BD4680BD00BFCD
:1005CC0010E000E080B582B000AF78607868FFF78B
:1005DC002DFF00BF0837BD4680BD80B586B000AF8B
:1005EC000346B9607A60FB7300237B61FFF742FF1F
:1005FC0078617A68B9687869FFF790FF024697F9D5
:10060C000F3011461846FFF75FFF00BF1837BD4685
:10061C0080BD80B582B000AF0346FB7197F90730FF
:10062C001846FFF735FF00BF0837BD4680BD80B5C3
:10063C0082B000AF78607868FFF7A2FF03461846D7
:10064C000837BD4680BD80B500AF00F002F800BF92
:10065C0080BD80B400AF00BFBD4680BC70470000B9
:10066C0080B48BB000AF7860396000237B620023CC
:10067C003B6221E101227B6A02FA03F3FB613B68D6
:10068C001B68FA691340BB61BA69FB699A4240F076
:10069C0010813B685B68122B34D0122B0DD8022BC7
:1006AC002BD0022B04D8002B31D0012B1CD048E0CE
:1006BC00032B43D0112B1BD043E0864A934226D008
:1006CC00844A934206D8844A934220D0834A934268
:1006DC001DD036E0824A934219D0824A934216D0FA
:1006EC00814A934213D02CE03B68DB683B6228E0E4
:1006FC003B68DB6804333B6223E03B68DB68083310
:10070C003B621EE03B68DB680C333B6219E03B68E4
:10071C009B68002B02D104233B6212E03B689B6870
:10072C00012B05D108233B627B68FA691A6108E04A
:10073C0008233B627B68FA695A6102E000233B6242
:10074C0000BFBB69FF2B01D87B6801E07B680433D9
:10075C007B61BB69FF2B02D87B6A9B0002E07B6A42
:10076C00083B9B003B617B691A680F213B6901FACE
:10077C0003F3DB431A40396A3B6901FA03F31A436A
:10078C007B691A603B685B6803F08053002B00F0B8
:10079C009080564B9B69554A43F001039361534B30
:1007AC009B6903F00103BB60BB68514A7B6A9B08E1
:1007BC00023352F82330FB607B6A03F003039B0087
:1007CC000F2202FA03F3DB43FA681340FB607B68E9
:1007DC00484A93420DD07B68474A934207D07B68C6
:1007EC00464A934201D1022304E0032302E0012391
:1007FC0000E000237A6A02F0030292009340FA6848
:10080C001343FB603A497B6A9B080233FA6841F850
:10081C0023203B685B6803F48033002B06D0384BF5
:10082C001A683749BB6913430B6006E0344B1A68EE
:10083C00BB69DB43324913400B603B685B6803F4D4
:10084C000033002B06D02E4B5A682D49BB6913433D
:10085C004B6006E02A4B5A68BB69DB4328491340BE
:10086C004B603B685B6803F48013002B06D0244B71
:10087C009A682349BB6913438B6006E0204B9A6846
:10088C00BB69DB431E4913408B603B685B6803F418
:10089C000013002B06D01A4BDA681949BB691343B5
:1008AC00CB6006E0164BDA68BB69DB431449134096
:1008BC00CB607B6A01337B623B681A687B6A22FAE5
:1008CC0003F3002B7FF4D6AE00BF2C37BD4680BCA3
:1008DC00704700BF00002110000011100000121022
:1008EC0000003110000032100000221000100240F5
:1008FC000000014000080140000C014000100140C4
:10090C000004014080B483B000AF78600B467B805C
:10091C0013467B707B78002B03D07A887B681A6136
:10092C0003E07B881A047B681A6100BF0C37BD4654
:10093C0080BC704780B483B000AF78600B467B807E
:10094C007B68DA687B881340002B03D07A887B683D
:10095C005A6102E07A887B681A6100BF0C37BD4689
:10096C0080BC704780B582B000AF78607B68002B8C
:10097C0001D101231DE07B6893F83D30DBB2002BE5
:10098C0006D17B68002283F83C207868FFF76CFC6A
:10099C007B68022283F83D207B681A687B680433ED
:1009AC001946104600F07CF97B68012283F83D2043
:1009BC00002318460837BD4680BD80B485B000AF13
:1009CC0078607B68022283F83D207B681B689B68FB
:1009DC0003F00703FB60FB68062B07D07B681B68E2
:1009EC001A687B681B6842F001021A607B6801225E
:1009FC0083F83D20002318461437BD4680BC704751
:100A0C0080B485B000AF78607B681B68DA687B685F
:100A1C001B6842F00102DA607B681B689B6803F07C
:100A2C000703FB60FB68062B07D07B681B681A6802
:100A3C007B681B6842F001021A60002318461437C9
:100A4C00BD4680BC704780B582B000AF78607B68D3
:100A5C001B681B6903F00203022B22D17B681B6805
:100A6C00DB6803F00203022B1BD17B681B686FF061
:100A7C0002021A617B6801221A777B681B689B69EA
:100A8C0003F00303002B03D0786800F0EDF805E0C9
:100A9C00786800F0E0F8786800F0EFF87B680022E6
:100AAC001A777B681B681B6903F00403042B22D1A3
:100ABC007B681B68DB6803F00403042B1BD17B6889
:100ACC001B686FF004021A617B6802221A777B683C
:100ADC001B689B6903F44073002B03D0786800F00B
:100AEC00C3F805E0786800F0B6F8786800F0C5F84F
:100AFC007B6800221A777B681B681B6903F008036C
:100B0C00082B22D17B681B68DB6803F00803082BD9
:100B1C001BD17B681B686FF008021A617B6804228A
:100B2C001A777B681B68DB6903F00303002B03D087
:100B3C00786800F099F805E0786800F08CF878682F
:100B4C0000F09BF87B6800221A777B681B681B6996
:100B5C0003F01003102B22D17B681B68DB6803F0B9
:100B6C001003102B1BD17B681B686FF010021A61ED
:100B7C007B6808221A777B681B68DB6903F4407377
:100B8C00002B03D0786800F06FF805E0786800F06F
:100B9C0062F8786800F071F87B6800221A777B683D
:100BAC001B681B6903F00103012B0ED17B681B68CA
:100BBC00DB6803F00103012B07D17B681B686FF026
:100BCC0001021A617868FFF7CFFA7B681B681B6912
:100BDC0003F08003802B0ED17B681B68DB6803F06D
:100BEC008003802B07D17B681B686FF080021A6131
:100BFC00786800F0B6F87B681B681B6903F040034B
:100C0C00402B0ED17B681B68DB6803F04003402B44
:100C1C0007D17B681B686FF040021A61786800F09E
:100C2C0035F87B681B681B6903F02003202B0ED161
:100C3C007B681B68DB6803F02003202B07D17B68E3
:100C4C001B686FF020021A61786800F081F800BF11
:100C5C000837BD4680BD80B483B000AF786000BF5C
:100C6C000C37BD4680BC704780B483B000AF786051
:100C7C0000BF0C37BD4680BC704780B483B000AF5A
:100C8C00786000BF0C37BD4680BC704780B483B021
:100C9C0000AF786000BF0C37BD4680BC70470000C9
:100CAC0080B485B000AF786039607B681B68FB60EE
:100CBC007B68254A934207D07B68B3F1804F03D001
:100CCC007B68224A934208D1FB6823F07003FB60D7
:100CDC003B685B68FA681343FB607B681A4A934273
:100CEC0007D07B68B3F1804F03D07B68174A9342DF
:100CFC0008D1FB6823F44073FB603B68DB68FA683F
:100D0C001343FB60FB6823F080023B685B69134371
:100D1C00FB607B68FA681A603B689A687B68DA62E9
:100D2C003B681A687B689A627B68074A934203D1D6
:100D3C003B681A697B681A637B6801225A6100BFA1
:100D4C001437BD4680BC7047002C014000040040A5
:100D5C0080B483B000AF786000BF0C37BD4680BC58
:100D6C00704780B483B000AF786000BF0C37BD46CD
:100D7C0080BC704770B500250C4E0D4CA41BA41004
:100D8C00A54209D100F01AF800250A4E0A4CA41B02
:100D9C00A410A54205D170BD56F8253098470135F1
:100DAC00EEE756F8253098470135F2E7E00D0008DC
:100DBC00E00D0008E00D0008E40D0008F8B500BFD8
:100DCC00F8BC08BC9E467047F8B500BFF8BC08BC20
:040DDC009E46704778
:040DE00031010008D5
:040DE4000D010008F5
:0C0DE8000024F4001000000001000000D6
:040000050800033DAF
:00000001FF
