:020000040800F2
:10000000002800202903000871030008710300087C
:10001000710300087103000871030008000000006C
:100020000000000000000000000000007103000854
:10003000710300080000000071030008B10200080D
:1000400071030008710300087103000871030008C0
:1000500071030008710300087103000871030008B0
:1000600071030008710300087103000871030008A0
:100070007103000871030008710300087103000890
:100080007103000871030008710300087103000880
:100090007103000871030008710300087103000870
:1000A0007103000871030008710300087103000860
:1000B00071030008710300080000000071030008CC
:1000C0007103000800000000000000007103000838
:1000D0000000000071030008710300080000000028
:1000E000710300087103000871030008000000009C
:1000F0000000000000000000000000000000000000
:0C01000000000000000000005FF808F1A3
:10010C0010B5054C237833B9044B13B10448AFF345
:10011C0000800123237010BD0C00002000000000A3
:10012C00F00A000808B5034B1BB103490348AFF3B1
:10013C00008008BD0000000010000020F00A00083C
:10014C0080B500AF00F010F900F01CF800F020F8BA
:10015C0000F048F8084800F026FC00BF074B1B696C
:10016C0003F00103002BF9D0044B00221A61042187
:10017C00034800F0D5FBF0E7280000200004004005
:10018C000008014080B400AF00BFBD4680BC704782
:10019C0080B586B000AF114B9B69104A43F0040345
:1001AC0093610E4B9B6903F004037B607B68042313
:1001BC00BB600123FB6000233B6102237B6107F1E1
:1001CC0008031946064800F041FA002204210448AD
:1001DC0000F08EFB00BF1837BD4680BD00100240FA
:1001EC000008014080B500AF0A4B0B4A1A60094B5E
:1001FC004FF496725A60074B46F2D172DA6005489A
:10020C0000F0A6FB0346002B01D000F007F800BF5E
:10021C0080BD00BF280000200004004080B400AF67
:10022C00FEE7000080B500AF032000F0C1F90D4BD4
:10023C005B6A0C4A43F4E0235362002200216FF006
:10024C000B0000F0C0F9002200216FF00A0000F052
:10025C00BAF9002200216FF0090000F0B4F900BFD8
:10026C0080BD00BF00ED00E080B584B000AF7860C9
:10027C000B4BDB690A4A43F00203D361084BDB6981
:10028C0003F00203FB60FB681D2000F0B8F90022AC
:10029C000F211D2000F097F900BF1037BD4680BD1F
:1002AC000010024080B500AF00F0A4F800F0C1F9D6
:1002BC0000BF80BD80B400AF154B1B68144A43F0DF
:1002CC0001031360124B5A681149124B13404B60D7
:1002DC000F4B1B680E4A23F0847323F48033136096
:1002EC000B4B1B680A4A23F480231360084B5B6892
:1002FC00074A23F4FE035360054B4FF41F029A6028
:10030C00054B4FF000629A6000BFBD4680BC704741
:10031C00001002400000FFF800ED00E0002103E0B7
:10032C000B4B5B58435004310A480B4B42189A4212
:10033C00F6D30A4A02E0002342F8043B084B9A42E7
:10034C00F9D3FFF7B7FF00F0A9FBFFF7F9FE7047F1
:10035C00100B0008000000200C0000200C000020F6
:10036C006C000020FEE7000080B500AF084B1B6856
:10037C00074A43F010031360032000F019F9002022
:10038C0000F008F8FFF74EFF0023184680BD00BFB1
:10039C000020024080B582B000AF7860124B1A6822
:1003AC00124B1B7819464FF47A73B3FBF1F3B2FB83
:1003BC00F3F3184600F031F90346002B01D001236A
:1003CC000EE07B680F2B0AD8002279684FF0FF30C3
:1003DC0000F0F9F8064A7B681360002300E0012363
:1003EC0018460837BD4680BD0000002008000020DC
:1003FC000400002080B400AF054B1B781A46054B57
:10040C001B681344034A136000BFBD4680BC704791
:10041C00080000206800002080B485B000AF786030
:10042C007B6803F00703FB600C4BDB68BB60BA68AE
:10043C004FF6FF031340BB60FB681A02BB68134303
:10044C0043F0BF6343F40033BB60044ABB68D36022
:10045C0000BF1437BD4680BC704700BF00ED00E004
:10046C0080B400AF044BDB681B0A03F0070318468B
:10047C00BD4680BC704700BF00ED00E080B483B087
:10048C0000AF0346FB7197F90730002B0BDBFB79B0
:10049C0003F01F02064997F907305B09012000FAA7
:1004AC0002F241F8232000BF0C37BD4680BC7047D8
:1004BC0000E100E080B483B000AF03463960FB710B
:1004CC0097F90730002B0ADB3B68DAB20C4997F935
:1004DC0007301201D2B20B4483F800230AE03B68C8
:1004EC00DAB20849FB7903F00F03043B1201D2B2D4
:1004FC000B441A7600BF0C37BD4680BC704700BF5A
:10050C0000E100E000ED00E080B489B000AFF860DD
:10051C00B9607A60FB6803F00703FB61FB69C3F108
:10052C000703042B28BF0423BB61FB690433062B90
:10053C0002D9FB69033B00E000237B614FF0FF32E3
:10054C00BB6902FA03F3DA43BB681A407B699A4031
:10055C004FF0FF317B6901FA03F3D9437B680B4001
:10056C00134318462437BD4680BC704780B582B013
:10057C0000AF78607B68013BB3F1807F01D301232E
:10058C000FE00A4A7B68013B53600F214FF0FF30AC
:10059C00FFF790FF054B00229A60044B07221A606C
:1005AC00002318460837BD4680BD00BF10E000E0B0
:1005BC0080B582B000AF78607868FFF72DFF00BF80
:1005CC000837BD4680BD80B586B000AF0346B96024
:1005DC007A60FB7300237B61FFF742FF78617A68D6
:1005EC00B9687869FFF790FF024697F90F3011460A
:1005FC001846FFF75FFF00BF1837BD4680BD80B5BA
:10060C0082B000AF0346FB7197F907301846FFF72D
:10061C0035FF00BF0837BD4680BD80B582B000AF46
:10062C0078607868FFF7A2FF034618460837BD4686
:10063C0080BD80B500AF00F002F800BF80BD80B473
:10064C0000AF00BFBD4680BC7047000080B48BB0CB
:10065C0000AF7860396000237B6200233B6221E1AC
:10066C0001227B6A02FA03F3FB613B681B68FA699F
:10067C001340BB61BA69FB699A4240F010813B6838
:10068C005B68122B34D0122B0DD8022B2BD0022BE3
:10069C0004D8002B31D0012B1CD048E0032B43D0C5
:1006AC00112B1BD043E0864A934226D0844A9342B6
:1006BC0006D8844A934220D0834A93421DD036E018
:1006CC00824A934219D0824A934216D0814A93426D
:1006DC0013D02CE03B68DB683B6228E03B68DB68AE
:1006EC0004333B6223E03B68DB6808333B621EE06B
:1006FC003B68DB680C333B6219E03B689B68002B62
:10070C0002D104233B6212E03B689B68012B05D1AC
:10071C0008233B627B68FA691A6108E008233B6294
:10072C007B68FA695A6102E000233B6200BFBB6937
:10073C00FF2B01D87B6801E07B6804337B61BB69CC
:10074C00FF2B02D87B6A9B0002E07B6A083B9B0074
:10075C003B617B691A680F213B6901FA03F3DB43A8
:10076C001A40396A3B6901FA03F31A437B691A6030
:10077C003B685B6803F08053002B00F09080564B75
:10078C009B69554A43F001039361534B9B6903F0FA
:10079C000103BB60BB68514A7B6A9B08023352F869
:1007AC002330FB607B6A03F003039B000F2202FAE9
:1007BC0003F3DB43FA681340FB607B68484A9342BF
:1007CC000DD07B68474A934207D07B68464A9342D8
:1007DC0001D1022304E0032302E0012300E0002303
:1007EC007A6A02F0030292009340FA681343FB60AA
:1007FC003A497B6A9B080233FA6841F823203B682C
:10080C005B6803F48033002B06D0384B1A683749E9
:10081C00BB6913430B6006E0344B1A68BB69DB43BE
:10082C00324913400B603B685B6803F40033002BC8
:10083C0006D02E4B5A682D49BB6913434B6006E01A
:10084C002A4B5A68BB69DB43284913404B603B6811
:10085C005B6803F48013002B06D0244B9A68234961
:10086C00BB6913438B6006E0204B9A68BB69DB4382
:10087C001E4913408B603B685B6803F40013002B2C
:10088C0006D01A4BDA681949BB691343CB6006E0F2
:10089C00164BDA68BB69DB4314491340CB607B6AA7
:1008AC0001337B623B681A687B6A22FA03F3002BE4
:1008BC007FF4D6AE00BF2C37BD4680BC704700BF5E
:1008CC000000211000001110000012100000311067
:1008DC000000321000002210001002400000014005
:1008EC0000080140000C01400010014000040140D0
:1008FC0080B483B000AF78600B467B8013467B706E
:10090C007B78002B03D07A887B681A6103E07B88A4
:10091C001A047B681A6100BF0C37BD4680BC704757
:10092C0080B483B000AF78600B467B807B68DA685C
:10093C007B881340002B03D07A887B685A6102E0D5
:10094C007A887B681A6100BF0C37BD4680BC704743
:10095C0080B582B000AF78607B68002B01D1012399
:10096C001DE07B6893F83D30DBB2002B06D17B6831
:10097C00002283F83C207868FFF776FC7B68022223
:10098C0083F83D207B681A687B680433194610464F
:10099C0000F02CF87B68012283F83D2000231846D8
:1009AC000837BD4680BD80B485B000AF78607B68E9
:1009BC00022283F83D207B681B689B6803F00703C9
:1009CC00FB60FB68062B07D07B681B681A687B688A
:1009DC001B6842F001021A607B68012283F83D20FB
:1009EC00002318461437BD4680BC704780B485B0D0
:1009FC0000AF786039607B681B68FB607B68254AB8
:100A0C00934207D07B68B3F1804F03D07B68224AB6
:100A1C00934208D1FB6823F07003FB603B685B6872
:100A2C00FA681343FB607B681A4A934207D07B68D1
:100A3C00B3F1804F03D07B68174A934208D1FB680F
:100A4C0023F44073FB603B68DB68FA681343FB607C
:100A5C00FB6823F080023B685B691343FB607B6897
:100A6C00FA681A603B689A687B68DA623B681A68B5
:100A7C007B689A627B68074A934203D13B681A6988
:100A8C007B681A637B6801225A6100BF1437BD462C
:100A9C0080BC7047002C01400004004070B500255C
:100AAC000C4E0D4CA41BA410A54209D100F01AF851
:100ABC0000250A4E0A4CA41BA410A54205D170BDFA
:100ACC0056F8253098470135EEE756F8253098470B
:100ADC000135F2E7080B0008080B0008080B0008AA
:100AEC000C0B0008F8B500BFF8BC08BC9E4670475C
:0C0AFC00F8B500BFF8BC08BC9E4670476F
:040B080031010008AF
:040B0C000D010008CF
:0C0B10000024F4001000000001000000B0
:0400000508000329C3
:00000001FF
