:020000040800F2
:1000000000280020190400086104000861040008A9
:100010006104000861040008610400080000000099
:100020000000000000000000000000006104000863
:100030006104000800000000610400088D0300084E
:1000400061040008610400086104000861040008FC
:1000500061040008610400086104000861040008EC
:1000600061040008610400086104000861040008DC
:1000700061040008610400086104000861040008CC
:1000800061040008610400086104000861040008BC
:1000900061040008610400086104000861040008AC
:1000A000610400086104000861040008610400089C
:1000B000610400089D0300080000000061040008BE
:1000C0006104000800000000000000006104000856
:1000D0000000000061040008610400080000000046
:1000E00061040008610400086104000800000000C9
:1000F0000000000000000000000000000000000000
:0C01000000000000000000005FF808F1A3
:10010C0010B5054C237833B9044B13B10448AFF345
:10011C0000800123237010BD0C00002000000000A3
:10012C009016000808B5034B1BB103490348AFF305
:10013C00008008BD00000000100000209016000890
:10014C0080B500AF00F088F9402000F00BF800F00B
:10015C008DF800F0B5F8024801F0B7F8FEE700BFE3
:10016C002800002080B592B000AF0346FB7100233D
:10017C007B640223FB610123FB6210233B6302239C
:10018C00BB630023FB63FB79302B16D0402B26D0AE
:10019C00142B00D057E04FF440233B640F23BB607B
:1001AC000223FB6000233B614FF480637B614FF4BF
:1001BC008063BB6100237B6423E04FF420133B641A
:1001CC000F23BB600223FB6000233B614FF4806371
:1001DC007B614FF48063BB6101237B6411E04FF4BE
:1001EC0060133B640F23BB600223FB6000233B6165
:1001FC004FF480637B614FF48063BB6102237B64AB
:10020C0000BF07F11C03184600F040FC0346002B0E
:10021C0001D000F06FF807F10803796C184600F074
:10022C00B5FE0346002B01D000F064F800F0FAFF95
:10023C000246064BA3FB02239B09184600F06FFAFB
:10024C00042000F079FA4837BD4680BDD34D6210CA
:10025C0080B582B000AF78600421034800F0FEFB4B
:10026C0000BF0837BD4680BD0008014080B586B090
:10027C0000AF114B9B69104A43F0040393610E4B82
:10028C009B6903F004037B607B680423BB60012340
:10029C00FB6000233B6102237B6107F108031946D5
:1002AC00064800F071FA00220421044800F0BEFB5D
:1002BC0000BF1837BD4680BD001002400008014049
:1002CC0080B500AF094B0A4A1A60084B10225A60DD
:1002DC00064B2722DA60054800F0CCFF0346002BC2
:1002EC0001D000F007F800BF80BD00BF280000203F
:1002FC000004004080B400AF00BFBD4680BC704716
:10030C0080B500AF032000F0D5F90D4B5B6A0C4AA9
:10031C0043F4E0235362002200216FF00B0000F045
:10032C00D4F9002200216FF00A0000F0CEF900226F
:10033C0000216FF0090000F0C8F900BF80BD00BFBC
:10034C0000ED00E080B584B000AF78600B4BDB694A
:10035C000A4A43F00203D361084BDB6903F0020342
:10036C00FB60FB681D2000F0CCF900220F211D2042
:10037C0000F0ABF900BF1037BD4680BD0010024045
:10038C0080B500AF00F0AEF800F0F2F900BF80BD10
:10039C0080B500AF024800F0BBFF00BF80BD00BFBE
:1003AC002800002080B400AF154B1B68144A43F0A2
:1003BC0001031360124B5A681149124B13404B60E6
:1003CC000F4B1B680E4A23F0847323F480331360A5
:1003DC000B4B1B680A4A23F480231360084B5B68A1
:1003EC00074A23F4FE035360054B4FF41F029A6037
:1003FC00054B4FF000629A6000BFBD4680BC704751
:10040C00001002400000FFF800ED00E0002103E0C6
:10041C000B4B5B58435004310A480B4B42189A4221
:10042C00F6D30A4A02E0002342F8043B084B9A42F6
:10043C00F9D3FFF7B7FF01F001F9FFF781FE704721
:10044C00D4160008000000200C0000200C00002036
:10045C006C000020FEE7000080B500AF084B1B6865
:10046C00074A43F010031360032000F023F9002027
:10047C0000F008F8FFF744FF0023184680BD00BFCA
:10048C000020024080B582B000AF7860124B1A6831
:10049C00124B1B7819464FF47A73B3FBF1F3B2FB92
:1004AC00F3F3184600F03BF90346002B01D001236F
:1004BC000EE07B680F2B0AD8002279684FF0FF30D2
:1004CC0000F003F9064A7B681360002300E0012367
:1004DC0018460837BD4680BD0000002008000020EB
:1004EC000400002080B400AF054B1B781A46054B66
:1004FC001B681344034A136000BFBD4680BC7047A1
:10050C00080000206800002080B400AF024B1B687C
:10051C001846BD4680BC70476800002080B485B08A
:10052C0000AF78607B6803F00703FB600C4BDB6863
:10053C00BB60BA684FF6FF031340BB60FB681A023E
:10054C00BB68134343F0BF6343F40033BB60044AFE
:10055C00BB68D36000BF1437BD4680BC704700BF7A
:10056C0000ED00E080B400AF044BDB681B0A03F025
:10057C0007031846BD4680BC704700BF00ED00E085
:10058C0080B483B000AF0346FB7197F90730002BA2
:10059C000BDBFB7903F01F02064997F907305B0967
:1005AC00012000FA02F241F8232000BF0C37BD46AF
:1005BC0080BC704700E100E080B483B000AF03461C
:1005CC003960FB7197F90730002B0ADB3B68DAB214
:1005DC000C4997F907301201D2B20B4483F800236F
:1005EC000AE03B68DAB20849FB7903F00F03043BDD
:1005FC001201D2B20B441A7600BF0C37BD4680BC38
:10060C00704700BF00E100E000ED00E080B489B06D
:10061C0000AFF860B9607A60FB6803F00703FB6118
:10062C00FB69C3F10703042B28BF0423BB61FB69DF
:10063C000433062B02D9FB69033B00E000237B61EA
:10064C004FF0FF32BB6902FA03F3DA43BB681A407E
:10065C007B699A404FF0FF317B6901FA03F3D94370
:10066C007B680B40134318462437BD4680BC70474B
:10067C0080B582B000AF78607B68013BB3F1807FBE
:10068C0001D301230FE00A4A7B68013B53600F2121
:10069C004FF0FF30FFF790FF054B00229A60044BA0
:1006AC0007221A60002318460837BD4680BD00BFDC
:1006BC0010E000E080B582B000AF78607868FFF79A
:1006CC002DFF00BF0837BD4680BD80B586B000AF9A
:1006DC000346B9607A60FB7300237B61FFF742FF2E
:1006EC0078617A68B9687869FFF790FF024697F9E4
:1006FC000F3011461846FFF75FFF00BF1837BD4695
:10070C0080BD80B582B000AF0346FB7197F907300E
:10071C001846FFF735FF00BF0837BD4680BD80B5D2
:10072C0082B000AF78607868FFF7A2FF03461846E6
:10073C000837BD4680BD000080B483B000AF786040
:10074C007B68042B06D1094B1B68084A43F0040351
:10075C00136005E0054B1B68044A23F00403136087
:10076C0000BF0C37BD4680BC704700BF10E000E0F6
:10077C0080B500AF00F002F800BF80BD80B400AFC0
:10078C0000BFBD4680BC704780B48BB000AF7860B2
:10079C00396000237B6200233B6221E101227B6AEA
:1007AC0002FA03F3FB613B681B68FA691340BB61F7
:1007BC00BA69FB699A4240F010813B685B68122B66
:1007CC0034D0122B0DD8022B2BD0022B04D8002B9B
:1007DC0031D0012B1CD048E0032B43D0112B1BD064
:1007EC0043E0864A934226D0844A934206D8844AF0
:1007FC00934220D0834A93421DD036E0824A9342E2
:10080C0019D0824A934216D0814A934213D02CE0DD
:10081C003B68DB683B6228E03B68DB6804333B6287
:10082C0023E03B68DB6808333B621EE03B68DB6817
:10083C000C333B6219E03B689B68002B02D104230C
:10084C003B6212E03B689B68012B05D108233B629D
:10085C007B68FA691A6108E008233B627B68FA69D5
:10086C005A6102E000233B6200BFBB69FF2B01D839
:10087C007B6801E07B6804337B61BB69FF2B02D88A
:10088C007B6A9B0002E07B6A083B9B003B617B69B7
:10089C001A680F213B6901FA03F3DB431A40396AEA
:1008AC003B6901FA03F31A437B691A603B685B6886
:1008BC0003F08053002B00F09080564B9B69554AF7
:1008CC0043F001039361534B9B6903F00103BB603D
:1008DC00BB68514A7B6A9B08023352F82330FB6099
:1008EC007B6A03F003039B000F2202FA03F3DB4342
:1008FC00FA681340FB607B68484A93420DD07B68D2
:10090C00474A934207D07B68464A934201D102235F
:10091C0004E0032302E0012300E000237A6A02F0E2
:10092C00030292009340FA681343FB603A497B6AD6
:10093C009B080233FA6841F823203B685B6803F498
:10094C008033002B06D0384B1A683749BB691343E8
:10095C000B6006E0344B1A68BB69DB433249134029
:10096C000B603B685B6803F40033002B06D02E4B06
:10097C005A682D49BB6913434B6006E02A4B5A68F1
:10098C00BB69DB43284913404B603B685B6803F44D
:10099C008013002B06D0244B9A682349BB69134360
:1009AC008B6006E0204B9A68BB69DB431E49134001
:1009BC008B603B685B6803F40013002B06D01A4B6A
:1009CC00DA681949BB691343CB6006E0164BDA6849
:1009DC00BB69DB4314491340CB607B6A01337B62F8
:1009EC003B681A687B6A22FA03F3002B7FF4D6AEBD
:1009FC0000BF2C37BD4680BC704700BF00002110E3
:100A0C000000111000001210000031100000321014
:100A1C0000002210001002400000014000080140BC
:100A2C00000C0140001001400004014080B483B070
:100A3C0000AF78600B467B8013467B707B78002B75
:100A4C0003D07A887B681A6103E07B881A047B6880
:100A5C001A6100BF0C37BD4680BC704780B483B0B0
:100A6C0000AF78600B467B807B68DA687B8813402C
:100A7C00002B03D07A887B685A6102E07A887B6805
:100A8C001A6100BF0C37BD4680BC704780B586B07C
:100A9C0000AF78607B68002B01D101236CE27B688E
:100AAC001B6803F00103002B00F08780924B5B68FE
:100ABC0003F00C03042B0CD08F4B5B6803F00C037E
:100ACC00082B12D18C4B5B6803F48033B3F5803F59
:100ADC000BD1894B1B6803F40033002B6CD07B6863
:100AEC005B68002B68D1012346E27B685B68B3F539
:100AFC00803F06D1804B1B687F4A43F480331360E0
:100B0C002EE07B685B68002B0CD17B4B1B687A4A10
:100B1C0023F480331360784B1B68774A23F48023CB
:100B2C0013601DE07B685B68B3F5A02F0CD1724B92
:100B3C001B68714A43F4802313606F4B1B686E4A29
:100B4C0043F4803313600BE06B4B1B686A4A23F44D
:100B5C0080331360684B1B68674A23F4802313604F
:100B6C007B685B68002B13D0FFF7CEFC386108E084
:100B7C00FFF7CAFC02463B69D31A642B01D9032345
:100B8C00FAE15D4B1B6803F40033002BF0D014E04A
:100B9C00FFF7BAFC386108E0FFF7B6FC02463B6988
:100BAC00D31A642B01D90323E6E1534B1B6803F4DE
:100BBC000033002BF0D100E000BF7B681B6803F012
:100BCC000203002B63D04C4B5B6803F00C03002B2F
:100BDC000BD0494B5B6803F00C03082B1CD1464B24
:100BEC005B6803F48033002B16D1434B1B6803F076
:100BFC000203002B05D07B681B69012B01D001235C
:100C0C00BAE13D4B1B6823F0F8027B685B69DB00A3
:100C1C00394913430B603AE07B681B69002B20D0E9
:100C2C00364B01221A60FFF76FFC386108E0FFF7C2
:100C3C006BFC02463B69D31A022B01D903239BE1BF
:100C4C002D4B1B6803F00203002BF0D02A4B1B68C2
:100C5C0023F0F8027B685B69DB00274913430B60C8
:100C6C0015E0264B00221A60FFF74EFC386108E0B5
:100C7C00FFF74AFC02463B69D31A022B01D9032326
:100C8C007AE11D4B1B6803F00203002BF0D17B684B
:100C9C001B6803F00803002B3AD07B689B69002B80
:100CAC0019D0174B01221A60FFF72EFC386108E0AF
:100CBC00FFF72AFC02463B69D31A022B01D9032306
:100CCC005AE10D4B5B6A03F00203002BF0D00120BC
:100CDC0000F0B2FA1CE00A4B00221A60FFF714FC79
:100CEC0038610FE0FFF710FC02463B69D31A022B68
:100CFC0008D9032340E100BF00100240000042422B
:100D0C00800442429E4B5B6A03F00203002BE9D144
:100D1C007B681B6803F00403002B00F0A680002303
:100D2C00FB75974BDB6903F08053002B0DD1944B73
:100D3C00DB69934A43F08053D361914BDB6903F039
:100D4C008053BB60BB680123FB758E4B1B6803F49F
:100D5C008073002B18D18B4B1B688A4A43F4807329
:100D6C001360FFF7D1FB386108E0FFF7CDFB0246BB
:100D7C003B69D31A642B01D90323FDE0814B1B681B
:100D8C0003F48073002BF0D07B68DB68012B06D159
:100D9C007B4B1B6A7A4A43F0010313622DE07B689C
:100DAC00DB68002B0CD1764B1B6A754A23F00103D0
:100DBC001362734B1B6A724A23F0040313621CE028
:100DCC007B68DB68052B0CD16D4B1B6A6C4A43F0BE
:100DDC00040313626A4B1B6A694A43F001031362F2
:100DEC000BE0674B1B6A664A23F001031362644BEA
:100DFC001B6A634A23F0040313627B68DB68002BD5
:100E0C0015D0FFF781FB38610AE0FFF77DFB024646
:100E1C003B69D31A41F28832934201D90323ABE0E8
:100E2C00574B1B6A03F00203002BEED014E0FFF7C4
:100E3C006BFB38610AE0FFF767FB02463B69D31A8C
:100E4C0041F28832934201D9032395E04C4B1B6A43
:100E5C0003F00203002BEED1FB7D012B05D1484B97
:100E6C00DB69474A23F08053D3617B68DB69002B35
:100E7C0000F08180424B5B6803F00C03082B61D0BF
:100E8C007B68DB69022B46D13F4B00221A60FFF7CF
:100E9C003BFB386108E0FFF737FB02463B69D31A8E
:100EAC00022B01D9032367E0354B1B6803F0007359
:100EBC00002BF0D17B681B6AB3F5803F08D1304B17
:100ECC005B6823F400327B689B682D4913434B60AD
:100EDC002B4B5B6823F474127B68196A7B685B6A22
:100EEC000B43274913434B60274B01221A60FFF732
:100EFC000BFB386108E0FFF707FB02463B69D31A8E
:100F0C00022B01D9032337E01D4B1B6803F0007340
:100F1C00002BF0D02FE01C4B00221A60FFF7F4FAE4
:100F2C00386108E0FFF7F0FA02463B69D31A022B4E
:100F3C0001D9032320E0124B1B6803F00073002B34
:100F4C00F0D118E07B68DB69012B01D1012313E0A0
:100F5C000B4B5B68FB60FB6803F480327B681B6A9D
:100F6C009A4206D1FB6803F470127B685B6A9A4262
:100F7C0001D0012300E0002318461837BD4680BD80
:100F8C0000100240007000406000424280B584B006
:100F9C0000AF786039607B68002B01D10123D0E071
:100FAC006A4B1B6803F007033A689A4210D9674BE7
:100FBC001B6823F0070265493B6813430B60634BC6
:100FCC001B6803F007033A689A4201D00123B8E08A
:100FDC007B681B6803F00203002B20D07B681B6826
:100FEC0003F00403002B05D0594B5B68584A43F4BB
:100FFC00E06353607B681B6803F00803002B05D08B
:10100C00534B5B68524A43F460535360504B5B68DC
:10101C0023F0F0027B689B684D4913434B607B685F
:10102C001B6803F00103002B40D07B685B68012B2D
:10103C0007D1474B1B6803F40033002B15D1012358
:10104C007FE07B685B68022B07D1414B1B6803F088
:10105C000073002B09D1012373E03D4B1B6803F097
:10106C000203002B01D101236BE0394B5B6823F0A9
:10107C0003027B685B68364913434B60FFF744FA05
:10108C00F8600AE0FFF740FA0246FB68D31A41F217
:10109C008832934201D9032353E02D4B5B6803F054
:1010AC000C027B685B689B009A42EBD1274B1B6858
:1010BC0003F007033A689A4210D2244B1B6823F0C2
:1010CC00070222493B6813430B60204B1B6803F05B
:1010DC0007033A689A4201D0012332E07B681B680F
:1010EC0003F00403002B08D0194B5B6823F4E06277
:1010FC007B68DB68164913434B607B681B6803F005
:10110C000803002B09D0124B5B6823F460527B68F8
:10111C001B69DB000E4913434B6000F021F80146BC
:10112C000B4B5B681B0903F00F030A4AD35C21FAD3
:10113C0003F3094A1360094B1B681846FFF7A2F921
:10114C00002318461037BD4680BD00BF002002406A
:10115C0000100240BC160008000000200400002013
:10116C0090B48AB000AF2A4B3C1D0FCB84E80F0023
:10117C00284B1B883B800023FB610023BB610023B1
:10118C007B6200237B6100233B62234B5B68FB612A
:10119C00FB6903F00C03042B02D0082B03D02DE0C9
:1011AC001E4B3B622DE0FB699B0C03F00F0307F118
:1011BC002802134413F8243C7B61FB6903F480334D
:1011CC00002B13D0144B5B685B0C03F0010307F18D
:1011DC002802134413F8283CBB617B690F4A02FBBD
:1011EC0003F2BB69B2FBF3F37B6204E07B690C4A4C
:1011FC0002FB03F37B627B6A3B6202E0074B3B62C0
:10120C0000BF3B6A18462837BD4690BC704700BFEC
:10121C00A8160008B81600080010024000127A0048
:10122C0000093D0080B400AF024B1B681846BD4658
:10123C0080BC70470000002080B485B000AF78609F
:10124C000A4B1B680A4AA2FB03235B0A7A6802FB5F
:10125C0003F3FB6000BFFB685A1EFA60002BF9D148
:10126C0000BF1437BD4680BC704700BF0000002093
:10127C00D34D621080B582B000AF78607B68002BD4
:10128C0001D101231DE07B6893F83D30DBB2002BCC
:10129C0006D17B68002283F83C207868FFF752F86F
:1012AC007B68022283F83D207B681A687B680433D4
:1012BC001946104600F058F97B68012283F83D204E
:1012CC00002318460837BD4680BD80B485B000AFFA
:1012DC0078607B681B68DA687B681B6842F00102E7
:1012EC00DA607B681B689B6803F00703FB60FB6894
:1012FC00062B07D07B681B681A687B681B6842F05A
:10130C0001021A60002318461437BD4680BC704792
:10131C0080B582B000AF78607B681B681B6903F0F6
:10132C000203022B22D17B681B68DB6803F00203EB
:10133C00022B1BD17B681B686FF002021A617B6861
:10134C0001221A777B681B689B6903F00303002B4F
:10135C0003D0786800F0EDF805E0786800F0E0F86C
:10136C00786800F0EFF87B6800221A777B681B68BE
:10137C001B6903F00403042B22D17B681B68DB6818
:10138C0003F00403042B1BD17B681B686FF0040271
:10139C001A617B6802221A777B681B689B6903F4CD
:1013AC004073002B03D0786800F0C3F805E0786830
:1013BC0000F0B6F8786800F0C5F87B6800221A7760
:1013CC007B681B681B6903F00803082B22D17B6820
:1013DC001B68DB6803F00803082B1BD17B681B68B8
:1013EC006FF008021A617B6804221A777B681B680D
:1013FC00DB6903F00303002B03D0786800F099F845
:10140C0005E0786800F08CF8786800F09BF87B6851
:10141C0000221A777B681B681B6903F01003102BE2
:10142C0022D17B681B68DB6803F01003102B1BD1E7
:10143C007B681B686FF010021A617B6808221A77B0
:10144C007B681B68DB6903F44073002B03D078685E
:10145C0000F06FF805E0786800F062F8786800F04A
:10146C0071F87B6800221A777B681B681B6903F094
:10147C000103012B0ED17B681B68DB6803F00103B1
:10148C00012B07D17B681B686FF001021A61786829
:10149C00FEF7DEFE7B681B681B6903F08003802B64
:1014AC000ED17B681B68DB6803F08003802B07D1AF
:1014BC007B681B686FF080021A61786800F0B5F8E1
:1014CC007B681B681B6903F04003402B0ED17B68C3
:1014DC001B68DB6803F04003402B07D17B681B685B
:1014EC006FF040021A61786800F035F87B681B6871
:1014FC001B6903F02003202B0ED17B681B68DB6873
:10150C0003F02003202B07D17B681B686FF02002AF
:10151C001A61786800F080F800BF0837BD4680BDBE
:10152C0080B483B000AF786000BF0C37BD4680BC80
:10153C00704780B483B000AF786000BF0C37BD46F5
:10154C0080BC704780B483B000AF786000BF0C37AC
:10155C00BD4680BC704780B483B000AF786000BFDC
:10156C000C37BD4680BC704780B485B000AF786046
:10157C0039607B681B68FB607B68254A934207D007
:10158C007B68B3F1804F03D07B68224A934208D129
:10159C00FB6823F07003FB603B685B68FA681343DD
:1015AC00FB607B681A4A934207D07B68B3F1804F8B
:1015BC0003D07B68174A934208D1FB6823F440732D
:1015CC00FB603B68DB68FA681343FB60FB6823F045
:1015DC0080023B685B691343FB607B68FA681A60A6
:1015EC003B689A687B68DA623B681A687B689A6227
:1015FC007B68074A934203D13B681A697B681A637C
:10160C007B6801225A6100BF1437BD4680BC70470D
:10161C00002C01400004004080B483B000AF78601F
:10162C0000BF0C37BD4680BC704780B483B000AFA0
:10163C00786000BF0C37BD4680BC704770B5002584
:10164C000C4E0D4CA41BA410A54209D100F01AF8A5
:10165C0000250A4E0A4CA41BA410A54205D170BD4E
:10166C0056F8253098470135EEE756F8253098475F
:10167C000135F2E7CC160008CC160008CC16000891
:10168C00D0160008F8B500BFF8BC08BC9E467047E1
:0C169C00F8B500BFF8BC08BC9E467047C3
:1016A80002030405060708090A0B0C0D0E0F10109B
:1016B8000102000000000000000000000102030415
:0416C8000607080900
:0416CC0031010008E0
:0416D0000D01000800
:0C16D4000024F4001000000001000000E1
:0400000508000419D2
:00000001FF
