:020000040800F2
:1000000000280020150500085D0500085D050008B2
:100010005D0500085D0500085D05000800000000A2
:100020000000000000000000000000005D05000866
:100030005D050008000000005D0500088904000857
:100040005D0500085D0500085D0500085D05000808
:100050005D0500085D0500085D0500085D050008F8
:100060005D0500085D0500085D0500085D050008E8
:100070005D0500085D0500085D0500085D050008D8
:100080005D0500085D0500085D0500085D050008C8
:100090005D0500085D0500085D0500085D050008B8
:1000A0005D0500085D0500085D0500085D050008A8
:1000B000990400085D050008000000005D050008C7
:1000C0005D05000800000000000000005D0500085C
:1000D000000000005D0500085D050008000000004C
:1000E0005D0500085D0500085D05000800000000D2
:1000F0000000000000000000000000000000000000
:0C01000000000000000000005FF808F1A3
:10010C0010B5054C237833B9044B13B10448AFF345
:10011C0000800123237010BD0C00002000000000A3
:10012C00C81C000808B5034B1BB103490348AFF3C7
:10013C00008008BD0000000010000020C81C000852
:10014C0080B582B000AF0023FB8000F003FA4020A2
:10015C0000F02EF800F0A8F800F0D0F804211348B5
:10016C0001F03CF90346002B0CD000F0FDF809E03F
:10017C00FB880133FB800D4B1B68FA889A630120C6
:10018C0000F04AFAFA88094BDB689A42F0D309E08E
:10019C00FB88013BFB80054B1B68FA889A630120A6
:1001AC0000F03AFAFB88002BF2D1EBE72800002094
:1001BC0080B592B000AF0346FB7100237B64022331
:1001CC00FB610123FB6210233B630223BB6300230F
:1001DC00FB63FB79302B16D0402B26D0142B00D090
:1001EC005DE04FF440233B640F23BB600223FB60B4
:1001FC0000233B614FF480637B614FF48063BB61F0
:10020C0000237B6423E04FF420133B640F23BB607B
:10021C000223FB6000233B614FF480637B614FF44E
:10022C008063BB6101237B6411E04FF460133B647A
:10023C000F23BB600223FB6000233B614FF4806300
:10024C007B614FF48063BB6102237B6400BF07F1C9
:10025C001C03184600F0A2FC0346002B01D000F052
:10026C0083F807F10803796C184600F017FF034672
:10027C00002B01D000F078F801F05CF80246094B35
:10028C00A3FB02239B09184600F0E9FA042000F0B6
:10029C00F3FA002200214FF0FF3000F0B6FA483795
:1002AC00BD4680BDD34D621080B586B000AF114BFA
:1002BC009B69104A43F0040393610E4B9B6903F056
:1002CC0004037B607B682023BB600123FB6000235D
:1002DC003B6102237B6107F108031946064800F0D5
:1002EC00F3FA00222021044800F040FC00BF18372C
:1002FC00BD4680BD001002400008014080B588B0AA
:10030C0000AF184B4FF080421A60164B00229A60D7
:10031C00144B09225A60134B41F6FF02DA60114864
:10032C0001F030F80346002B01D000F01DF83B1D06
:10033C001C220021184601F0B9FC60237B600223CB
:10034C00FB600023BB603B1D04221946054801F0ED
:10035C007FF90346002B01D000F006F800BF2037D0
:10036C00BD4680BD2800002080B400AFFEE7000031
:10037C0080B582B000AF1C4BDB691B4A43F0805345
:10038C00D361194BDB6903F080533B603B68174B1F
:10039C005B687B607B6823F0E0637B607B6843F089
:1003AC0080637B60114A7B685360032000F022FA63
:1003BC000F4B5B6A0E4A43F4E02353620022002188
:1003CC006FF00B0000F021FA002200216FF00A0000
:1003DC0000F01BFA002200216FF0090000F015FA62
:1003EC0000BF0837BD4680BD001002400000014030
:1003FC0000ED00E080B58AB000AF78601D4B9B69C2
:10040C001C4A43F0010393611A4B9B6903F00103EF
:10041C007B617B69174BDB69164A43F00103D3619F
:10042C00144BDB6903F001033B613B69114B9B6986
:10043C00104A43F0040393610E4B9B6903F00403D1
:10044C00FB60FB680F23BB610223FB6102237B6211
:10045C0007F118031946084800F036FA00220F215C
:10046C001C2000F0D2F91C2000F0EBF900BF28375B
:10047C00BD4680BD001002400008014080B500AFB1
:10048C0000F0AEF800F014FA00BF80BD80B500AFEC
:10049C00024800F0D5FF00BF80BD00BF280000203F
:1004AC0080B400AF154B1B68144A43F00103136072
:1004BC00124B5A681149124B13404B600F4B1B687F
:1004CC000E4A23F0847323F4803313600B4B1B68A8
:1004DC000A4A23F480231360084B5B68074A23F411
:1004EC00FE035360054B4FF41F029A60054B4FF00F
:1004FC0000629A6000BFBD4680BC7047001002408D
:10050C000000FFF800ED00E0002103E00B4B5B580E
:10051C00435004310A480B4B42189A42F6D30A4A0C
:10052C0002E0002342F8043B084B9A42F9D3FFF750
:10053C00B7FF01F097FBFFF703FE70470C1D000897
:10054C00000000200C0000200C000020AC0000205B
:10055C00FEE7000080B500AF084B1B68074A43F06C
:10056C0010031360032000F045F9002000F008F898
:10057C00FFF7FEFE0023184680BD00BF002002409E
:10058C0080B582B000AF7860124B1A68124B1B78A2
:10059C0019464FF47A73B3FBF1F3B2FBF3F318463D
:1005AC0000F05DF90346002B01D001230EE07B68BF
:1005BC000F2B0AD8002279684FF0FF3000F025F994
:1005CC00064A7B681360002300E0012318460837B5
:1005DC00BD4680BD00000020080000200400002063
:1005EC0080B400AF054B1B781A46054B1B681344AF
:1005FC00034A136000BFBD4680BC70470800002052
:10060C00A800002080B400AF024B1B681846BD4602
:10061C0080BC7047A800002080B584B000AF786023
:10062C00FFF7F0FFB8607B68FB60FB68B3F1FF3F3E
:10063C0005D0094B1B781A46FB681344FB6000BFBE
:10064C00FFF7E0FF0246BB68D31AFA689A42F7D864
:10065C0000BF1037BD4680BD0800002080B485B0B7
:10066C0000AF78607B6803F00703FB600C4BDB6822
:10067C00BB60BA684FF6FF031340BB60FB681A02FD
:10068C00BB68134343F0BF6343F40033BB60044ABD
:10069C00BB68D36000BF1437BD4680BC704700BF39
:1006AC0000ED00E080B400AF044BDB681B0A03F0E4
:1006BC0007031846BD4680BC704700BF00ED00E044
:1006CC0080B483B000AF0346FB7197F90730002B61
:1006DC000BDBFB7903F01F02064997F907305B0926
:1006EC00012000FA02F241F8232000BF0C37BD466E
:1006FC0080BC704700E100E080B483B000AF0346DB
:10070C003960FB7197F90730002B0ADB3B68DAB2D2
:10071C000C4997F907301201D2B20B4483F800232D
:10072C000AE03B68DAB20849FB7903F00F03043B9B
:10073C001201D2B20B441A7600BF0C37BD4680BCF6
:10074C00704700BF00E100E000ED00E080B489B02C
:10075C0000AFF860B9607A60FB6803F00703FB61D7
:10076C00FB69C3F10703042B28BF0423BB61FB699E
:10077C000433062B02D9FB69033B00E000237B61A9
:10078C004FF0FF32BB6902FA03F3DA43BB681A403D
:10079C007B699A404FF0FF317B6901FA03F3D9432F
:1007AC007B680B40134318462437BD4680BC70470A
:1007BC0080B582B000AF78607B68013BB3F1807F7D
:1007CC0001D301230FE00A4A7B68013B53600F21E0
:1007DC004FF0FF30FFF790FF054B00229A60044B5F
:1007EC0007221A60002318460837BD4680BD00BF9B
:1007FC0010E000E080B582B000AF78607868FFF759
:10080C002DFF00BF0837BD4680BD80B586B000AF58
:10081C000346B9607A60FB7300237B61FFF742FFEC
:10082C0078617A68B9687869FFF790FF024697F9A2
:10083C000F3011461846FFF75FFF00BF1837BD4653
:10084C0080BD80B582B000AF0346FB7197F90730CD
:10085C001846FFF735FF00BF0837BD4680BD80B591
:10086C0082B000AF78607868FFF7A2FF03461846A5
:10087C000837BD4680BD000080B483B000AF7860FF
:10088C007B68042B06D1094B1B68084A43F0040310
:10089C00136005E0054B1B68044A23F00403136046
:1008AC0000BF0C37BD4680BC704700BF10E000E0B5
:1008BC0080B500AF00F002F800BF80BD80B400AF7F
:1008CC0000BFBD4680BC704780B48BB000AF786071
:1008DC00396000237B6200233B6221E101227B6AA9
:1008EC0002FA03F3FB613B681B68FA691340BB61B6
:1008FC00BA69FB699A4240F010813B685B68122B25
:10090C0034D0122B0DD8022B2BD0022B04D8002B59
:10091C0031D0012B1CD048E0032B43D0112B1BD022
:10092C0043E0864A934226D0844A934206D8844AAE
:10093C00934220D0834A93421DD036E0824A9342A0
:10094C0019D0824A934216D0814A934213D02CE09C
:10095C003B68DB683B6228E03B68DB6804333B6246
:10096C0023E03B68DB6808333B621EE03B68DB68D6
:10097C000C333B6219E03B689B68002B02D10423CB
:10098C003B6212E03B689B68012B05D108233B625C
:10099C007B68FA691A6108E008233B627B68FA6994
:1009AC005A6102E000233B6200BFBB69FF2B01D8F8
:1009BC007B6801E07B6804337B61BB69FF2B02D849
:1009CC007B6A9B0002E07B6A083B9B003B617B6976
:1009DC001A680F213B6901FA03F3DB431A40396AA9
:1009EC003B6901FA03F31A437B691A603B685B6845
:1009FC0003F08053002B00F09080564B9B69554AB6
:100A0C0043F001039361534B9B6903F00103BB60FB
:100A1C00BB68514A7B6A9B08023352F82330FB6057
:100A2C007B6A03F003039B000F2202FA03F3DB4300
:100A3C00FA681340FB607B68484A93420DD07B6890
:100A4C00474A934207D07B68464A934201D102231E
:100A5C0004E0032302E0012300E000237A6A02F0A1
:100A6C00030292009340FA681343FB603A497B6A95
:100A7C009B080233FA6841F823203B685B6803F457
:100A8C008033002B06D0384B1A683749BB691343A7
:100A9C000B6006E0344B1A68BB69DB4332491340E8
:100AAC000B603B685B6803F40033002B06D02E4BC5
:100ABC005A682D49BB6913434B6006E02A4B5A68B0
:100ACC00BB69DB43284913404B603B685B6803F40C
:100ADC008013002B06D0244B9A682349BB6913431F
:100AEC008B6006E0204B9A68BB69DB431E491340C0
:100AFC008B603B685B6803F40013002B06D01A4B29
:100B0C00DA681949BB691343CB6006E0164BDA6807
:100B1C00BB69DB4314491340CB607B6A01337B62B6
:100B2C003B681A687B6A22FA03F3002B7FF4D6AE7B
:100B3C0000BF2C37BD4680BC704700BF00002110A1
:100B4C0000001110000012100000311000003210D3
:100B5C00000022100010024000000140000801407B
:100B6C00000C0140001001400004014080B483B02F
:100B7C0000AF78600B467B8013467B707B78002B34
:100B8C0003D07A887B681A6103E07B881A047B683F
:100B9C001A6100BF0C37BD4680BC704780B586B06B
:100BAC0000AF78607B68002B01D101236CE27B687D
:100BBC001B6803F00103002B00F08780924B5B68ED
:100BCC0003F00C03042B0CD08F4B5B6803F00C036D
:100BDC00082B12D18C4B5B6803F48033B3F5803F48
:100BEC000BD1894B1B6803F40033002B6CD07B6852
:100BFC005B68002B68D1012346E27B685B68B3F528
:100C0C00803F06D1804B1B687F4A43F480331360CE
:100C1C002EE07B685B68002B0CD17B4B1B687A4AFF
:100C2C0023F480331360784B1B68774A23F48023BA
:100C3C0013601DE07B685B68B3F5A02F0CD1724B81
:100C4C001B68714A43F4802313606F4B1B686E4A18
:100C5C0043F4803313600BE06B4B1B686A4A23F43C
:100C6C0080331360684B1B68674A23F4802313603E
:100C7C007B685B68002B13D0FFF7C4FC386108E07D
:100C8C00FFF7C0FC02463B69D31A642B01D903233E
:100C9C00FAE15D4B1B6803F40033002BF0D014E039
:100CAC00FFF7B0FC386108E0FFF7ACFC02463B698B
:100CBC00D31A642B01D90323E6E1534B1B6803F4CD
:100CCC000033002BF0D100E000BF7B681B6803F001
:100CDC000203002B63D04C4B5B6803F00C03002B1E
:100CEC000BD0494B5B6803F00C03082B1CD1464B13
:100CFC005B6803F48033002B16D1434B1B6803F065
:100D0C000203002B05D07B681B69012B01D001234A
:100D1C00BAE13D4B1B6823F0F8027B685B69DB0092
:100D2C00394913430B603AE07B681B69002B20D0D8
:100D3C00364B01221A60FFF765FC386108E0FFF7BB
:100D4C0061FC02463B69D31A022B01D903239BE1B8
:100D5C002D4B1B6803F00203002BF0D02A4B1B68B1
:100D6C0023F0F8027B685B69DB00274913430B60B7
:100D7C0015E0264B00221A60FFF744FC386108E0AE
:100D8C00FFF740FC02463B69D31A022B01D903231F
:100D9C007AE11D4B1B6803F00203002BF0D17B683A
:100DAC001B6803F00803002B3AD07B689B69002B6F
:100DBC0019D0174B01221A60FFF724FC386108E0A8
:100DCC00FFF720FC02463B69D31A022B01D90323FF
:100DDC005AE10D4B5B6A03F00203002BF0D00120AB
:100DEC0000F0B2FA1CE00A4B00221A60FFF70AFC72
:100DFC0038610FE0FFF706FC02463B69D31A022B61
:100E0C0008D9032340E100BF001002400000424219
:100E1C00800442429E4B5B6A03F00203002BE9D133
:100E2C007B681B6803F00403002B00F0A6800023F2
:100E3C00FB75974BDB6903F08053002B0DD1944B62
:100E4C00DB69934A43F08053D361914BDB6903F028
:100E5C008053BB60BB680123FB758E4B1B6803F48E
:100E6C008073002B18D18B4B1B688A4A43F4807318
:100E7C001360FFF7C7FB386108E0FFF7C3FB0246BE
:100E8C003B69D31A642B01D90323FDE0814B1B680A
:100E9C0003F48073002BF0D07B68DB68012B06D148
:100EAC007B4B1B6A7A4A43F0010313622DE07B688B
:100EBC00DB68002B0CD1764B1B6A754A23F00103BF
:100ECC001362734B1B6A724A23F0040313621CE017
:100EDC007B68DB68052B0CD16D4B1B6A6C4A43F0AD
:100EEC00040313626A4B1B6A694A43F001031362E1
:100EFC000BE0674B1B6A664A23F001031362644BD9
:100F0C001B6A634A23F0040313627B68DB68002BC3
:100F1C0015D0FFF777FB38610AE0FFF773FB024649
:100F2C003B69D31A41F28832934201D90323ABE0D7
:100F3C00574B1B6A03F00203002BEED014E0FFF7B3
:100F4C0061FB38610AE0FFF75DFB02463B69D31A8F
:100F5C0041F28832934201D9032395E04C4B1B6A32
:100F6C0003F00203002BEED1FB7D012B05D1484B86
:100F7C00DB69474A23F08053D3617B68DB69002B24
:100F8C0000F08180424B5B6803F00C03082B61D0AE
:100F9C007B68DB69022B46D13F4B00221A60FFF7BE
:100FAC0031FB386108E0FFF72DFB02463B69D31A91
:100FBC00022B01D9032367E0354B1B6803F0007348
:100FCC00002BF0D17B681B6AB3F5803F08D1304B06
:100FDC005B6823F400327B689B682D4913434B609C
:100FEC002B4B5B6823F474127B68196A7B685B6A11
:100FFC000B43274913434B60274B01221A60FFF721
:10100C0001FB386108E0FFF7FDFA02463B69D31A91
:10101C00022B01D9032337E01D4B1B6803F000732F
:10102C00002BF0D02FE01C4B00221A60FFF7EAFADD
:10103C00386108E0FFF7E6FA02463B69D31A022B47
:10104C0001D9032320E0124B1B6803F00073002B23
:10105C00F0D118E07B68DB69012B01D1012313E08F
:10106C000B4B5B68FB60FB6803F480327B681B6A8C
:10107C009A4206D1FB6803F470127B685B6A9A4251
:10108C0001D0012300E0002318461837BD4680BD6F
:10109C0000100240007000406000424280B584B0F5
:1010AC0000AF786039607B68002B01D10123D0E060
:1010BC006A4B1B6803F007033A689A4210D9674BD6
:1010CC001B6823F0070265493B6813430B60634BB5
:1010DC001B6803F007033A689A4201D00123B8E079
:1010EC007B681B6803F00203002B20D07B681B6815
:1010FC0003F00403002B05D0594B5B68584A43F4AA
:10110C00E06353607B681B6803F00803002B05D079
:10111C00534B5B68524A43F460535360504B5B68CB
:10112C0023F0F0027B689B684D4913434B607B684E
:10113C001B6803F00103002B40D07B685B68012B1C
:10114C0007D1474B1B6803F40033002B15D1012347
:10115C007FE07B685B68022B07D1414B1B6803F077
:10116C000073002B09D1012373E03D4B1B6803F086
:10117C000203002B01D101236BE0394B5B6823F098
:10118C0003027B685B68364913434B60FFF73AFAFE
:10119C00F8600AE0FFF736FA0246FB68D31A41F210
:1011AC008832934201D9032353E02D4B5B6803F043
:1011BC000C027B685B689B009A42EBD1274B1B6847
:1011CC0003F007033A689A4210D2244B1B6823F0B1
:1011DC00070222493B6813430B60204B1B6803F04A
:1011EC0007033A689A4201D0012332E07B681B68FE
:1011FC0003F00403002B08D0194B5B6823F4E06266
:10120C007B68DB68164913434B607B681B6803F0F3
:10121C000803002B09D0124B5B6823F460527B68E7
:10122C001B69DB000E4913434B6000F021F80146AB
:10123C000B4B5B681B0903F00F030A4AD35C21FAC2
:10124C0003F3094A1360094B1B681846FFF798F91A
:10125C00002318461037BD4680BD00BF0020024059
:10126C0000100240F41C00080000002004000020C4
:10127C0090B48AB000AF2A4B3C1D0FCB84E80F0012
:10128C00284B1B883B800023FB610023BB610023A0
:10129C007B6200237B6100233B62234B5B68FB6119
:1012AC00FB6903F00C03042B02D0082B03D02DE0B8
:1012BC001E4B3B622DE0FB699B0C03F00F0307F107
:1012CC002802134413F8243C7B61FB6903F480333C
:1012DC00002B13D0144B5B685B0C03F0010307F17C
:1012EC002802134413F8283CBB617B690F4A02FBAC
:1012FC0003F2BB69B2FBF3F37B6204E07B690C4A3B
:10130C0002FB03F37B627B6A3B6202E0074B3B62AE
:10131C0000BF3B6A18462837BD4690BC704700BFDB
:10132C00E01C0008F01C00080010024000127A00BB
:10133C0000093D0080B400AF024B1B681846BD4647
:10134C0080BC70470000002080B485B000AF78608E
:10135C000A4B1B680A4AA2FB03235B0A7A6802FB4E
:10136C0003F3FB6000BFFB685A1EFA60002BF9D137
:10137C0000BF1437BD4680BC704700BF0000002082
:10138C00D34D621080B582B000AF78607B68002BC3
:10139C0001D101231DE07B6893F83D30DBB2002BBB
:1013AC0006D17B68002283F83C207868FFF722F88E
:1013BC007B68022283F83D207B681A687B680433C3
:1013CC001946104600F038FA7B68012283F83D205C
:1013DC00002318460837BD4680BD000080B584B098
:1013EC0000AF786039607B681B6801223968184649
:1013FC0000F002FC7B681B68104A934207D17B68A3
:10140C001B685A6C7B681B6842F400425A647B6808
:10141C001B689B6803F00703FB60FB68062B07D077
:10142C007B681B681A687B681B6842F001021A60B3
:10143C00002318461037BD4680BD00BF002C01406C
:10144C0080B582B000AF78607B681B681B6903F0C5
:10145C000203022B22D17B681B68DB6803F00203BA
:10146C00022B1BD17B681B686FF002021A617B6830
:10147C0001221A777B681B689B6903F00303002B1E
:10148C0003D0786800F0BCF905E0786800F0AFF99B
:10149C00786800F0BEF97B6800221A777B681B68BD
:1014AC001B6903F00403042B22D17B681B68DB68E7
:1014BC0003F00403042B1BD17B681B686FF0040240
:1014CC001A617B6802221A777B681B689B6903F49C
:1014DC004073002B03D0786800F092F905E078682F
:1014EC0000F085F9786800F094F97B6800221A778F
:1014FC007B681B681B6903F00803082B22D17B68EF
:10150C001B68DB6803F00803082B1BD17B681B6886
:10151C006FF008021A617B6804221A777B681B68DB
:10152C00DB6903F00303002B03D0786800F068F943
:10153C0005E0786800F05BF9786800F06AF97B6880
:10154C0000221A777B681B681B6903F01003102BB1
:10155C0022D17B681B68DB6803F01003102B1BD1B6
:10156C007B681B686FF010021A617B6808221A777F
:10157C007B681B68DB6903F44073002B03D078682D
:10158C0000F03EF905E0786800F031F9786800F079
:10159C0040F97B6800221A777B681B681B6903F093
:1015AC000103012B0ED17B681B68DB6803F0010380
:1015BC00012B07D17B681B686FF001021A617868F8
:1015CC0000F00CF97B681B681B6903F08003802B0F
:1015DC000ED17B681B68DB6803F08003802B07D17E
:1015EC007B681B686FF080021A61786800F031FB31
:1015FC007B681B681B6903F04003402B0ED17B6892
:10160C001B68DB6803F04003402B07D17B681B6829
:10161C006FF040021A61786800F004F97B681B686F
:10162C001B6903F02003202B0ED17B681B68DB6841
:10163C0003F02003202B07D17B681B686FF020027E
:10164C001A61786800F0FCFA00BF0837BD4680BD0F
:10165C0080B584B000AFF860B9607A60FB6893F82D
:10166C003C30012B01D10223B4E0FB68012283F84A
:10167C003C20FB68022283F83D207B680C2B00F297
:10168C009F8001A252F823F0C9160008CD1700085C
:10169C00CD170008CD17000809170008CD17000852
:1016AC00CD170008CD1700084B170008CD17000800
:1016BC00CD170008CD1700088B170008FB681B68B6
:1016CC00B968184600F010F9FB681B689A69FB684A
:1016DC001B6842F008029A61FB681B689A69FB68F8
:1016EC001B6822F004029A61FB681B689969BB684D
:1016FC001A69FB681B680A439A6162E0FB681B6805
:10170C00B968184600F056F9FB681B689A69FB68C3
:10171C001B6842F400629A61FB681B689A69FB685B
:10172C001B6822F480629A61FB681B689969BB682C
:10173C001B691A02FB681B680A439A6141E0FB684B
:10174C001B68B968184600F09FF9FB681B68DA69DA
:10175C00FB681B6842F00802DA61FB681B68DA69F7
:10176C00FB681B6822F00402DA61FB681B68D9690C
:10177C00BB681A69FB681B680A43DA6121E0FB68E5
:10178C001B68B968184600F0E9F9FB681B68DA6950
:10179C00FB681B6842F40062DA61FB681B68DA695B
:1017AC00FB681B6822F48062DA61FB681B68D969EC
:1017BC00BB681B691A02FB681B680A43DA6100E00C
:1017CC0000BFFB68012283F83D20FB68002283F8F0
:1017DC003C20002318461037BD4680BD80B483B032
:1017EC0000AF786000BF0C37BD4680BC704780B43A
:1017FC0083B000AF786000BF0C37BD4680BC70472B
:10180C0080B483B000AF786000BF0C37BD4680BC9D
:10181C00704780B483B000AF786000BF0C37BD4612
:10182C0080BC704780B483B000AF786000BF0C37C9
:10183C00BD4680BC7047000080B485B000AF7860B6
:10184C0039607B681B68FB607B68254A934207D034
:10185C007B68B3F1804F03D07B68224A934208D156
:10186C00FB6823F07003FB603B685B68FA6813430A
:10187C00FB607B681A4A934207D07B68B3F1804FB8
:10188C0003D07B68174A934208D1FB6823F440735A
:10189C00FB603B68DB68FA681343FB60FB6823F072
:1018AC0080023B685B691343FB607B68FA681A60D3
:1018BC003B689A687B68DA623B681A687B689A6254
:1018CC007B68074A934203D13B681A697B681A63A9
:1018DC007B6801225A6100BF1437BD4680BC70473B
:1018EC00002C01400004004080B487B000AF786049
:1018FC0039607B681B6A23F001027B681A627B6883
:10190C001B6A7B617B685B683B617B689B69FB60E6
:10191C00FB6823F07003FB60FB6823F00303FB60A0
:10192C003B681B68FA681343FB607B6923F0020376
:10193C007B613B689B687A6913437B617B681C4ABB
:10194C0093420CD17B6923F008037B613B68DB6815
:10195C007A6913437B617B6923F004037B617B68A9
:10196C00134A934211D13B6923F480733B613B6969
:10197C0023F400733B613B685B693A6913433B6139
:10198C003B689B693A6913433B617B683A695A60CF
:10199C007B68FA689A613B685A687B685A637B6813
:1019AC007A691A6200BF1C37BD4680BC704700BF05
:1019BC00002C014080B487B000AF786039607B6840
:1019CC001B6A23F010027B681A627B681B6A7B61BE
:1019DC007B685B683B617B689B69FB60FB6823F4FD
:1019EC00E043FB60FB6823F44073FB603B681B68BF
:1019FC001B02FA681343FB607B6923F020037B61B5
:101A0C003B689B681B017A6913437B617B681D4AA9
:101A1C0093420DD17B6923F080037B613B68DB68CB
:101A2C001B017A6913437B617B6923F040037B6163
:101A3C007B68144A934213D13B6923F480633B6166
:101A4C003B6923F400633B613B685B699B003A692B
:101A5C0013433B613B689B699B003A6913433B61B1
:101A6C007B683A695A607B68FA689A613B685A6885
:101A7C007B689A637B687A691A6200BF1C37BD4623
:101A8C0080BC7047002C014080B487B000AF7860F8
:101A9C0039607B681B6A23F480727B681A627B68EE
:101AAC001B6A7B617B685B683B617B68DB69FB6005
:101ABC00FB6823F07003FB60FB6823F00303FB60FF
:101ACC003B681B68FA681343FB607B6923F4007363
:101ADC007B613B689B681B027A6913437B617B6863
:101AEC001D4A93420DD17B6923F400637B613B68F3
:101AFC00DB681B027A6913437B617B6923F4806387
:101B0C007B617B68144A934213D13B6923F4805365
:101B1C003B613B6923F400533B613B685B691B01F0
:101B2C003A6913433B613B689B691B013A69134358
:101B3C003B617B683A695A607B68FA68DA613B689A
:101B4C005A687B68DA637B687A691A6200BF1C3753
:101B5C00BD4680BC704700BF002C014080B487B0EC
:101B6C0000AF786039607B681B6A23F480527B6815
:101B7C001A627B681B6A3B617B685B687B617B6874
:101B8C00DB69FB60FB6823F4E043FB60FB6823F438
:101B9C004073FB603B681B681B02FA681343FB60D5
:101BAC003B6923F400533B613B689B681B033A6918
:101BBC0013433B617B680F4A934209D17B6923F441
:101BCC0080437B613B685B699B017A6913437B6152
:101BDC007B687A695A607B68FA68DA613B685A6894
:101BEC007B681A647B683A691A6200BF1C37BD4671
:101BFC0080BC7047002C014080B487B000AFF86007
:101C0C00B9607A60BB6803F01F03012202FA03F388
:101C1C007B61FB681A6A7B69DB431A40FB681A62BA
:101C2C00FB681A6ABB6803F01F03796801FA03F3B7
:101C3C001A43FB681A6200BF1C37BD4680BC704754
:101C4C0080B483B000AF786000BF0C37BD4680BC59
:101C5C00704780B483B000AF786000BF0C37BD46CE
:101C6C0080BC704770B500250C4E0D4CA41BA41005
:101C7C00A54209D100F022F800250A4E0A4CA41BFB
:101C8C00A410A54205D170BD56F8253098470135F2
:101C9C00EEE756F8253098470135F2E7041D0008A9
:101CAC00041D0008041D0008081D0008034602441A
:101CBC00934200D1704703F8011BF9E7F8B500BF58
:101CCC00F8BC08BC9E467047F8B500BFF8BC08BC11
:041CDC009E46704769
:101CE00002030405060708090A0B0C0D0E0F10105D
:101CF00001020000000000000000000001020304D7
:041D000006070809C1
:041D040031010008A1
:041D08000D010008C1
:0C1D0C000024F4001000000001000000A2
:0400000508000515D5
:00000001FF
