:020000040800F2
:10000000002800202D14000875140008751400083D
:10001000751400087514000875140008000000002D
:10002000000000000000000000000000751400083F
:10003000751400080000000075140008A1130008E2
:10004000751400087514000875140008751400086C
:10005000751400087514000875140008751400085C
:10006000751400087514000875140008751400084C
:10007000751400087514000875140008751400083C
:10008000751400087514000875140008751400082C
:10009000751400087514000875140008751400081C
:1000A000751400087514000875140008751400080C
:1000B000B113000875140008000000007514000852
:1000C000751400080000000000000000751400080E
:1000D00000000000751400087514000800000000FE
:1000E000751400087514000875140008000000005D
:1000F0000000000000000000000000000000000000
:0C01000000000000000000005FF808F1A3
:1001100010B5054C237833B9044B13B10448AFF341
:1001200000800123237010BD0C000020000000009F
:100130002038000808B5034B1BB103490348AFF34F
:10014000008008BD000000001000002020380008DA
:1001500081F0004102E000BF83F0004330B54FEA78
:1001600041044FEA430594EA050F08BF90EA020FE5
:100170001FBF54EA000C55EA020C7FEA645C7FEA78
:10018000655C00F0E2804FEA5454D4EB5555B8BF9B
:100190006D420CDD2C4480EA020281EA030382EA0C
:1001A000000083EA010180EA020281EA0303362D9E
:1001B00088BF30BD11F0004F4FEA01314FF4801C71
:1001C0004CEA113102D0404261EB410113F0004F83
:1001D0004FEA03334CEA133302D0524263EB43033A
:1001E00094EA050F00F0A780A4F10104D5F1200ED8
:1001F0000DDB02FA0EFC22FA05F2801841F1000133
:1002000003FA0EF2801843FA05F359410EE0A5F106
:1002100020050EF1200E012A03FA0EFC28BF4CF037
:10022000020C43FA05F3C01851EBE37101F00045ED
:1002300007D54FF0000EDCF1000C7EEB00006EEBFA
:100240000101B1F5801F1BD3B1F5001F0CD3490884
:100250005FEA30004FEA3C0C04F101044FEA4452DB
:1002600012F5800F80F09A80BCF1004F08BF5FEA62
:10027000500C50F1000041EB045141EA050130BD42
:100280005FEA4C0C404141EB010111F4801FA4F1E5
:100290000104E9D191F0000F04BF01460020B1FA3A
:1002A00081F308BF2033A3F10B03B3F120020CDA72
:1002B0000C3208DD02F1140CC2F10C0201FA0CF050
:1002C00021FA02F10CE002F11402D8BFC2F1200CB5
:1002D00001FA02F120FA0CFCDCBF41EA0C0190406B
:1002E000E41AA2BF01EB0451294330BD6FEA0404B4
:1002F0001F3C1CDA0C340EDC04F11404C4F120029F
:1003000020FA04F001FA02F340EA030021FA04F3B0
:1003100045EA030130BDC4F10C04C4F1200220FA07
:1003200002F001FA04F340EA0300294630BD21FA45
:1003300004F0294630BD94F0000F83F4801306BF0B
:1003400081F480110134013D4EE77FEA645C18BFFF
:100350007FEA655C29D094EA050F08BF90EA020F96
:1003600005D054EA000C04BF1946104630BD91EA8E
:10037000030F1EBF0021002030BD5FEA545C05D191
:100380004000494128BF41F0004130BD14F58004D0
:100390003CBF01F5801130BD01F0004545F0FE4144
:1003A00041F470014FF0000030BD7FEA645C1ABF79
:1003B000194610467FEA655C1CBF0B46024650EAB0
:1003C000013406BF52EA033591EA030F41F40021DC
:1003D00030BD00BF90F0000F04BF0021704730B562
:1003E0004FF4806404F132044FF000054FF0000137
:1003F00050E700BF90F0000F04BF0021704730B5F8
:100400004FF4806404F1320410F0004548BF4042CC
:100410004FF000013EE700BF42004FEAE2014FEA21
:1004200031014FEA02701FBF12F07F4393F07F4FFC
:1004300081F06051704732F07F4208BF704793F0FF
:100440007F4F04BF41F40021704730B54FF4607412
:1004500001F0004521F000411CE700BF50EA010215
:1004600008BF704730B54FF000050AE050EA0102BE
:1004700008BF704730B511F0004502D5404261EB2E
:1004800041014FF4806404F132045FEA915C3FF46F
:10049000D8AE4FF003025FEADC0C18BF03325FEA0C
:1004A000DC0C18BF033202EBDC02C2F1200300FABD
:1004B00003FC20FA02F001FA03FE40EA0E0021FAE2
:1004C00002F11444BDE600BF70B54FF0FF0C4CF4D0
:1004D000E06C1CEA11541DBF1CEA135594EA0C0F82
:1004E00095EA0C0F00F0DEF82C4481EA030621EABD
:1004F0004C5123EA4C5350EA013518BF52EA0335F8
:1005000041F4801143F4801338D0A0FB02CE4FF0A9
:100510000005E1FB02E506F00042E0FB03E54FF0D9
:100520000006E1FB03569CF0000F18BF4EF0010ED1
:10053000A4F1FF04B6F5007F64F5407404D25FEACD
:100540004E0E6D4146EB060642EAC62141EA555180
:100550004FEAC52040EA5E504FEACE2EB4F1FD0CC2
:1005600088BFBCF5E06F1ED8BEF1004F08BF5FEA40
:10057000500E50F1000041EB045170BD06F00046F2
:1005800046EA010140EA020081EA0301B4EB5C049F
:10059000C2BFD4EB0C0541EA045170BD41F4801197
:1005A0004FF0000E013C00F3AB8014F1360FDEBFBC
:1005B000002001F0004170BDC4F10004203C35DA98
:1005C0000C341BDC04F11404C4F1200500FA05F31B
:1005D00020FA04F001FA05F240EA020001F00042BC
:1005E00021F0004110EBD37021FA04F642EB060132
:1005F0005EEA430E08BF20EAD37070BDC4F10C045C
:10060000C4F1200500FA04F320FA05F001FA04F21F
:1006100040EA020001F0004110EBD37041F100010B
:100620005EEA430E08BF20EAD37070BDC4F1200516
:1006300000FA05F24EEA020E20FA04F301FA05F27E
:1006400043EA020321FA04F001F0004121FA04F226
:1006500020EA020000EBD3705EEA430E08BF20EAF6
:10066000D37070BD94F0000F0FD101F00046400030
:1006700041EB010111F4801F08BF013CF7D041EAB2
:10068000060195F0000F18BF704703F000465200B6
:1006900043EB030313F4801F08BF013DF7D043EA87
:1006A0000603704794EA0C0F0CEA135518BF95EA3D
:1006B0000C0F0CD050EA410618BF52EA4306D1D1C4
:1006C00081EA030101F000414FF0000070BD50EAE3
:1006D000410606BF1046194652EA430619D094EA6D
:1006E0000C0F02D150EA013613D195EA0C0F05D157
:1006F00052EA03361CBF104619460AD181EA0301AB
:1007000001F0004141F0FE4141F470014FF0000062
:1007100070BD41F0FE4141F4780170BD70B54FF0FD
:10072000FF0C4CF4E06C1CEA11541DBF1CEA13557D
:1007300094EA0C0F95EA0C0F00F0A7F8A4EB05045F
:1007400081EA030E52EA03354FEA013100F0888056
:100750004FEA03334FF0805545EA131343EA12631F
:100760004FEA022245EA111545EA10654FEA0026D4
:100770000EF000419D4208BF964244F1FD0404F58D
:10078000407402D25B084FEA3202B61A65EB0305E9
:100790005B084FEA32024FF480104FF4002CB6EBA6
:1007A000020E75EB030E22BFB61A754640EA0C0026
:1007B0005B084FEA3202B6EB020E75EB030E22BF66
:1007C000B61A754640EA5C005B084FEA3202B6EBA7
:1007D000020E75EB030E22BFB61A754640EA9C0066
:1007E0005B084FEA3202B6EB020E75EB030E22BF36
:1007F000B61A754640EADC0055EA060E18D04FEAF4
:10080000051545EA16754FEA06164FEAC30343EA93
:1008100052734FEAC2025FEA1C1CC0D111F4801F60
:100820000BD141EA00014FF000004FF0004CB6E759
:1008300011F4801F04BF01430020B4F1FD0C88BFF8
:10084000BCF5E06F3FF6AFAEB5EB030C04BFB6EB03
:10085000020C5FEA500C50F1000041EB045170BDF6
:100860000EF0004E4EEA113114EB5C04C2BFD4EB23
:100870000C0541EA045170BD41F480114FF0000EA7
:10088000013C90E645EA060E8DE60CEA135594EA23
:100890000C0F08BF95EA0C0F3FF43BAF94EA0C0F26
:1008A0000AD150EA01347FF434AF95EA0C0F7FF49B
:1008B00025AF104619462CE795EA0C0F06D152EAEF
:1008C00003353FF4FDAE1046194622E750EA4106D3
:1008D00018BF52EA43067FF4C5AE50EA41047FF4E4
:1008E0000DAF52EA43057FF4EBAE12E74A0011D296
:1008F00012F5001211D20DD56FF47873B3EB62527A
:100900000ED44FEAC12343F0004343EA505323FA85
:1009100002F070474FF00000704750EA013002D1FA
:100920004FF0FF3070474FF0000070474FEA410230
:10093000B2F1E04324BFB3F5001CDCF1FE5C0DD93D
:1009400001F0004C4FEAC0024CEA5070B2F1004F87
:1009500040EB830008BF20F00100704711F0804F8A
:1009600021D113F13872BCBF01F00040704741F44F
:1009700080114FEA5252C2F11802C2F1200C10FA53
:100980000CF320FA02F018BF40F001004FEAC12337
:100990004FEAD32303FA0CFC40EA0C0023FA02F3DB
:1009A0004FEA4303CCE77FEA625307D150EA0133B1
:1009B0001EBF4FF0FE4040F44000704701F0004081
:1009C00040F0FE4040F40000704700BF80F000405F
:1009D00002E000BF81F0004142001FBF5FEA410317
:1009E00092EA030F7FEA226C7FEA236C6AD04FEA17
:1009F0001262D2EB1363C1BFD2184140484041405C
:100A0000B8BF5B42192B88BF704710F0004F40F40D
:100A1000000020F07F4018BF404211F0004F41F429
:100A2000000121F07F4118BF494292EA030F3FD0F5
:100A3000A2F1010241FA03FC10EB0C00C3F1200308
:100A400001FA03F100F0004302D5494260EB400097
:100A5000B0F5000F13D3B0F1807F06D340084FEA02
:100A6000310102F10102FE2A51D2B1F1004F40EBF7
:100A7000C25008BF20F0010040EA0300704749005F
:100A800040EB000010F4000FA2F10102EDD1B0FA2A
:100A900080FCACF1080CB2EB0C0200FA0CF0AABF1F
:100AA00000EBC25052421843BCBFD04018437047BD
:100AB00092F0000F81F4000106BF80F400000132C3
:100AC000013BB5E74FEA41037FEA226C18BF7FEA9A
:100AD000236C21D092EA030F04D092F0000F08BFDC
:100AE0000846704790EA010F1CBF0020704712F0C3
:100AF0007F4F04D1400028BF40F00040704712F102
:100B000000723CBF00F50000704700F0004343F066
:100B1000FE4040F4000070477FEA226216BF08469C
:100B20007FEA23630146420206BF5FEA412390EA5F
:100B3000010F40F4800070474FF0000304E000BF55
:100B400010F0004348BF40425FEA000C08BF704706
:100B500043F0964301464FF000001CE050EA0102CA
:100B600008BF70474FF000030AE000BF50EA0102DF
:100B700008BF704711F0004302D5404261EB4101CC
:100B80005FEA010C02BF84460146002043F0B643F1
:100B900008BFA3F18053A3F50003BCFA8CF2083A16
:100BA000A3EBC25310DB01FA02FC634400FA02FC1F
:100BB000C2F12002BCF1004F20FA02F243EB020026
:100BC00008BF20F00100704702F1200201FA02FC88
:100BD000C2F1200250EA4C0021FA02F243EB02007B
:100BE00008BF20EADC7070474FF0FF0C1CEAD052BF
:100BF0001EBF1CEAD15392EA0C0F93EA0C0F6FD080
:100C00001A4480EA010C400218BF5FEA41211ED05D
:100C10004FF0006343EA501043EA5111A0FB013149
:100C20000CF00040B1F5000F3EBF490041EAD3711E
:100C30005B0040EA010062F17F02FD2A1DD8B3F19A
:100C4000004F40EBC25008BF20F00100704790F009
:100C5000000F0CF0004C08BF49024CEA502040EA5B
:100C600051207F3AC2BFD2F1FF0340EAC250704721
:100C700040F400004FF00003013A5DDC12F1190F5F
:100C8000DCBF00F000407047C2F10002410021FAD1
:100C900002F1C2F1200200FA02FC5FEA310040F1E9
:100CA000000053EA4C0308BF20EADC70704792F062
:100CB000000F00F0004C02BF400010F4000F013A9A
:100CC000F9D040EA0C0093F0000F01F0004C02BF95
:100CD000490011F4000F013BF9D041EA0C018FE704
:100CE0000CEAD15392EA0C0F18BF93EA0C0F0AD00A
:100CF00030F0004C18BF31F0004CD8D180EA010030
:100D000000F00040704790F0000F17BF90F0004FC8
:100D1000084691F0000F91F0004F14D092EA0C0FAA
:100D200001D142020FD193EA0C0F03D14B0218BF3D
:100D3000084608D180EA010000F0004040F0FE4083
:100D400040F40000704740F0FE4040F4400070471F
:100D50004FF0FF0C1CEAD0521EBF1CEAD15392EA9E
:100D60000C0F93EA0C0F69D0A2EB030280EA010C8E
:100D700049024FEA402037D04FF0805343EA111127
:100D800043EA10130CF000408B4238BF5B0042F185
:100D90007D024FF4000C8B4224BF5B1A40EA0C002A
:100DA000B3EB510F24BFA3EB510340EA5C00B3EB5C
:100DB000910F24BFA3EB910340EA9C00B3EBD10F4A
:100DC00024BFA3EBD10340EADC001B0118BF5FEA9C
:100DD0001C1CE0D1FD2A3FF650AF8B4240EBC250C5
:100DE00008BF20F0010070470CF0004C4CEA502086
:100DF0007F32C2BFD2F1FF0340EAC250704740F4D5
:100E000000004FF00003013A37E792F0000F00F0C6
:100E1000004C02BF400010F4000F013AF9D040EA44
:100E20000C0093F0000F01F0004C02BF490011F4D8
:100E3000000F013BF9D041EA0C0195E70CEAD153D0
:100E400092EA0C0F08D142027FF47DAF93EA0C0FB7
:100E50007FF470AF084676E793EA0C0F04D14B029B
:100E60003FF44CAF08466EE730F0004C18BF31F04D
:100E7000004CCAD130F000427FF45CAF31F0004347
:100E80007FF43CAF5FE700BF4FF0FF3C06E000BFE0
:100E90004FF0010C02E000BF4FF0010C4DF804CD03
:100EA0004FEA40024FEA41037FEA226C18BF7FEA13
:100EB000236C11D001B052EA530C18BF90EA010F15
:100EC00058BFB2EB030088BFC81738BF6FEAE170A4
:100ED00018BF40F0010070477FEA226C02D15FEA40
:100EE000402C05D17FEA236CE4D15FEA412CE1D0AC
:100EF0005DF8040B704700BF844608466146FFE773
:100F00000FB5FFF7C9FF002848BF10F1000F0FBD54
:100F10004DF808EDFFF7F4FF0CBF012000205DF84D
:100F200008FB00BF4DF808EDFFF7EAFF34BF0120D2
:100F300000205DF808FB00BF4DF808EDFFF7E0FF6B
:100F400094BF012000205DF808FB00BF4DF808EDBC
:100F5000FFF7D2FF94BF012000205DF808FB00BF1F
:100F60004DF808EDFFF7C8FF34BF012000205DF801
:100F700008FB00BF4FEA4002B2F1FE4F0FD34FF023
:100F80009E03B3EB12620DD94FEA002343F00043F6
:100F900010F0004F23FA02F018BF404270474FF0A4
:100FA0000000704712F1610F01D1420205D110F02B
:100FB000004008BF6FF0004070474FF000007047DE
:100FC00090B5E7B000AF00F057FA302000F07EF89F
:100FD00000F0F8F800F020F90421394801F06EF92A
:100FE0000346002B01D000F051F9002387F8973118
:100FF00057E097F897311846FFF79EFD03461846CD
:10100000FFF70AFA2AA3D3E90023FFF75DFA0346A4
:101010000C4618462146FFF789FC0346C7F8903175
:10102000D7F89001FFF7F8F923A3D3E90023FFF7DE
:101030004BFA03460C4618462146FFF777FC034659
:10104000184601F035FE03461E491846FFF7CCFD51
:1010500003461D491846FFF7BFFC03461846FFF735
:10106000DBF903460C461846214601F097FD02467F
:101070000B4697F8974110461946FFF737FC034691
:101080009AB23B4623F8142097F897213B4633F851
:1010900012200B4B1B689A6397F89731013387F83E
:1010A000973197F89731C72BA3D99EE7AFF300800C
:1010B000CDCCCCCCCCCCFC3F70E20DA545DF913F34
:1010C000280000200000C6420000C84280B592B04F
:1010D00000AF0346FB7100237B640223FB61012305
:1010E000FB6210233B630223BB630023FB63FB799A
:1010F000302B16D0402B26D0142B00D05DE04FF4BF
:1011000040233B640F23BB600223FB6000233B6151
:101110004FF480637B614FF48063BB6100237B6489
:1011200023E04FF420133B640F23BB600223FB60DA
:1011300000233B614FF480637B614FF48063BB61AC
:1011400001237B6411E04FF460133B640F23BB6009
:101150000223FB6000233B614FF480637B614FF40B
:101160008063BB6102237B6400BF07F11C03184648
:1011700000F084FC0346002B01D000F087F807F153
:101180000803796C184600F0F9FE0346002B01D0E5
:1011900000F07CF801F03EF80246094BA3FB022365
:1011A0009B09184600F0CBFA042000F0D5FA002283
:1011B00000214FF0FF3000F098FA4837BD4680BD5F
:1011C000D34D621080B586B000AF114B9B69104AB9
:1011D00043F0040393610E4B9B6903F004037B60AF
:1011E0007B682023BB600123FB6000233B6102235B
:1011F0007B6107F108031946064800F0D5FA002282
:101200002021044800F022FC00BF1837BD4680BDF5
:10121000001002400008014080B588B000AF1A4BB2
:101220004FF080421A60184B00229A60164B17222A
:101230005A60154BC722DA60134B4FF400721A61E3
:10124000114801F00FF80346002B01D000F01EF802
:101250003B1D1C220021184601F098FC60237B6096
:101260000223FB600023BB603B1D04221946064895
:1012700001F05EF90346002B01D000F007F800BF33
:101280002037BD4680BD00BF2800002080B400AFDD
:10129000FEE7000080B582B000AF1C4BDB691B4A43
:1012A00043F08053D361194BDB6903F080533B60FB
:1012B0003B68174B5B687B607B6823F0E0637B6077
:1012C0007B6843F080637B60114A7B685360032036
:1012D00000F000FA0F4B5B6A0E4A43F4E0235362BE
:1012E000002200216FF00B0000F0FFF90022002126
:1012F0006FF00A0000F0F9F9002200216FF00900F8
:1013000000F0F3F900BF0837BD4680BD0010024071
:101310000000014000ED00E080B58AB000AF7860C9
:101320001D4B9B691C4A43F0010393611A4B9B6957
:1013300003F001037B617B69174BDB69164A43F0BD
:101340000103D361144BDB6903F001033B613B698B
:10135000114B9B69104A43F0040393610E4B9B6948
:1013600003F00403FB60FB680F23BB610223FB61F6
:1013700002237B6207F118031946084800F014FAAB
:1013800000220F211C2000F0B0F91C2000F0C9F948
:1013900000BF2837BD4680BD001002400008014054
:1013A00080B500AF00F0AEF800F0F2F900BF80BDEC
:1013B00080B500AF024800F0B3FF00BF80BD00BFA2
:1013C0002800002080B400AF154B1B68144A43F07E
:1013D00001031360124B5A681149124B13404B60C2
:1013E0000F4B1B680E4A23F0847323F48033136081
:1013F0000B4B1B680A4A23F480231360084B5B687D
:10140000074A23F4FE035360054B4FF41F029A6012
:10141000054B4FF000629A6000BFBD4680BC70472C
:10142000001002400000FFF800ED00E0002103E0A2
:101430000B4B5B58435004310A480B4B42189A42FD
:10144000F6D30A4A02E0002342F8043B084B9A42D2
:10145000F9D3FFF7B7FF01F075FBFFF7B1FD704758
:10146000483C0008000000200C0000200C00002078
:10147000AC000020FEE7000080B500AF084B1B6801
:10148000074A43F010031360032000F023F9002003
:1014900000F008F8FFF7FEFE0023184680BD00BFED
:1014A0000020024080B582B000AF7860124B1A680D
:1014B000124B1B7819464FF47A73B3FBF1F3B2FB6E
:1014C000F3F3184600F03BF90346002B01D001234B
:1014D0000EE07B680F2B0AD8002279684FF0FF30AE
:1014E00000F003F9064A7B681360002300E0012343
:1014F00018460837BD4680BD0000002008000020C7
:101500000400002080B400AF054B1B781A46054B41
:101510001B681344034A136000BFBD4680BC70477C
:1015200008000020A800002080B400AF024B1B6818
:101530001846BD4680BC7047A800002080B485B026
:1015400000AF78607B6803F00703FB600C4BDB683F
:10155000BB60BA684FF6FF031340BB60FB681A021A
:10156000BB68134343F0BF6343F40033BB60044ADA
:10157000BB68D36000BF1437BD4680BC704700BF56
:1015800000ED00E080B400AF044BDB681B0A03F001
:1015900007031846BD4680BC704700BF00ED00E061
:1015A00080B483B000AF0346FB7197F90730002B7E
:1015B0000BDBFB7903F01F02064997F907305B0943
:1015C000012000FA02F241F8232000BF0C37BD468B
:1015D00080BC704700E100E080B483B000AF0346F8
:1015E0003960FB7197F90730002B0ADB3B68DAB2F0
:1015F0000C4997F907301201D2B20B4483F800234B
:101600000AE03B68DAB20849FB7903F00F03043BB8
:101610001201D2B20B441A7600BF0C37BD4680BC13
:10162000704700BF00E100E000ED00E080B489B049
:1016300000AFF860B9607A60FB6803F00703FB61F4
:10164000FB69C3F10703042B28BF0423BB61FB69BB
:101650000433062B02D9FB69033B00E000237B61C6
:101660004FF0FF32BB6902FA03F3DA43BB681A405A
:101670007B699A404FF0FF317B6901FA03F3D9434C
:101680007B680B40134318462437BD4680BC704727
:1016900080B582B000AF78607B68013BB3F1807F9A
:1016A00001D301230FE00A4A7B68013B53600F21FD
:1016B0004FF0FF30FFF790FF054B00229A60044B7C
:1016C00007221A60002318460837BD4680BD00BFB8
:1016D00010E000E080B582B000AF78607868FFF776
:1016E0002DFF00BF0837BD4680BD80B586B000AF76
:1016F0000346B9607A60FB7300237B61FFF742FF0A
:1017000078617A68B9687869FFF790FF024697F9BF
:101710000F3011461846FFF75FFF00BF1837BD4670
:1017200080BD80B582B000AF0346FB7197F90730EA
:101730001846FFF735FF00BF0837BD4680BD80B5AE
:1017400082B000AF78607868FFF7A2FF03461846C2
:101750000837BD4680BD000080B483B000AF78601C
:101760007B68042B06D1094B1B68084A43F004032D
:10177000136005E0054B1B68044A23F00403136063
:1017800000BF0C37BD4680BC704700BF10E000E0D2
:1017900080B500AF00F002F800BF80BD80B400AF9C
:1017A00000BFBD4680BC704780B48BB000AF78608E
:1017B000396000237B6200233B6221E101227B6AC6
:1017C00002FA03F3FB613B681B68FA691340BB61D3
:1017D000BA69FB699A4240F010813B685B68122B42
:1017E00034D0122B0DD8022B2BD0022B04D8002B77
:1017F00031D0012B1CD048E0032B43D0112B1BD040
:1018000043E0864A934226D0844A934206D8844ACB
:10181000934220D0834A93421DD036E0824A9342BD
:1018200019D0824A934216D0814A934213D02CE0B9
:101830003B68DB683B6228E03B68DB6804333B6263
:1018400023E03B68DB6808333B621EE03B68DB68F3
:101850000C333B6219E03B689B68002B02D10423E8
:101860003B6212E03B689B68012B05D108233B6279
:101870007B68FA691A6108E008233B627B68FA69B1
:101880005A6102E000233B6200BFBB69FF2B01D815
:101890007B6801E07B6804337B61BB69FF2B02D866
:1018A0007B6A9B0002E07B6A083B9B003B617B6993
:1018B0001A680F213B6901FA03F3DB431A40396AC6
:1018C0003B6901FA03F31A437B691A603B685B6862
:1018D00003F08053002B00F09080564B9B69554AD3
:1018E00043F001039361534B9B6903F00103BB6019
:1018F000BB68514A7B6A9B08023352F82330FB6075
:101900007B6A03F003039B000F2202FA03F3DB431D
:10191000FA681340FB607B68484A93420DD07B68AD
:10192000474A934207D07B68464A934201D102233B
:1019300004E0032302E0012300E000237A6A02F0BE
:10194000030292009340FA681343FB603A497B6AB2
:101950009B080233FA6841F823203B685B6803F474
:101960008033002B06D0384B1A683749BB691343C4
:101970000B6006E0344B1A68BB69DB433249134005
:101980000B603B685B6803F40033002B06D02E4BE2
:101990005A682D49BB6913434B6006E02A4B5A68CD
:1019A000BB69DB43284913404B603B685B6803F429
:1019B0008013002B06D0244B9A682349BB6913433C
:1019C0008B6006E0204B9A68BB69DB431E491340DD
:1019D0008B603B685B6803F40013002B06D01A4B46
:1019E000DA681949BB691343CB6006E0164BDA6825
:1019F000BB69DB4314491340CB607B6A01337B62D4
:101A00003B681A687B6A22FA03F3002B7FF4D6AE98
:101A100000BF2C37BD4680BC704700BF00002110BE
:101A200000001110000012100000311000003210F0
:101A30000000221000100240000001400008014098
:101A4000000C0140001001400004014080B483B04C
:101A500000AF78600B467B8013467B707B78002B51
:101A600003D07A887B681A6103E07B881A047B685C
:101A70001A6100BF0C37BD4680BC704780B586B088
:101A800000AF78607B68002B01D101236CE27B689A
:101A90001B6803F00103002B00F08780924B5B680A
:101AA00003F00C03042B0CD08F4B5B6803F00C038A
:101AB000082B12D18C4B5B6803F48033B3F5803F65
:101AC0000BD1894B1B6803F40033002B6CD07B686F
:101AD0005B68002B68D1012346E27B685B68B3F545
:101AE000803F06D1804B1B687F4A43F480331360EC
:101AF0002EE07B685B68002B0CD17B4B1B687A4A1D
:101B000023F480331360784B1B68774A23F48023D7
:101B100013601DE07B685B68B3F5A02F0CD1724B9E
:101B20001B68714A43F4802313606F4B1B686E4A35
:101B300043F4803313600BE06B4B1B686A4A23F459
:101B400080331360684B1B68674A23F4802313605B
:101B50007B685B68002B13D0FFF7E6FC386108E078
:101B6000FFF7E2FC02463B69D31A642B01D9032339
:101B7000FAE15D4B1B6803F40033002BF0D014E056
:101B8000FFF7D2FC386108E0FFF7CEFC02463B6964
:101B9000D31A642B01D90323E6E1534B1B6803F4EA
:101BA0000033002BF0D100E000BF7B681B6803F01E
:101BB0000203002B63D04C4B5B6803F00C03002B3B
:101BC0000BD0494B5B6803F00C03082B1CD1464B30
:101BD0005B6803F48033002B16D1434B1B6803F082
:101BE0000203002B05D07B681B69012B01D0012368
:101BF000BAE13D4B1B6823F0F8027B685B69DB00B0
:101C0000394913430B603AE07B681B69002B20D0F5
:101C1000364B01221A60FFF787FC386108E0FFF7B6
:101C200083FC02463B69D31A022B01D903239BE1B3
:101C30002D4B1B6803F00203002BF0D02A4B1B68CE
:101C400023F0F8027B685B69DB00274913430B60D4
:101C500015E0264B00221A60FFF766FC386108E0A9
:101C6000FFF762FC02463B69D31A022B01D903231A
:101C70007AE11D4B1B6803F00203002BF0D17B6857
:101C80001B6803F00803002B3AD07B689B69002B8C
:101C900019D0174B01221A60FFF746FC386108E0A3
:101CA000FFF742FC02463B69D31A022B01D90323FA
:101CB0005AE10D4B5B6A03F00203002BF0D00120C8
:101CC00000F0B2FA1CE00A4B00221A60FFF72CFC6D
:101CD00038610FE0FFF728FC02463B69D31A022B5C
:101CE00008D9032340E100BF001002400000424237
:101CF000800442429E4B5B6A03F00203002BE9D151
:101D00007B681B6803F00403002B00F0A68000230F
:101D1000FB75974BDB6903F08053002B0DD1944B7F
:101D2000DB69934A43F08053D361914BDB6903F045
:101D30008053BB60BB680123FB758E4B1B6803F4AB
:101D40008073002B18D18B4B1B688A4A43F4807335
:101D50001360FFF7E9FB386108E0FFF7E5FB024697
:101D60003B69D31A642B01D90323FDE0814B1B6827
:101D700003F48073002BF0D07B68DB68012B06D165
:101D80007B4B1B6A7A4A43F0010313622DE07B68A8
:101D9000DB68002B0CD1764B1B6A754A23F00103DC
:101DA0001362734B1B6A724A23F0040313621CE034
:101DB0007B68DB68052B0CD16D4B1B6A6C4A43F0CA
:101DC000040313626A4B1B6A694A43F001031362FE
:101DD0000BE0674B1B6A664A23F001031362644BF6
:101DE0001B6A634A23F0040313627B68DB68002BE1
:101DF00015D0FFF799FB38610AE0FFF795FB024623
:101E00003B69D31A41F28832934201D90323ABE0F4
:101E1000574B1B6A03F00203002BEED014E0FFF7D0
:101E200083FB38610AE0FFF77FFB02463B69D31A68
:101E300041F28832934201D9032395E04C4B1B6A4F
:101E400003F00203002BEED1FB7D012B05D1484BA3
:101E5000DB69474A23F08053D3617B68DB69002B41
:101E600000F08180424B5B6803F00C03082B61D0CB
:101E70007B68DB69022B46D13F4B00221A60FFF7DB
:101E800053FB386108E0FFF74FFB02463B69D31A6A
:101E9000022B01D9032367E0354B1B6803F0007365
:101EA000002BF0D17B681B6AB3F5803F08D1304B23
:101EB0005B6823F400327B689B682D4913434B60B9
:101EC0002B4B5B6823F474127B68196A7B685B6A2E
:101ED0000B43274913434B60274B01221A60FFF73E
:101EE00023FB386108E0FFF71FFB02463B69D31A6A
:101EF000022B01D9032337E01D4B1B6803F000734D
:101F0000002BF0D02FE01C4B00221A60FFF70CFBD7
:101F1000386108E0FFF708FB02463B69D31A022B41
:101F200001D9032320E0124B1B6803F00073002B40
:101F3000F0D118E07B68DB69012B01D1012313E0AC
:101F40000B4B5B68FB60FB6803F480327B681B6AA9
:101F50009A4206D1FB6803F470127B685B6A9A426E
:101F600001D0012300E0002318461837BD4680BD8C
:101F700000100240007000406000424280B584B012
:101F800000AF786039607B68002B01D10123D0E07D
:101F90006A4B1B6803F007033A689A4210D9674BF3
:101FA0001B6823F0070265493B6813430B60634BD2
:101FB0001B6803F007033A689A4201D00123B8E096
:101FC0007B681B6803F00203002B20D07B681B6832
:101FD00003F00403002B05D0594B5B68584A43F4C7
:101FE000E06353607B681B6803F00803002B05D097
:101FF000534B5B68524A43F460535360504B5B68E9
:1020000023F0F0027B689B684D4913434B607B686B
:102010001B6803F00103002B40D07B685B68012B39
:1020200007D1474B1B6803F40033002B15D1012364
:102030007FE07B685B68022B07D1414B1B6803F094
:102040000073002B09D1012373E03D4B1B6803F0A3
:102050000203002B01D101236BE0394B5B6823F0B5
:1020600003027B685B68364913434B60FFF75CFAF9
:10207000F8600AE0FFF758FA0246FB68D31A41F20B
:102080008832934201D9032353E02D4B5B6803F060
:102090000C027B685B689B009A42EBD1274B1B6864
:1020A00003F007033A689A4210D2244B1B6823F0CE
:1020B000070222493B6813430B60204B1B6803F067
:1020C00007033A689A4201D0012332E07B681B681B
:1020D00003F00403002B08D0194B5B6823F4E06283
:1020E0007B68DB68164913434B607B681B6803F011
:1020F0000803002B09D0124B5B6823F460527B6805
:102100001B69DB000E4913434B6000F021F80146C8
:102110000B4B5B681B0903F00F030A4AD35C21FADF
:1021200003F3094A1360094B1B681846FFF7BAF915
:10213000002318461037BD4680BD00BF0020024076
:10214000001002404C38000800000020040000206D
:1021500090B48AB000AF2A4B3C1D0FCB84E80F002F
:10216000284B1B883B800023FB610023BB610023BD
:102170007B6200237B6100233B62234B5B68FB6136
:10218000FB6903F00C03042B02D0082B03D02DE0D5
:102190001E4B3B622DE0FB699B0C03F00F0307F124
:1021A0002802134413F8243C7B61FB6903F4803359
:1021B000002B13D0144B5B685B0C03F0010307F199
:1021C0002802134413F8283CBB617B690F4A02FBC9
:1021D00003F2BB69B2FBF3F37B6204E07B690C4A58
:1021E00002FB03F37B627B6A3B6202E0074B3B62CC
:1021F00000BF3B6A18462837BD4690BC704700BFF9
:1022000038380008483800080010024000127A00F0
:1022100000093D0080B400AF024B1B681846BD4664
:1022200080BC70470000002080B485B000AF7860AB
:102230000A4B1B680A4AA2FB03235B0A7A6802FB6B
:1022400003F3FB6000BFFB685A1EFA60002BF9D154
:1022500000BF1437BD4680BC704700BF000000209F
:10226000D34D621080B582B000AF78607B68002BE0
:1022700001D101231DE07B6893F83D30DBB2002BD8
:1022800006D17B68002283F83C207868FFF744F889
:102290007B68022283F83D207B681A687B680433E0
:1022A0001946104600F038FA7B68012283F83D2079
:1022B000002318460837BD4680BD000080B584B0B5
:1022C00000AF786039607B681B6801223968184666
:1022D00000F002FC7B681B68104A934207D17B68C0
:1022E0001B685A6C7B681B6842F400425A647B6826
:1022F0001B689B6803F00703FB60FB68062B07D095
:102300007B681B681A687B681B6842F001021A60D0
:10231000002318461037BD4680BD00BF002C014089
:1023200080B582B000AF78607B681B681B6903F0E2
:102330000203022B22D17B681B68DB6803F00203D7
:10234000022B1BD17B681B686FF002021A617B684D
:1023500001221A777B681B689B6903F00303002B3B
:1023600003D0786800F0BCF905E0786800F0AFF9B8
:10237000786800F0BEF97B6800221A777B681B68DA
:102380001B6903F00403042B22D17B681B68DB6804
:1023900003F00403042B1BD17B681B686FF004025D
:1023A0001A617B6802221A777B681B689B6903F4B9
:1023B0004073002B03D0786800F092F905E078684C
:1023C00000F085F9786800F094F97B6800221A77AC
:1023D0007B681B681B6903F00803082B22D17B680C
:1023E0001B68DB6803F00803082B1BD17B681B68A4
:1023F0006FF008021A617B6804221A777B681B68F9
:10240000DB6903F00303002B03D0786800F068F960
:1024100005E0786800F05BF9786800F06AF97B689D
:1024200000221A777B681B681B6903F01003102BCE
:1024300022D17B681B68DB6803F01003102B1BD1D3
:102440007B681B686FF010021A617B6808221A779C
:102450007B681B68DB6903F44073002B03D078684A
:1024600000F03EF905E0786800F031F9786800F096
:1024700040F97B6800221A777B681B681B6903F0B0
:102480000103012B0ED17B681B68DB6803F001039D
:10249000012B07D17B681B686FF001021A61786815
:1024A00000F00CF97B681B681B6903F08003802B2C
:1024B0000ED17B681B68DB6803F08003802B07D19B
:1024C0007B681B686FF080021A61786800F031FB4E
:1024D0007B681B681B6903F04003402B0ED17B68AF
:1024E0001B68DB6803F04003402B07D17B681B6847
:1024F0006FF040021A61786800F004F97B681B688D
:102500001B6903F02003202B0ED17B681B68DB685E
:1025100003F02003202B07D17B681B686FF020029B
:102520001A61786800F0FCFA00BF0837BD4680BD2C
:1025300080B584B000AFF860B9607A60FB6893F84A
:102540003C30012B01D10223B4E0FB68012283F867
:102550003C20FB68022283F83D207B680C2B00F2B4
:102560009F8001A252F823F09D250008A1260008B3
:10257000A1260008A1260008DD250008A1260008E4
:10258000A1260008A12600081F260008A126000891
:10259000A1260008A12600085F260008FB681B682A
:1025A000B968184600F010F9FB681B689A69FB6867
:1025B0001B6842F008029A61FB681B689A69FB6815
:1025C0001B6822F004029A61FB681B689969BB686A
:1025D0001A69FB681B680A439A6162E0FB681B6822
:1025E000B968184600F056F9FB681B689A69FB68E1
:1025F0001B6842F400629A61FB681B689A69FB6879
:102600001B6822F480629A61FB681B689969BB6849
:102610001B691A02FB681B680A439A6141E0FB6868
:102620001B68B968184600F09FF9FB681B68DA69F7
:10263000FB681B6842F00802DA61FB681B68DA6914
:10264000FB681B6822F00402DA61FB681B68D96929
:10265000BB681A69FB681B680A43DA6121E0FB6802
:102660001B68B968184600F0E9F9FB681B68DA696D
:10267000FB681B6842F40062DA61FB681B68DA6978
:10268000FB681B6822F48062DA61FB681B68D96909
:10269000BB681B691A02FB681B680A43DA6100E029
:1026A00000BFFB68012283F83D20FB68002283F80D
:1026B0003C20002318461037BD4680BD80B483B04F
:1026C00000AF786000BF0C37BD4680BC704780B457
:1026D00083B000AF786000BF0C37BD4680BC704748
:1026E00080B483B000AF786000BF0C37BD4680BCBB
:1026F000704780B483B000AF786000BF0C37BD4630
:1027000080BC704780B483B000AF786000BF0C37E6
:10271000BD4680BC7047000080B485B000AF7860D3
:1027200039607B681B68FB607B68254A934207D051
:102730007B68B3F1804F03D07B68224A934208D173
:10274000FB6823F07003FB603B685B68FA68134327
:10275000FB607B681A4A934207D07B68B3F1804FD5
:1027600003D07B68174A934208D1FB6823F4407377
:10277000FB603B68DB68FA681343FB60FB6823F08F
:1027800080023B685B691343FB607B68FA681A60F0
:102790003B689A687B68DA623B681A687B689A6271
:1027A0007B68074A934203D13B681A697B681A63C6
:1027B0007B6801225A6100BF1437BD4680BC704758
:1027C000002C01400004004080B487B000AF786066
:1027D00039607B681B6A23F001027B681A627B68A0
:1027E0001B6A7B617B685B683B617B689B69FB6004
:1027F000FB6823F07003FB60FB6823F00303FB60BE
:102800003B681B68FA681343FB607B6923F0020393
:102810007B613B689B687A6913437B617B681C4AD8
:1028200093420CD17B6923F008037B613B68DB6832
:102830007A6913437B617B6923F004037B617B68C6
:10284000134A934211D13B6923F480733B613B6986
:1028500023F400733B613B685B693A6913433B6156
:102860003B689B693A6913433B617B683A695A60EC
:102870007B68FA689A613B685A687B685A637B6830
:102880007A691A6200BF1C37BD4680BC704700BF22
:10289000002C014080B487B000AF786039607B685D
:1028A0001B6A23F010027B681A627B681B6A7B61DB
:1028B0007B685B683B617B689B69FB60FB6823F41A
:1028C000E043FB60FB6823F44073FB603B681B68DC
:1028D0001B02FA681343FB607B6923F020037B61D2
:1028E0003B689B681B017A6913437B617B681D4AC7
:1028F00093420DD17B6923F080037B613B68DB68E9
:102900001B017A6913437B617B6923F040037B6180
:102910007B68144A934213D13B6923F480633B6183
:102920003B6923F400633B613B685B699B003A6948
:1029300013433B613B689B699B003A6913433B61CE
:102940007B683A695A607B68FA689A613B685A68A2
:102950007B689A637B687A691A6200BF1C37BD4640
:1029600080BC7047002C014080B487B000AF786015
:1029700039607B681B6A23F480727B681A627B680B
:102980001B6A7B617B685B683B617B68DB69FB6022
:10299000FB6823F07003FB60FB6823F00303FB601C
:1029A0003B681B68FA681343FB607B6923F4007380
:1029B0007B613B689B681B027A6913437B617B6880
:1029C0001D4A93420DD17B6923F400637B613B6810
:1029D000DB681B027A6913437B617B6923F48063A4
:1029E0007B617B68144A934213D13B6923F4805383
:1029F0003B613B6923F400533B613B685B691B010E
:102A00003A6913433B613B689B691B013A69134375
:102A10003B617B683A695A607B68FA68DA613B68B7
:102A20005A687B68DA637B687A691A6200BF1C3770
:102A3000BD4680BC704700BF002C014080B487B009
:102A400000AF786039607B681B6A23F480527B6832
:102A50001A627B681B6A3B617B685B687B617B6891
:102A6000DB69FB60FB6823F4E043FB60FB6823F455
:102A70004073FB603B681B681B02FA681343FB60F2
:102A80003B6923F400533B613B689B681B033A6935
:102A900013433B617B680F4A934209D17B6923F45E
:102AA00080437B613B685B699B017A6913437B616F
:102AB0007B687A695A607B68FA68DA613B685A68B1
:102AC0007B681A647B683A691A6200BF1C37BD468E
:102AD00080BC7047002C014080B487B000AFF86024
:102AE000B9607A60BB6803F01F03012202FA03F3A6
:102AF0007B61FB681A6A7B69DB431A40FB681A62D8
:102B0000FB681A6ABB6803F01F03796801FA03F3D4
:102B10001A43FB681A6200BF1C37BD4680BC704771
:102B200080B483B000AF786000BF0C37BD4680BC76
:102B3000704780B483B000AF786000BF0C37BD46EB
:102B400080BC704770B500250C4E0D4CA41BA41022
:102B5000A54209D100F064FE00250A4E0A4CA41BD0
:102B6000A410A54205D170BD56F82530984701350F
:102B7000EEE756F8253098470135F2E7403C00086B
:102B8000403C0008403C0008443C00080346024426
:102B9000934200D1704703F8011BF9E7F7B5C1F381
:102BA0000A52A2F2FF3CBCF1130F04460D460B463D
:102BB00006464FEAD1775ADCBCF1000F2BDA21F040
:102BC0000042024323D0C1F313020243564216438C
:102BD0004B0C360B34495B0406F4002646EA030529
:102BE00001EBC70102462B46D1E9004520462946A4
:102BF000FDF7B4FACDE90001DDE900012B462246DC
:102C0000FDF7AAFA044621F0004343EAC7752046BF
:102C1000294603B0F0BD254A42FA0CF211400143A7
:102C2000F5D0520805EA020150EA01060CD04FF433
:102C30008023BCF1130F0CBF4FF00046002625EA9D
:102C4000020243FA0CF313431749324601EBC7075C
:102C5000D7E9004520462946FDF780FACDE9000175
:102C6000DDE9000122462B46FDF776FA08E0BCF1CB
:102C7000330F08DDBCF5806FC9D10246FDF76EFA4F
:102C800004460D46C3E7A2F213414FF0FF32CA409B
:102C90001042BCD0520810421FBF4FF0804620EABD
:102CA00002020E411643CFE760380008FFFF0F0015
:102CB00007B5194A20F000439342014604DC002284
:102CC000002100F0A1FC04E0B3F1FF4F04DBFDF7AD
:102CD00081FE03B05DF804FB694600F01FF800F0C8
:102CE0000300012806D0022809D080B901220199E9
:102CF0000098E6E70199009800F068F9E9E70122F9
:102D00000199009800F080FC00F10040E1E7019992
:102D1000009800F05BF9F7E7D80F493F2DE9F04F35
:102D20009D4A20F00045954287B00C46074604DCDA
:102D3000002320604B6000261AE0984A95424BDC45
:102D4000002825F00F059649964E23DDFDF742FE3B
:102D5000B542074610D09449FDF73CFE014620607D
:102D60003846FDF737FE9049FDF734FE01266060D6
:102D7000304607B0BDE8F08F8C49FDF72BFE8C493B
:102D80000546FDF727FE014620602846FDF722FE96
:102D90008749E9E7FDF720FEB54207460ED0824994
:102DA000FDF71AFE014620603846FDF713FE7E4906
:102DB000FDF712FE4FF0FF366060D9E77B49FDF763
:102DC0000BFE7B490546FDF707FE014620602846BD
:102DD000FDF700FE7649EBE7764A954200F38C80DA
:102DE00000F088FC74498046FDF7FEFE4FF07C51F0
:102DF000FDF7F2FDFEF7BEF80646FDF7A1FE6849B5
:102E00008246FDF7F1FE01464046FDF7E3FD6649C7
:102E100080465046FDF7E8FE1F2E81460CDC674ACF
:102E2000711E52F8212025F0FF03934204D0494639
:102E30004046FDF7CFFD09E049464046FDF7CAFD93
:102E4000ED15C0F3C753EB1A082B01DC206024E01A
:102E500056495046FDF7C8FE814601464046FDF7FB
:102E6000B9FD014683464046FDF7B4FD4946FDF7EE
:102E7000B1FD80464E495046FDF7B6FE4146FDF78E
:102E8000A9FD014681465846FDF7A4FDC0F3C7538E
:102E9000ED1A192D15DCD8462060256840462946D4
:102EA000FDF798FD4946FDF795FD002F6060BFF6E0
:102EB0005FAF05F1004500F100402560606076429B
:102EC00056E73F495046FDF78FFE054601465846F6
:102ED000FDF780FD014680465846FDF77BFD2946FB
:102EE000FDF778FD054637495046FDF77DFE29463A
:102EF000FDF770FD81469AE7B5F1FF4F05DB01460E
:102F0000FDF768FD6060206015E7EE15863EA5EBD5
:102F1000C6552846FEF72EF8FDF712FE014603902F
:102F20002846FDF757FD4FF08741FDF75DFE8046CF
:102F3000FEF720F8FDF704FE0146049005464046E2
:102F4000FDF748FD4FF08741FDF74EFE002105904B
:102F5000FDF7DEFFE8B100212846FDF7D9FF002884
:102F600014BF01230223184A21460192022203A81A
:102F70000092324600F0AAF8002F0646BFF6F8AEDF
:102F8000236803F100432360636803F10043636037
:102F900095E70323E7E700BFD80F493FE3CB16408F
:102FA000800FC93FD00FC93F434435370044353700
:102FB00008A3852E800F494384F9223F703800080A
:102FC00000A3852E32318D24F03800082DE9F04120
:102FD00020F00044B4F1485F0646884603DAFDF766
:102FE000C9FF00285CD031463046FDF7FDFD4FF0AB
:102FF0007C510546FDF7F8FD2B4907462846FDF7AD
:10300000F3FD2A49FDF7E8FC2946FDF7EDFD2849C7
:10301000FDF7E0FC2946FDF7E7FD2649FDF7DCFC5E
:103020002946FDF7E1FD2449FDF7D4FC2946FDF7CB
:10303000DBFD2249FDF7D0FC2946FDF7D5FD2946E9
:10304000FDF7D2FD414605463046FDF7CDFD014670
:103050002846FDF7BFFC1A4B05469C420ADC014698
:103060003846FDF7B7FC01464FF07E50FDF7B2FC45
:10307000BDE8F081134B4FF07E509C42CCBF124C08
:1030800004F17F442146FDF7A5FC2146064638465B
:10309000FDF7A0FC2946FDF79DFC01463046E5E71B
:1030A0004FF07E50E4E700BF4ED747ADF6740F31C6
:1030B0007CF29334010DD037610BB63AABAA2A3DAE
:1030C0009999993E0000483F0000903E2DE9F04F4D
:1030D000D9B004930191C34B6299D41E53F82130A7
:1030E00000250293049B4FF0000A013B0393082341
:1030F00094FBF3F424EAE474661CA2EBC606DDE953
:10310000023203EB0208639BA71A059003EB8709C1
:103110000DF1700B45457FDD4FF000084FF0000AC0
:103120006FF0030B049B1CAA02EB830544AB029ACD
:10313000904540F39780134608AA02EB8303079358
:10314000639B029F03EB84030693BA464FF08748C4
:1031500058AB03EB870353F8504C07AD0DF5887956
:10316000BAF1000F00F381803146204600F006FBE3
:103170004FF078510446FDF737FD00F0BFFA4FF0ED
:103180008241FDF731FD01462046FDF723FC044650
:10319000FDF7F0FE8146FDF7D3FC01462046FDF722
:1031A00019FC002E04467EDD7B1E08AA52F823502F
:1031B000C6F1080245FA02F0814490402D1A08AA8F
:1031C000C6F1070042F823500541002D79DD0022A9
:1031D000904609F10109974200F3AE80002E05DD0B
:1031E000012E00F0C080022E00F0C780022D68D1B1
:1031F00021464FF07E50FDF7EDFB0446B8F1000F7D
:103200005FD031464FF07E5000F0B8FA01462046BC
:10321000FDF7E0FB044654E0EF4207D459F82500DF
:10322000FDF78EFC4BF82500013573E75046F9E7B2
:103230000BFB07520693059B52F8040C53F827101A
:10324000FDF7D2FC01464846FDF7C6FB8146069BCA
:103250000137039A9742EBDD43F82890043508F1D3
:10326000010864E7D1460027F3E74FF06E5120468E
:10327000FDF7BAFCFDF77EFEFDF762FC4146834692
:10328000FDF7B2FC01462046FDF7A4FBFDF772FEF8
:103290000AF1FF3A45F8040F59F82A105846FDF78D
:1032A0009BFB04465CE705D17B1E08AA52F823501D
:1032B0002D128AE74FF07C51FDF748FE002839D1E6
:1032C000054600212046FDF723FE002800F0A080DF
:1032D0007C1E2346002202998B4255DA002A7ED0BA
:1032E00008AB53F82430083E002B00F08F803146A5
:1032F0004FF07E5000F042FAA04682464FF06E56E4
:1033000044AFB8F1000F80F2B5804FF0000A0023FF
:10331000A600354A3744A4EB0A01002980F2DB807D
:10332000629B032B00F2FF80DFE813F00201200113
:103330002001D90002254AE708AB53F82230B8F142
:10334000000F09D12BB1C3F5807308A941F82230D1
:103350000123013298463EE7C3F1FF0308A941F873
:1033600022304346F5E77A1E08AB53F8223003F0CB
:103370007F0308A941F8223038E77A1E08AB53F8DA
:10338000223003F03F03F4E708A951F82310013B72
:103390000A43A0E7013352F8041D0029FAD06FF068
:1033A0000308049A7D1CBC181CAA02EB84041F4469
:1033B0000DF58879AF42FFF6C8AE069B4FF0000AC4
:1033C00053F82500FDF7BCFB4FF0000B2060039B7A
:1033D0009A450BDD49F825B004340135EAE7079A30
:1033E0000123D8E7343C0008083C000808FB0AF336
:1033F000059AE05852F82A10FDF7F6FB01465846A8
:10340000FDF7EAFA0AF1010A8346E0E7013C67E7C3
:103410007142204600F0B2F94FF087410446FDF7B3
:1034200095FDF8B14FF06E512046FDF7DDFBFDF73D
:10343000A1FDFDF785FB4FF087418046FDF7D4FBEA
:1034400001462046FDF7C6FAFDF794FD08AB43F8A8
:1034500027004046FDF78EFD7C1C08AB083643F87C
:10346000240044E72046FDF785FD08AB43F827001C
:103470003C463CE708AB53F82800FDF761FB51469A
:10348000FDF7B2FB314647F828005046FDF7ACFB8C
:1034900008F1FF38824634E752F8280057F8281020
:1034A00004930392FDF7A0FB01465846FDF794FAFA
:1034B000DDE90323834608F101080299884501DC10
:1034C000C245E9DA58A901EB8A0141F8A0BC0AF12A
:1034D000010A043F1FE79B464FF00008EDE70DF19E
:1034E000C00A56443746A046B8F1000F4ADC2746CA
:1034F000012F60DC0020012C74DC309A319B002D00
:1035000076D101990A600A464B6090600BE056F84C
:103510002410FDF761FA013C002CF8DA0DB100F13E
:103520000040019B186009F0070059B0BDE8F08F1A
:10353000002030AEF0E757F82610FDF74DFA013EB7
:10354000002EF8DAB5B100F10043019A58AF0146F8
:10355000136057F8A00DFDF73DFA0126B4420BDACF
:103560000DB100F10040019B5860DCE726460020C9
:1035700030AFE5E70346E8E757F82610FDF72CFAE9
:103580000136EBE757F8042D08F1FF387B68104649
:10359000194603930292FDF71FFA029A01468346E9
:1035A0001046FDF717FA039B1946FDF715FAC7F801
:1035B00000B0786098E756F8043D013FD6F804B0B3
:1035C000184659460293FDF707FA029B01468046CA
:1035D0001846FDF7FFF95946FDF7FEF9C6F80080D9
:1035E000706085E75AF82410FDF7F6F9013C82E790
:1035F000019902F1004203F100430A604B600A4660
:1036000000F1004081E700BF2DE9F84320F00043BE
:10361000B3F1485F04460F46914603DAFDF7AAFC72
:10362000002835D021462046FDF7DEFA0546014642
:103630002046FDF7D9FA294906462846FDF7D4FA6F
:103640002749FDF7C7F92946FDF7CEFA2549FDF7C9
:10365000C3F92946FDF7C8FA2349FDF7BBF9294606
:10366000FDF7C2FA2149FDF7B7F98046B9F1000F1D
:1036700011D101462846FDF7B7FA1D49FDF7AAF911
:103680003146FDF7B1FA01462046FDF7A5F904469B
:103690002046BDE8F8834FF07C513846FDF7A4FA88
:1036A000414681463046FDF79FFA01464846FDF700
:1036B00091F92946FDF798FA3946FDF78BF90C493F
:1036C00005463046FDF790FA01462846FDF784F995
:1036D00001462046FDF77EF9D9E700BFD3C92E2F5A
:1036E000342FD7321BEF3836010D50398988083C0A
:1036F000ABAA2A3E20F000407047000070B520F0D1
:103700000046F50D7F3D162D0146044626DC002DB2
:103710000EDA1749FDF760F90021FDF721FC28B109
:10372000002C23DA134B002E18BF1C4621461BE049
:10373000114E2E41304217D00D49FDF74DF90021B1
:10374000FDF70EFC0028F1D0002CBEBF4FF40003A3
:1037500043FA05F5641924EA0604E7E7B6F1FF4FDA
:1037600002D3FDF739F90146084670BD0024DDE7B4
:10377000CAF24971000080BFFFFF7F0030F00043B4
:1037800010B502460C46014627D0B3F1FF4F03D3D4
:10379000FDF722F9024620E0B3F5000F15D24FF0F5
:1037A0009841FDF721FA184B02469C4222DBC0F3F8
:1037B000C753193B2344FE2B09DD1146134800F083
:1037C00029F81249FDF710FAE4E7DB0DF2E7002BC8
:1037D00005DD20F0FF4040EAC352104610BD13F152
:1037E000160F09DA4CF250339C421146E6DC0848C9
:1037F00000F010F80649E5E7193320F0FF404FF0DC
:103800004C5140EAC350DDE7B03CFFFFCAF24971BA
:103810006042A20D01F0004120F0004008437047D3
:10382000F8B500BFF8BC08BC9E467047F8B500BFAD
:08383000F8BC08BC9E4670477D
:1038380002030405060708090A0B0C0D0E0F1010E9
:103848000102000000000000000000000102030463
:1038580006070809000000000000000000003043CF
:1038680000000000000030C3000FC93F000F4940AE
:1038780000CB9640000FC9400053FB4000CB1641D7
:1038880000ED2F41000F49410031624100537B4157
:10389800003A8A4100CB9641005CA34100EDAF415C
:1038A800007EBC41000FC94100A0D5410031E24172
:1038B80000C2EE410053FB4100F20342003A0A42C3
:1038C8000083104200CB164200141D42005C2342C4
:1038D80000A5294200ED2F4200363642007E3C42C8
:1038E80000C74242000F4942A2000000F900000050
:1038F800830000006E0000004E000000440000003D
:103908001500000029000000FC000000270000004E
:1039180057000000D1000000F5000000340000004E
:10392800DD000000C0000000DB00000062000000B5
:1039380095000000990000003C00000043000000D2
:103948009000000041000000FE000000510000004F
:1039580063000000AB000000DE000000BB000000B8
:10396800C500000061000000B7000000240000004E
:103978006E0000003A000000420000004D00000008
:10398800D2000000E000000006000000490000002E
:103998002E000000EA00000009000000D10000002D
:1039A800920000001C000000FE0000001D00000046
:1039B800EB0000001C000000B1000000290000001E
:1039C800A70000003E000000E800000082000000A0
:1039D80035000000F50000002E000000BB000000CC
:1039E8004400000084000000E90000009C00000082
:1039F8007000000026000000B40000005F00000016
:103A08007E00000041000000390000009100000025
:103A1800D6000000390000008300000053000000B9
:103A280039000000F40000009C0000008400000041
:103A38005F0000008B000000BD000000F9000000DE
:103A4800280000003B0000001F000000F8000000F4
:103A580097000000FF000000DE00000005000000E5
:103A6800980000000F000000EF0000002F00000089
:103A7800110000008B0000005A0000000A0000003E
:103A88006D0000001F0000006D00000036000000FF
:103A98007E000000CF00000027000000CB000000DF
:103AA80009000000B70000004F00000046000000B9
:103AB8003F000000660000009E0000005F0000005C
:103AC800EA0000002D00000075000000270000003B
:103AD800BA000000C7000000EB000000E50000008D
:103AE800F10000007B0000003D000000070000001E
:103AF80039000000F70000008A00000052000000B2
:103B080092000000EA0000006B000000FB000000CB
:103B18005F000000B10000001F0000008D000000E1
:103B28005D000000080000005600000003000000CF
:103B38003000000046000000FC0000007B00000090
:103B48006B000000AB000000F0000000CF00000098
:103B5800BC000000200000009A000000F4000000F3
:103B6800360000001D000000A9000000E30000006E
:103B780091000000610000005E000000E600000007
:103B88001B0000000800000065000000990000000C
:103B9800850000005F00000014000000A000000085
:103BA80068000000400000008D000000FF000000D9
:103BB800D8000000800000004D00000073000000E5
:103BC8002700000031000000060000000600000089
:103BD8001500000056000000CA0000007300000035
:103BE800A8000000C900000060000000E20000001A
:103BF8007B000000C00000008C0000006B0000008B
:103C08000000C93F0000F0390000DA370000A23395
:103C18000000842E0000502B0000C2270000D02294
:103C28000000C41F0000C61B000044170400000069
:083C3800070000000900000074
:043C40003501000842
:043C44001101000862
:0C3C48000024F400100000000100000047
:040000050800142DAE
:00000001FF
