:020000040800F2
:10000000000002204D0A00089D0A00089D0A000811
:100010009D0A00089D0A00089D0A000800000000D3
:100020000000000000000000000000009D0A000821
:100030009D0A0008000000009D0A0008110A00083F
:100040009D0A00089D0A00089D0A00089D0A0008F4
:100050009D0A00089D0A00089D0A00089D0A0008E4
:100060009D0A00089D0A00089D0A00089D0A0008D4
:100070009D0A00089D0A00089D0A00089D0A0008C4
:100080009D0A00089D0A00089D0A00089D0A0008B4
:100090009D0A00089D0A00089D0A00089D0A0008A4
:1000A0009D0A00089D0A00089D0A00089D0A000894
:1000B0009D0A00089D0A00089D0A00089D0A000884
:1000C0009D0A00089D0A00089D0A00089D0A000874
:1000D0009D0A00089D0A00089D0A00089D0A000864
:1000E0009D0A00089D0A00089D0A00089D0A000854
:1000F0009D0A00089D0A00089D0A00089D0A000844
:100100009D0A00089D0A00089D0A00089D0A000833
:100110009D0A00089D0A00089D0A00089D0A000823
:100120009D0A00089D0A00089D0A00089D0A000813
:100130009D0A000800000000000000009D0A000861
:100140009D0A00089D0A00089D0A00089D0A0008F3
:100150009D0A00089D0A00089D0A00089D0A0008E3
:100160009D0A00089D0A00089D0A00089D0A0008D3
:100170009D0A00089D0A00089D0A00080000000072
:10018000000000009D0A00080000000000000000C0
:100190009D0A000800000000000000009D0A000801
:1001A0000000000000000000000000009D0A0008A0
:1001B0009D0A00089D0A00089D0A00089D0A000883
:0401C0009D0A00088C
:1001C40010B5054C237833B9044B13B10448AFF38D
:1001D40000800123237010BD0C00002000000000EB
:1001E4009C2D000808B5034B1BB103490348AFF32A
:1001F400008008BD00000000100000209C2D0008B5
:10020400034613F8012B002AFBD1181A0138704752
:1002140053B94AB9002908BF00281CBF4FF0FF3169
:100224004FF0FF3000F072B9ADF1080C6DE904CE67
:1002340000F006F8DDF804E0DDE9022304B07047BD
:100244002DE9F047089E04468846002B4BD18A428C
:10025400154667D9B2FA82F24AB1C2F1200701FA0F
:1002640002F320FA07F7954047EA030894404FEA5F
:10027400154E230CB8FBFEF71FFA85FC0EFB1788FE
:1002840043EA084307FB0CF1994209D9EB1807F13B
:10029400FF3080F01B81994240F21881023F2B44C9
:1002A4005B1AA4B2B3FBFEF00EFB103344EA034422
:1002B40000FB0CFCA44509D92C1900F1FF3380F094
:1002C4000781A44540F2048102382C4440EA0740E7
:1002D400A4EB0C0400271EB1D4400023C6E900435C
:1002E4003946BDE8F0878B4209D9002E00F0EB8037
:1002F4000027C6E9000138463946BDE8F087B3FA5D
:1003040083F7002F47D18B4202D3824200F2FA8056
:10031400841A61EB030301209846002EE0D0C6E95D
:100324000048DDE702B9FFDEB2FA82F2002A40F0AB
:100334008F80491B4FEA154E1FFA85F80127B1FB40
:10034400FEFC230C0EFB1C1143EA014308FB0CF1D9
:10035400994207D9EB180CF1FF3002D2994200F20E
:10036400CD808446591AA3B2B1FBFEF00EFB1014E3
:1003740043EA044408FB00F8A04507D92C1900F10E
:10038400FF3302D2A04500F2B6801846A4EB08045D
:1003940040EA0C409FE7C7F1200CBB4022FA0CFE58
:1003A4004EEA030E01FA07F420FA0CF521FA0CF3D5
:1003B4004FEA1E482543B3FBF8F92C0C08FB19330C
:1003C4001FFA8EFA44EA034309FB0AF49C4202FA38
:1003D40007F200FA07F10BD91EEB030309F1FF3012
:1003E40080F087809C4240F28480A9F10209734422
:1003F4001B1BADB2B3FBF8F008FB103345EA034412
:1004040000FB0AFAA24508D91EEB040400F1FF33ED
:100414006BD2A24569D90238744440EA0940A0FB72
:100424000289A4EB0A044C45C2464B4654D351D02E
:10043400002E69D0B1EB0A0564EB030404FA0CFC4A
:10044400FD40FC404CEA0505C6E90054002747E797
:10045400C2F1200320FA03F7954001FA02F021FAD1
:1004640003F34FEA154E3843010CB3FBFEF71FFAB2
:1004740085F80EFB173341EA034107FB08F38B426F
:1004840004FA02F407D9691807F1FF3C2FD28B4212
:100494002DD9023F2944CB1A81B2B3FBFEF00EFBE7
:1004A400103341EA034100FB08F38B4207D9691872
:1004B40000F1FF3C17D28B4215D902382944C91ADE
:1004C40040EA07473BE73746304609E70746E7E691
:1004D4001846FBE64145ABD2B8EB020A69EB0E02C3
:1004E40001381346A4E76046E9E7184695E76746EE
:1004F400D1E781467CE702382C4447E7ACF1020C93
:100504002B442FE7384608E73746E9E6704700BF33
:1005140080B500AF00F0C2FA322000F017F800F006
:10052400ABF800F07DF900F0A5F900F053F90648A6
:1005340000F002FD0346002B01D000F097F900F013
:10054400BFF800F00DF9FEE76800002080B596B012
:1005540000AF0346FB71002387F857300123FB618A
:100564004FF480333B6202237B634FF48003BB630D
:10057400FB79542B1DD0782B34D0322B00D076E06D
:100584000423FB6332233B6402237B640223BB64A6
:100594000223FB640F23BB600223FB6000233B6147
:1005A4004FF480537B610023BB61012387F85730EC
:1005B40032E00423FB6354233B6402237B64022361
:1005C400BB640223FB640F23BB600223FB60002394
:1005D4003B614FF480537B610023BB61022387F8A6
:1005E400573019E00423FB6378233B6402237B64C4
:1005F4000223BB640223FB640F23BB600223FB6062
:1006040000233B614FF4A0537B614FF48053BB61E3
:10061400032387F8573000BF07F11C03184601F085
:1006240091FC0346002B01D000F020F997F85720E5
:1006340007F108031146184601F0CAF90346002BD6
:1006440001D000F013F901F0A9FA38653B6D094AAD
:10065400A2FB03239B09184600F0F1FF042000F0DD
:10066400FBFF002200214FF0FF3000F0BEFF58379F
:10067400BD4680BDD34D621080B586B000AF002367
:100684003B600D4B1B6B0C4A43F0010313630A4B95
:100694001B6B03F001033B603B6820237B60012359
:1006A400BB600023FB603B1D1946044800F0FEFFBD
:1006B40000BF1837BD4680BD00380240000002402C
:1006C400B0B596B000AF224A3B4692E803001860EA
:1006D4000433197005233B6540F25D633B640023DA
:1006E400BB640023FB6407F13C033A4607F1400175
:1006F400184800F065FC0346002B01D000F0B6F862
:1007040000BFFB6B1946134800F035FD0346002B70
:10071400F7D107F10803104A1C4615460FCD0FC444
:1007240095E8030020600434218007F1080318468B
:10073400FFF766FD03469AB207F108014FF0FF3355
:10074400064801F0A6FE00BF5837BD46B0BD00BF45
:10075400CC2D000868000020B42D000828000020DB
:10076400B0B596B000AF00BF0021174800F039FEC5
:100774000346002BF8D007F1340307F13C020021B3
:10078400114800F01CFD0346002B01D000F06EF868
:100794003B460E4A1C4615460FCD0FC42B681A461D
:1007A400228002341B0C23703B461846FFF728FDB9
:1007B40003469AB239464FF0FF33054801F069FE0B
:1007C40000BF5837BD46B0BD68000020D42D0008D6
:1007D4002800002080B58AB000AF01233B620023CB
:1007E4007B6100233B6100233B6000237B6000238B
:1007F400BB600023FB600023BB610123FB613B461C
:100804001946064800F0B8FA0346002B01D000F060
:100814002DF800BF2837BD4680BD00BF680000200A
:1008240080B500AF0F4B104A1A600E4B4FF4E13203
:100834005A600C4B00229A600A4B0022DA60094B82
:1008440000221A61074B00229A61064B0C225A615E
:10085400044801F0D1FD0346002B01D000F006F856
:1008640000BF80BD280000200044004080B400AFD9
:10087400FEE7000080B500AF174B184A1A60164B0C
:100884004FF080429A60144B00225A76124B012298
:10089400DA76114B00229A760F4B00221A770E4B10
:1008A40000221A760C4B00225A770B4B05225A6011
:1008B400094B0022DA60084B4FF4E0221A61064B20
:1008C40000225A61044800F05BF90346002B01D072
:1008D400FFF7CCFF00BF80BD68000020006400402B
:1008E40080B500AF032000F075FE0D4B5B6A0C4A27
:1008F40043F4E0235362002200216FF00B0000F068
:1009040074FE002200216FF00A0000F06EFE002247
:1009140000216FF0090000F068FE00BF80BD00BF39
:1009240000ED00E080B588B000AF78600023BB60C4
:10093400104B1B6C0F4A43F0007313640D4B1B6C7C
:1009440003F00073BB60BB684FF4C053FB60022329
:100954003B6100237B610323BB610923FB6107F136
:100964000C031946044800F0A1FE00BF2037BD4621
:1009740080BD00BF003802400000024080B58AB04C
:1009840000AF786000233B611E4B1B6C1D4A43F48F
:10099400003313641B4B1B6C03F400333B613B6952
:1009A4000023FB60174B1B6B164A43F001031363D0
:1009B400144B1B6B03F00103FB60FB6804237B6196
:1009C4000223BB610123FB6100233B6207237B629B
:1009D40007F1140319460C4800F068FE08237B61F4
:1009E40007F114031946084800F060FE262000F0C1
:1009F40018FE00220F21262000F0F7FD00BF283743
:100A0400BD4680BD003802400000024080B500AF02
:100A140000F096F800F03CFE00BF80BD80B400AF4B
:100A2400084BD3F88830074A43F47003C2F888307F
:100A3400044B4FF000629A6000BFBD465DF8047B32
:100A4400704700BF00ED00E0DFF834D0002103E080
:100A54000C4B5B58435004310B480C4B42189A42E0
:100A6400F6D30B4A02E0002342F8043B094B9A42B6
:100A7400F9D3FFF7D3FF02F06BF9FFF749FD704795
:100A840000000220102E0008000000200C000020AE
:100A94000C00002094000020FEE7000080B500AFA9
:100AA4000E4B1B680D4A43F4007313600B4B1B6819
:100AB4000A4A43F480631360084B1B68074A43F4F3
:100AC40080731360032000F085FD002000F008F817
:100AD400FFF706FF0023184680BD00BF003C02401C
:100AE40080B582B000AF7860124B1A68124B1B7845
:100AF40019464FF47A73B3FBF1F3B2FBF3F31846E0
:100B040000F09DFD0346002B01D001230EE07B681D
:100B14000F2B0AD8002279684FF0FF3000F065FDF2
:100B2400064A7B681360002300E001231846083757
:100B3400BD4680BD00000020080000200400002005
:100B440080B400AF064B1B781A46064B1B6813444F
:100B5400044A136000BFBD465DF8047B704700BFC4
:100B6400080000209000002080B400AF034B1B68F5
:100B74001846BD465DF8047B704700BF9000002016
:100B840080B584B000AF78607B68002B01D101236D
:100B9400EDE07B6893F82030DBB2002B02D178685B
:100BA400FFF7C0FE7B681B681A687B681B6822F02D
:100BB40002021A60FFF7D8FFF86012E0FFF7D4FFD3
:100BC4000246FB68D31A0A2B0BD97B685B6A43F491
:100BD40000327B685A627B68052283F82020012357
:100BE400C5E07B681B685B6803F00203002BE5D15A
:100BF4007B681B681A687B681B6842F001021A60F4
:100C0400FFF7B2FFF86012E0FFF7AEFF0246FB68A1
:100C1400D31A0A2B0BD97B685B6A43F400327B68D6
:100C24005A627B68052283F8202001239FE07B68B9
:100C34001B685B6803F00103002BE5D07B681B7E17
:100C4400012B08D17B681B681A687B681B6842F01B
:100C540080021A6007E07B681B681A687B681B685F
:100C640022F080021A607B685B7E012B08D17B68CE
:100C74001B681A687B681B6842F040021A6007E030
:100C84007B681B681A687B681B6822F040021A6044
:100C94007B689B7E012B08D17B681B681A687B6884
:100CA4001B6842F020021A6007E07B681B681A6820
:100CB4007B681B6822F020021A607B68DB7E012BB4
:100CC40008D17B681B681A687B681B6822F01002D5
:100CD4001A6007E07B681B681A687B681B6842F02F
:100CE40010021A607B681B7F012B08D17B681B688C
:100CF4001A687B681B6842F008021A6007E07B6888
:100D04001B681A687B681B6822F008021A607B68FB
:100D14005B7F012B08D17B681B681A687B681B68A2
:100D240042F004021A6007E07B681B681A687B685B
:100D34001B6822F004021A607B689A687B68DB688F
:100D44001A437B681B691A437B685B6942EA0301A7
:100D54007B685B685A1E7B681B680A43DA617B68A0
:100D640000225A627B68012283F82020002318465F
:100D74001037BD4680BD000080B487B000AF7860F6
:100D840039607B681B687B617B6893F82030FB7457
:100D9400FB7C012B03D0FB7C022B40F0BE80654B17
:100DA4007B617B69D3F8003243F001027B69C3F8AD
:100DB40000227B69D3F8003223F47C527B69C3F8A8
:100DC40000227B69D3F800223B685B6A1B021A434A
:100DD4007B69C3F800223B685B6903F01F030122AF
:100DE40002FA03F3FB607B69D3F81C22FB68DB4344
:100DF4001A407B69C3F81C223B68DB69002B23D1B2
:100E04007B69D3F80C22FB68DB431A407B69C3F887
:100E14000C223B68DB6819043B685B689BB23A6848
:100E2400526919437B69483243F832103B689B6826
:100E340019043B681B689AB23B685B690A43796989
:100E44004833DB000B445A603B68DB69012B22D139
:100E54007B69D3F80C22FB681A437B69C3F80C2224
:100E64003B681B6819043B685B689BB23A6852692B
:100E740019437B69483243F832103B689B68190474
:100E84003B68DB689AB23B685B690A43796948331B
:100E9400DB000B445A603B689B69002B09D17B69DA
:100EA400D3F80422FB68DB431A407B69C3F80422AD
:100EB40007E07B69D3F80422FB681A437B69C3F813
:100EC40004223B681B69002B09D17B69D3F81422E7
:100ED400FB68DB431A407B69C3F8142207E07B6993
:100EE400D3F81422FB681A437B69C3F814223B68C5
:100EF4001B6A012B07D17B69D3F81C22FB681A43B8
:100F04007B69C3F81C227B69D3F8003223F0010209
:100F14007B69C3F80022002306E07B685B6A43F424
:100F240080227B685A62012318461C37BD465DF84F
:100F3400047B70470064004080B584B000AF7860E3
:100F44007B6893F82030DBB2012B2ED17B68022220
:100F540083F820207B681B681A687B681B6822F072
:100F640001021A60FFF700FEF86012E0FFF7FCFDD3
:100F74000246FB68D31A0A2B0BD97B685B6A43F4DD
:100F840000327B685A627B68052283F820200123A3
:100F940012E07B681B685B6803F00103002BE5D15A
:100FA4007B6800225A62002306E07B685B6A43F494
:100FB40000227B685A62012318461037BD4680BD63
:100FC40080B489B000AFF860B9607A603B60FB68B8
:100FD40093F82030FB77FB681B689B68BB61FB7F41
:100FE400012B03D0FB7F022B40F0B880BB6903F0D8
:100FF4008063002B0AD1BB6903F00063002B05D189
:10100400BB6903F08053002B00F0A080BB691B0E6A
:1010140003F003037B617B69022B07D9FB685B6ADE
:1010240043F40002FB685A6201239EE001227B69BB
:101034009A403B681A60BB689B68002B0DD1BB6863
:101044001B685A05BB68DB68F96809681A437B6941
:1010540018331B010B441A600FE0BB685B68DA00AD
:10106400BB689B681A43BB68DB68F96809681A4364
:101074007B6918331B010B441A60FB681968BB6851
:101084001A697B6918331B010B4404331A60BB686B
:101094001B7D012B11D1FB681A687B6918331B0176
:1010A400134404331B68FA68116843F480727B6943
:1010B40018331B010B4404331A607B6807331B7815
:1010C4001A067B6806331B781B041A437B680533B6
:1010D4001B781B0213437A68043212781046FA68AC
:1010E400116843EA00027B691B010B4403F5C673D4
:1010F4001A607B6803331B781A067B6802331B78FB
:101104001B041A437B6801331B781B0213437A6860
:1011140012781046FA68116843EA00027B691B01E1
:101124000B4403F5C4731A60FB681A687B691833AF
:101134001B0113441B68FA68116843F001027B69C0
:1011440018331B010B441A6000230EE0FB685B6A32
:1011540043F40012FB685A62012306E0FB685B6AF1
:1011640043F48022FB685A62012318462437BD46A3
:101174005DF8047B704780B485B000AF7860396057
:101184000023FB607B6893F82030FB72FB7A012B11
:1011940002D0FB7A022B0BD17B681B689A683B68F0
:1011A4009B061A403B689B069A4201D00123FB60D0
:1011B400FB6818461437BD465DF8047B704780B45D
:1011C40087B000AFF860B9607A603B60FB6893F861
:1011D4002030FB75FB7D012B03D0FB7D022B40F0FF
:1011E400F380BB68002B0ED1FB681B68DB6803F03F
:1011F4000303002B16D1FB685B6A43F40012FB68FF
:101204005A620123E7E0FB681B681B6903F00303D0
:10121400002B07D1FB685B6A43F40012FB685A6237
:101224000123D8E0FB681A68BB681B331B01134415
:101234001B6803F004027B689A607B689B68002B40
:101244000CD1FB681A68BB681B331B0113441B6871
:101254005B0DC3F30A027B681A600BE0FB681A6833
:10126400BB681B331B0113441B68DB0823F060427B
:101274007B685A60FB681A68BB681B331B01134404
:101284001B6803F002027B68DA60FB681A68BB68BB
:101294001B331B01134404331B6803F00F027B68E8
:1012A4001A61FB681A68BB681B331B0113440433BF
:1012B4001B681B0ADAB27B689A61FB681A68BB6810
:1012C4001B331B01134404331B681B0C9AB27B6849
:1012D4005A61FB681A68BB681B01134403F5DC738D
:1012E4001B68DAB23B681A70FB681A68BB681B019A
:1012F400134403F5DC731B681A0A3B680133D2B24A
:101304001A70FB681A68BB681B01134403F5DC738D
:101314001B681A0C3B680233D2B21A70FB681A6855
:10132400BB681B01134403F5DC731B681A0E3B688E
:101334000333D2B21A70FB681A68BB681B011344EA
:1013440003F5DE731A683B680433D2B21A70FB6883
:101354001A68BB681B01134403F5DE731B681A0A81
:101364003B680533D2B21A70FB681A68BB681B016C
:10137400134403F5DE731B681A0C3B680633D2B2C0
:101384001A70FB681A68BB681B01134403F5DE730B
:101394001B681A0E3B680733D2B21A70BB68002B65
:1013A40008D1FB681B68DA68FB681B6842F02002FE
:1013B400DA6007E0FB681B681A69FB681B6842F087
:1013C40020021A61002306E0FB685B6A43F4802272
:1013D400FB685A62012318461C37BD465DF8047B3E
:1013E400704780B485B000AF786039600023FB603B
:1013F4007B6893F82030FB72FB7A012B02D0FB7AD6
:10140400022B0FD13B68002B06D17B681B68DB687D
:1014140003F00303FB6005E07B681B681B6903F0B2
:101424000303FB60FB6818461437BD465DF8047B74
:101434007047000080B485B000AF78607B6803F02B
:101444000703FB600C4BDB68BB60BA684FF6FF0315
:101454001340BB60FB681A02BB68134343F0BF63CD
:1014640043F40033BB60044ABB68D36000BF143745
:10147400BD465DF8047B704700ED00E080B400AF2A
:10148400044BDB681B0A03F007031846BD465DF8EE
:10149400047B704700ED00E080B483B000AF0346E6
:1014A400FB7197F90730002B0BDBFB7903F01F026C
:1014B400074997F907305B09012000FA02F241F865
:1014C400232000BF0C37BD465DF8047B704700BF86
:1014D40000E100E080B483B000AF03463960FB71E3
:1014E40097F90730002B0ADB3B68DAB20C4997F90D
:1014F40007301201D2B20B4483F800230AE03B68A0
:10150400DAB20849FB7903F00F03043B1201D2B2AB
:101514000B441A7600BF0C37BD465DF8047B704758
:1015240000E100E000ED00E080B489B000AFF860B5
:10153400B9607A60FB6803F00703FB61FB69C3F1E0
:101544000703042B28BF0423BB61FB690433062B68
:1015540002D9FB69033B00E000237B614FF0FF32BB
:10156400BB6902FA03F3DA43BB681A407B699A4009
:101574004FF0FF317B6901FA03F3D9437B680B40D9
:10158400134318462437BD465DF8047B70470000BA
:1015940080B582B000AF78607B68013BB3F1807F97
:1015A40001D301230FE00A4A7B68013B53600F21FA
:1015B4004FF0FF30FFF78EFF054B00229A60044B7B
:1015C40007221A60002318460837BD4680BD00BFB5
:1015D40010E000E080B582B000AF78607868FFF773
:1015E40029FF00BF0837BD4680BD80B586B000AF77
:1015F4000346B9607A60FB7300237B61FFF73EFF0B
:1016040078617A68B9687869FFF78EFF024697F9BE
:101614000F3011461846FFF75DFF00BF1837BD466F
:1016240080BD80B582B000AF0346FB7197F90730E7
:101634001846FFF731FF00BF0837BD4680BD80B5AF
:1016440082B000AF78607868FFF7A2FF03461846BF
:101654000837BD4680BD000080B483B000AF786019
:101664007B68042B06D1094B1B68084A43F004032A
:10167400136005E0054B1B68044A23F00403136060
:1016840000BF0C37BD465DF8047B704710E000E0F6
:1016940080B500AF00F002F800BF80BD80B400AF99
:1016A40000BFBD465DF8047B7047000080B489B07C
:1016B40000AF7860396000237B6100233B61002325
:1016C400BB610023FB6165E10122FB6902FA03F3BC
:1016D4007B613B681B687A6913403B613A697B69AB
:1016E4009A4240F054813B685B68012B0BD03B6805
:1016F4005B68022B07D03B685B68112B03D03B6807
:101704005B68122B30D17B689B68BB61FB695B0013
:10171400032202FA03F3DB43BA691340BB613B685B
:10172400DA68FB695B0002FA03F3BA691343BB612D
:101734007B68BA699A607B685B68BB610122FB695C
:1017440002FA03F3DB43BA691340BB613B685B688D
:101754001B0903F00102FB6902FA03F3BA6913439C
:10176400BB617B68BA695A607B68DB68BB61FB69F3
:101774005B00032202FA03F3DB43BA691340BB6143
:101784003B689A68FB695B0002FA03F3BA69134386
:10179400BB617B68BA69DA603B685B68022B03D083
:1017A4003B685B68122B23D1FB69DA087B6808323B
:1017B40053F82230BB61FB6903F007039B000F223F
:1017C40002FA03F3DB43BA691340BB613B681A694D
:1017D400FB6903F007039B0002FA03F3BA6913439E
:1017E400BB61FB69DA087B680832B96943F82210E7
:1017F4007B681B68BB61FB695B00032202FA03F38D
:10180400DB43BA691340BB613B685B6803F00302C6
:10181400FB695B0002FA03F3BA691343BB617B689B
:10182400BA691A603B685B6803F08053002B00F0D0
:10183400AE800023FB605C4B5B6C5B4A43F48043EB
:101844005364594B5B6C03F48043FB60FB68574A59
:10185400FB699B08023352F82330BB61FB6903F038
:1018640003039B000F2202FA03F3DB43BA6913401C
:10187400BB617B684E4A934225D07B684D4A9342B4
:101884001FD07B684C4A934219D07B684B4A9342E1
:1018940013D07B684A4A93420DD07B68494A9342ED
:1018A40007D07B68484A934201D106230CE0072302
:1018B4000AE0052308E0042306E0032304E00223EE
:1018C40002E0012300E00023FA6902F0030292001F
:1018D4009340BA691343BB613449FB699B080233E3
:1018E400BA6941F82320394B1B68BB613B69DB4370
:1018F400BA691340BB613B685B6803F48033002B17
:1019040003D0BA693B691343BB61304ABB691360B6
:101914002E4B5B68BB613B69DB43BA691340BB6117
:101924003B685B6803F40033002B03D0BA693B695E
:101934001343BB61254ABB695360244B9B68BB615D
:101944003B69DB43BA691340BB613B685B6803F4E2
:101954008013002B03D0BA693B691343BB611B4A54
:10196400BB699360194BDB68BB613B69DB43BA69B4
:101974001340BB613B685B6803F40013002B03D086
:10198400BA693B691343BB61104ABB69D360FB6905
:101994000133FB61FB690F2B7FF696AE00BF243742
:1019A400BD465DF8047B70470038024000380140B2
:1019B400000002400004024000080240000C024003
:1019C400001002400014024000180240003C014094
:1019D40080B584B000AF786039607B68002B01D19A
:1019E4000123CCE0684B1B6803F00F033A689A426A
:1019F4000CD9654B3A68D2B21A70634B1B6803F07A
:101A04000F033A689A4201D00123B8E07B681B684F
:101A140003F00203002B20D07B681B6803F004034F
:101A2400002B05D0594B9B68584A43F4E05393600C
:101A34007B681B6803F00803002B05D0534B9B689D
:101A4400524A43F460439360504B9B6823F0F00286
:101A54007B689B684D4913438B607B681B6803F06C
:101A64000103002B44D07B685B68012B07D1474BF3
:101A74001B6803F40033002B19D101237FE07B683A
:101A84005B68022B03D07B685B68032B07D13F4B59
:101A94001B6803F00073002B09D101236FE03B4B5B
:101AA4001B6803F00203002B01D1012367E0374BCD
:101AB4009B6823F003027B685B68344913438B60A3
:101AC400FFF752F8F8600AE0FFF74EF80246FB68A9
:101AD400D31A41F28832934201D903234FE02B4BAE
:101AE4009B6803F00C027B685B689B009A42EBD115
:101AF400254B1B6803F00F033A689A420CD2224B21
:101B04003A68D2B21A70204B1B6803F00F033A688C
:101B14009A4201D0012332E07B681B6803F004037E
:101B2400002B08D0194B9B6823F4E0527B68DB68D8
:101B3400164913438B607B681B6803F00803002B72
:101B440009D0124B9B6823F460427B681B69DB005D
:101B54000E4913438B6000F055F801460B4B9B680C
:101B64001B0903F00F030A4AD35C21FA03F3094A61
:101B74001360094B1B681846FEF7B2FF0023184692
:101B84001037BD4680BD00BF003C02400038024013
:101B9400E82D0008000000200400002080B400AFFD
:101BA400034B1B681846BD465DF8047B704700BFB5
:101BB4000000002080B500AFFFF7F0FF0146054BA1
:101BC4009B689B0A03F00703034AD35C21FA03F3DF
:101BD400184680BD00380240F82D000880B500AFDB
:101BE400FFF7DCFF0146054B9B685B0B03F0070323
:101BF400034AD35C21FA03F3184680BD003802403F
:101C0400F82D0008F0B587B000AF0023FB60002377
:101C14007B610023BB6000237B6000233B61C64BD8
:101C24009B6803F00C030C2B00F27E8101A252F896
:101C340023F000BF6D1C00082D1F00082D1F000895
:101C44002D1F0008731C00082D1F00082D1F0008FD
:101C54002D1F0008791C00082D1F00082D1F0008E7
:101C64002D1F0008D51D0008B44B3B615FE1B44B48
:101C74003B615CE1B04B5B6803F03F03FB60AE4B40
:101C84005B6803F48003002B4AD0AB4B5B689B0971
:101C94004FF0000440F2FF114FF0000203EA010587
:101CA40004EA0206294632464FF000034FF00004CE
:101CB400540144EAD1644B0119462246491B62EBA4
:101CC40006024FF000034FF00004940144EA9164CB
:101CD4008B015B1A64EB02044FF000014FF0000229
:101CE400E20042EA5372D9000B4614465B1944EBF6
:101CF40006044FF000014FF00002620242EAD352A0
:101D040059020B46144618462146FB684FF000045E
:101D14001A462346FEF77CFA03460C467B6149E0EB
:101D2400854B5B689B094FF0000440F2FF114FF0B4
:101D3400000203EA010504EA0206294632464FF08E
:101D440000034FF00004540144EAD1644B011946E6
:101D54002246491B62EB06024FF000034FF00004D9
:101D6400940144EA91648B015B1A64EB02044FF022
:101D740000014FF00002E20042EA5372D9000B4620
:101D840014465B1944EB06044FF000014FF00002C7
:101D9400A20242EA935299020B461446184621467F
:101DA400FB684FF000041A462346FEF731FA034657
:101DB4000C467B61604B5B681B0C03F0030301332F
:101DC4005B00BB607A69BB68B2FBF3F33B61AEE0D6
:101DD400594B5B6803F03F03FB60574B5B6803F4AC
:101DE4008003002B4AD0544B5B689B094FF00004DE
:101DF40040F2FF114FF0000203EA010504EA020673
:101E0400294632464FF000034FF00004540144EADF
:101E1400D1644B0119462246491B62EB06024FF07E
:101E240000034FF00004940144EA91648B015B1AAF
:101E340064EB02044FF000014FF00002E20042EABA
:101E44005372D9000B4614465B1944EB06044FF059
:101E540000014FF00002620242EAD35259020B46DB
:101E6400144618462146FB684FF000041A462346E0
:101E7400FEF7CEF903460C467B6149E02E4B5B68C6
:101E84009B094FF0000440F2FF114FF0000203EAF7
:101E9400010504EA0206294632464FF000034FF0DA
:101EA4000004540144EAD1644B0119462246491BFB
:101EB40062EB06024FF000034FF00004940144EA81
:101EC40091648B015B1A64EB02044FF000014FF044
:101ED4000002E20042EA5372D9000B4614465B1931
:101EE40044EB06044FF000014FF00002A20242EA64
:101EF400935299020B46144618462146FB684FF04C
:101F040000041A462346FEF783F903460C467B6118
:101F1400094B5B681B0F03F007037B607A697B68DE
:101F2400B2FBF3F33B6102E0044B3B6100BF3B694E
:101F340018461C37BD46F0BD003802400024F400AA
:101F440000127A0080B586B000AF786000233B6150
:101F54007B681B6803F00103002B00F08380954B22
:101F64009B6803F00C03042B19D0924B9B6803F07D
:101F74000C03082B06D18F4B5B6803F48003B3F585
:101F8400800F0CD08B4B9B6803F00C030C2B12D1ED
:101F9400884B5B6803F48003B3F5800F0BD1854B4A
:101FA4001B6803F40033002B5BD07B685B68002B59
:101FB40057D1012316E27B685B68B3F5803F06D1F5
:101FC4007C4B1B687B4A43F4803313601DE07B68C1
:101FD4005B68B3F5A02F0CD1764B1B68754A43F4AC
:101FE40080231360734B1B68724A43F4803313607D
:101FF4000BE0704B1B686F4A23F4803313606D4B06
:102004001B686C4A23F4802313607B685B68002B95
:1020140013D0FEF7A9FD386108E0FEF7A5FD0246DE
:102024003B69D31A642B01D90323DBE1614B1B68A1
:1020340003F40033002BF0D014E0FEF795FD386173
:1020440008E0FEF791FD02463B69D31A642B01D9DF
:102054000323C7E1574B1B6803F40033002BF0D173
:1020640000E000BF7B681B6803F00203002B6FD005
:10207400504B9B6803F00C03002B17D04D4B9B680F
:1020840003F00C03082B05D14A4B5B6803F480036F
:10209400002B0BD0474B9B6803F00C030C2B1CD17B
:1020A400444B5B6803F48003002B16D1414B1B683F
:1020B40003F00203002B05D07B68DB68012B01D001
:1020C40001238FE13B4B1B6823F0F8027B681B69FB
:1020D400DB00384913430B603AE07B68DB68002B74
:1020E40020D0354B01221A60FEF73EFD386108E02E
:1020F400FEF73AFD02463B69D31A022B01D90323AA
:1021040070E12C4B1B6803F00203002BF0D0294B29
:102114001B6823F0F8027B681B69DB002549134325
:102124000B6015E0244B00221A60FEF71DFD386198
:1021340008E0FEF719FD02463B69D31A022B01D9C8
:1021440003234FE11B4B1B6803F00203002BF0D168
:102154007B681B6803F00803002B37D07B685B693E
:10216400002B16D0154B01221A60FEF7FDFC3861D6
:1021740008E0FEF7F9FC02463B69D31A022B01D9A9
:1021840003232FE10B4B5B6F03F00203002BF0D012
:102194001CE00A4B00221A60FEF7E6FC38610FE0EF
:1021A400FEF7E2FC02463B69D31A022B08D903234B
:1021B40018E100BF0038024000004742800E474249
:1021C4008A4B5B6F03F00203002BE9D17B681B6829
:1021D40003F00403002B00F097800023FB75834B6E
:1021E4001B6C03F08053002B0FD10023FB607F4B4B
:1021F4001B6C7E4A43F0805313647C4B1B6C03F0CE
:102204008053FB60FB680123FB75794B1B6803F467
:102214008073002B18D1764B1B68754A43F4807386
:102224001360FEF7A1FC386108E0FEF79DFC02464E
:102234003B69D31A022B01D90323D3E06C4B1B68EF
:1022440003F48073002BF0D07B689B68012B06D1CC
:10225400664B1B6F654A43F0010313671CE07B6800
:102264009B68052B0CD1614B1B6F604A43F0040340
:1022740013675E4B1B6F5D4A43F0010313670BE06A
:102284005A4B1B6F594A23F001031367574B1B6FBB
:10229400564A23F0040313677B689B68002B15D010
:1022A400FEF762FC38610AE0FEF75EFC02463B6919
:1022B400D31A41F28832934201D9032392E04B4B63
:1022C4001B6F03F00203002BEED014E0FEF74CFC6E
:1022D40038610AE0FEF748FC02463B69D31A41F232
:1022E4008832934201D903237CE0404B1B6F03F0F7
:1022F4000203002BEED1FB7D012B05D13B4B1B6C64
:102304003A4A23F0805313647B689B69002B68D09E
:10231400364B9B6803F00C03082B60D07B689B69E9
:10232400022B45D1334B00221A60FEF71DFC3861A5
:1023340008E0FEF719FC02463B69D31A022B01D9C7
:1023440003234FE0294B1B6803F00073002BF0D1EB
:102354007B68DA697B681B6A1A437B685B6A9B014A
:102364001A437B689B6A5B08013B1B041A437B6826
:10237400DB6A1B061A437B681B6B1B071B49134351
:102384004B601C4B01221A60FEF7EEFB386108E03B
:10239400FEF7EAFB02463B69D31A022B01D9032359
:1023A40020E0124B1B6803F00073002BF0D018E000
:1023B400104B00221A60FEF7D7FB386108E0FEF7E5
:1023C400D3FB02463B69D31A022B01D9032309E04C
:1023D400064B1B6803F00073002BF0D101E00123CE
:1023E40000E0002318461837BD4680BD003802407F
:1023F400007000406000474280B582B000AF786052
:102404007B68002B01D101233FE07B6893F83930CE
:10241400DBB2002B06D17B68002283F83820786871
:10242400FEF7ACFA7B68242283F839207B681B68AA
:10243400DA687B681B6822F40052DA60786800F07E
:102444000BF97B681B681A697B681B6822F490424D
:102454001A617B681B685A697B681B6822F02A0230
:102464005A617B681B68DA687B681B6842F4005217
:10247400DA607B680022DA637B68202283F83920E3
:102484007B68202283F83A20002318460837BD468B
:1024940080BD80B588B002AFF860B9603B60134678
:1024A400FB8000237B61FB6893F83930DBB2202B7F
:1024B40040F08380BB68002B02D0FB88002B01D145
:1024C40001237BE0FB6893F83830012B01D1022310
:1024D40074E0FB68012283F83820FB680022DA6389
:1024E400FB68212283F83920FEF73EFB7861FB6804
:1024F400FA889A84FB68FA88DA84FB68002283F8F5
:10250400382042E0FB68DB8C9BB2013B9AB2FB684B
:10251400DA84FB689B68B3F5805F22D13B68009343
:102524007B6900228021F86800F04CF80346002BF8
:1025340001D0032342E0BB683B613B691B881A4618
:10254400FB681B68C2F308025A60FB681B69002B16
:1025540003D1BB680233BB6017E0BB680133BB60C7
:1025640013E03B6800937B6900228021F86800F047
:1025740029F80346002B01D003231FE0BB685A1C33
:10258400BA601A78FB681B685A60FB68DB8C9BB2E4
:10259400002BB7D13B6800937B6900224021F86887
:1025A40000F010F80346002B01D0032306E0FB687B
:1025B400202283F83920002300E00223184618372C
:1025C400BD4680BD80B584B000AFF860B9603B60A3
:1025D4001346FB712CE0BB69B3F1FF3F28D0BB6904
:1025E400002B07D0FEF7C0FA02463B68D31ABA693B
:1025F4009A421DD2FB681B68DA68FB681B6822F4E8
:10260400D072DA60FB681B685A69FB681B6822F0A9
:1026140001025A61FB68202283F83920FB682022DA
:1026240083F83A20FB68002283F8382003230FE064
:10263400FB681B681A68BB681340BA689A420CBFEF
:1026440001230023DBB21A46FB799A42C3D000234C
:1026540018461037BD4680BD2DE9F04F85B000AF58
:1026640078607B681B681B6923F440517B68DA68D7
:102674007B681B680A431A617B689A687B681B69DC
:102684001A437B685B691A437B68DB691343FB600D
:102694007B681B68DB6823F4164323F00C037A6819
:1026A4001268F9680B43D3607B681B685B6923F489
:1026B40040717B689A697B681B680A435A617B682E
:1026C400DB69B3F5004F40F08B817B681B68C14A1E
:1026D400934205D07B681B68BF4A934240F0BD809B
:1026E400FFF77CFAB860BB681D464FF00006A846A9
:1026F400B14618EB080349EB09049846A14618EBC8
:10270400050849EB06094FF000014FF000024FEABB
:10271400C90242EA58724FEAC8018846914618EB4A
:10272400050049EB06017B685B681D464FF0000617
:102734006B1946EB06041A462346FDF769FD03466A
:102744000C461A46A54BA3FB02235B094FEA031868
:10275400BB681D464FF00006A946B24619EB0903B3
:102764004AEB0A049946A24619EB05094AEB060A04
:102774004FF000014FF000024FEACA0242EA5972D8
:102784004FEAC9018946924619EB05004AEB060156
:102794007B685B681D464FF000066B1946EB060428
:1027A4001A462346FDF734FD03460C461A468B4B66
:1027B400A3FB02135B09642101FB03F3D31ADB00BF
:1027C4003233864AA2FB03235B095B0003F4F873EC
:1027D4009844BB681D464FF00006A946B24619EB63
:1027E40009034AEB0A049946A24619EB05094AEB88
:1027F400060A4FF000014FF000024FEACA0242EA13
:1028040059724FEAC9018946924619EB05004AEB11
:1028140006017B685B681D464FF000066B1946EBAA
:1028240006041A462346FDF7F3FC03460C461A46F3
:102834006A4BA3FB02135B09642101FB03F3D31A64
:10284400DB003233654AA2FB03235B0903F0070272
:102854007B681B6842449A606FE2FFF7ABF9B8608B
:10286400BB681D464FF00006A846B14618EB0803A6
:1028740049EB09049846A14618EB050849EB0609FB
:102884004FF000014FF000024FEAC90242EA5872C9
:102894004FEAC8018846914618EB050049EB06014A
:1028A4007B685B681D464FF000066B1946EB060417
:1028B4001A462346FDF7ACFC03460C461A46474B22
:1028C400A3FB02235B094FEA0318BB681D464FF0C4
:1028D4000006A946B24619EB09034AEB0A049946D5
:1028E400A24619EB05094AEB060A4FF000014FF026
:1028F40000024FEACA0242EA59724FEAC901894604
:10290400924619EB05004AEB06017B685B681D469D
:102914004FF000066B1946EB06041A462346FDF7F2
:1029240077FC03460C461A462C4BA3FB02135B09A7
:10293400642101FB03F3D31ADB003233274AA2FBE1
:1029440003235B095B0003F4F8739844BB681D46DA
:102954004FF00006A946B24619EB09034AEB0A04F4
:102964009946A24619EB05094AEB060A4FF0000105
:102974004FF000024FEACA0242EA59724FEAC90113
:102984008946924619EB05004AEB06017B685B68B1
:102994001D464FF000066B1946EB06041A46234603
:1029A400FDF736FC03460C461A460C4BA3FB0213F8
:1029B4005B09642101FB03F3D31ADB003233074ABA
:1029C400A2FB03235B0903F007027B681B684244F4
:1029D4009A60B2E100100140001401401F85EB51E0
:1029E4007B681B68D74A934205D07B681B68D64A2C
:1029F400934240F0D180FFF7F1F8B860BB689A4683
:102A04004FF0000BD046D94618EB080349EB0904F4
:102A14009846A14618EB0A0849EB0B094FF0000150
:102A24004FF000024FEAC90242EA58724FEAC80165
:102A3400884691461AEB08054BEB09067B685B68F0
:102A440019464FF000024FF000034FF000049400C9
:102A540044EA91748B001A46234628463146FDF712
:102A6400D7FB03460C461A46B84BA3FB02235B096B
:102A74004FEA0318BB689B464FF0000CD946E24668
:102A840019EB09034AEB0A049946A24619EB0B0910
:102A94004AEB0C0A4FF000014FF000024FEACA0261
:102AA40042EA59724FEAC901894692461BEB09056D
:102AB4004CEB0A067B685B6819464FF000024FF046
:102AC40000034FF00004940044EA91748B001A460A
:102AD400234628463146FDF79BFB03460C461A461F
:102AE4009A4BA3FB02135B09642101FB03F3D31A82
:102AF4001B013233954AA2FB03235B0903F0F00365
:102B04009844BB689B464FF0000CD946E24619EB4B
:102B140009034AEB0A049946A24619EB0B094AEB4E
:102B24000C0A4FF000014FF000024FEACA0242EAD9
:102B340059724FEAC901894692461BEB09054CEBD1
:102B44000A067B685B6819464FF000024FF00003E9
:102B54004FF00004940044EA91748B001A46234613
:102B640028463146FDF754FB03460C461A46774B7C
:102B7400A3FB02135B09642101FB03F3D31A1B01BA
:102B84003233724AA2FB03235B0903F00F027B6812
:102B94001B6842449A60D0E0FFF70CF8B860BB6849
:102BA4009A464FF0000BD046D94618EB080349EB80
:102BB40009049846A14618EB0A0849EB0B094FF0A3
:102BC40000014FF000024FEAC90242EA58724FEA8C
:102BD400C801884691461AEB08054BEB09067B6849
:102BE4005B6819464FF000024FF000034FF00004F9
:102BF400940044EA91748B001A46234628463146D1
:102C0400FDF706FB03460C461A46504BA3FB022372
:102C14005B094FEA0318BB689B464FF0000CD9468A
:102C2400E24619EB09034AEB0A049946A24619EB5A
:102C34000B094AEB0C0A4FF000014FF000024FEA77
:102C4400CA0242EA59724FEAC901894692461BEB0D
:102C540009054CEB0A067B685B6819464FF00002D5
:102C64004FF000034FF00004940044EA91748B0089
:102C74001A46234628463146FDF7CAFA03460C464F
:102C84001A46324BA3FB02135B09642101FB03F3D5
:102C9400D31A1B0132332D4AA2FB03235B0903F031
:102CA400F0039844BB689B464FF0000CD946E246BB
:102CB40019EB09034AEB0A049946A24619EB0B09DE
:102CC4004AEB0C0A4FF000014FF000024FEACA022F
:102CD40042EA59724FEAC901894692461BEB09053B
:102CE4004CEB0A067B685B6819464FF000024FF014
:102CF40000034FF00004940044EA91748B001A46D8
:102D0400234628463146FDF783FA03460C461A4605
:102D14000E4BA3FB02135B09642101FB03F3D31ADB
:102D24001B013233094AA2FB03235B0903F00F02A0
:102D34007B681B6842449A60FFE700BF1437BD46B6
:102D4400BDE8F08F00100140001401401F85EB51D5
:102D540070B50D4E0D4CA41BA4100025A54209D13D
:102D64000B4E0C4C00F018F8A41BA4100025A5422F
:102D740005D170BD56F8253098470135EEE756F871
:102D8400253098470135F2E7082E0008082E000880
:102D9400082E00080C2E0008F8B500BFF8BC08BCCB
:102DA4009E467047F8B500BFF8BC08BC9E46704705
:102DB4004D657373616765205472616E736D6974D8
:102DC4007465640D0A00000048454C4C4F00000037
:102DD4004D657373616765205265636569766564E3
:102DE4000D0A0000000000000000000001020304BE
:0C2DF400060708090000000001020304AB
:082E000044D4FF7F0100000033
:042E0800E9010008D4
:042E0C00C5010008F4
:0C2E10000024F40010000000010000008D
:0400000508000A4D98
:00000001FF
